:020000040000FA
:030000000200D12A
:03000B00026D6C17
:03001B0002934C01
:03002300020FC801
:03005B000292AE60
:1000630002867C00000080FB1200E0B9000302005E
:10007300CBE47913780CB800028004F709D8FCE4C8
:10008300900419786D79098002F0A3D8FCD9FA7825
:100093001290012F7A01BA00028007E493A3F608B5
:1000A300DAF97A007B04900130781A79018015E43B
:1000B30093A3AD82AE838A828B83F0A3AA82AB83A0
:1000C3008D828E83D8E9D9E712939612006675D094
:1000D3000075817E75100075110402006BC082C02B
:1000E30083907054748AF07909129D417938129D76
:1000F300289070607409F0E587A2E64004D2F0808E
:1001030002C2F0A2F0E433F5129070077418F012F3
:10011300395775860075A84075980075A0009070D2
:100123000C7401F0E512F9D083D0822201013FF073
:100133003FF001D01DB156F90A6AFF6AFF02151993
:10014300000100303900E49366701308740193666C
:10015300700C08740293667005087403936622C0DA
:1001630008C3E49396F5080874019396420808744B
:10017300029396420808740393964208A2D265D06C
:1001830033E5087001D3D00822C3E7960809E79640
:100193000809E7960809E79622C3E09608A3E096C4
:1001A30008A3E09608A3E09622C008C3E49396F55B
:1001B300080874019396420808740293964208084B
:1001C3007403939645087001D3D00822BB0102E75C
:1001D30022C082C08389828A83BB0003E08002E459
:1001E30093D083D08222BB000EC082C0838A8389CE
:1001F30082F0D083D08222BB0101F722080808EAEB
:10020300C0E0EBC0E086F0E7A4FA180986F0E7A4A3
:100213002AFA180986F0E7A42AFA180986F0E7A44F
:100223002AFA1986F0E7A4FBE5F02AFA190886F002
:10023300E7A42BFBE5F03AFA190886F0E7A42BFBB9
:10024300E5F03AFA18180986F0E7A4C5F02BFBE4A9
:100253003AFA1908E7C5F0C6A426F6E5F03BFBE435
:100263003AFA1886F0E7A4F6E5F00826F6E43B0828
:10027300F6E43A08F6D0E0FBD0E0FA22E4CFC0E09F
:10028300E4CEC0E0E4CDC0E0E4CCC0E075F020E60D
:1002930026F608E633F608E633F608E633F61818CA
:1002A30018EC33FCED33FDEE33FEEF33FFC3EC9775
:1002B30009ED9709EE9709EF97191919400FFFEC0C
:1002C30097FC09ED97FD09EE97FE191906D5F0BFC6
:1002D300ECF709EDF709EEF709EFF7191919D0E073
:1002E300FCD0E0FDD0E0FED0E0FF22E4C396F608A8
:1002F300E496F608E496F608E496F622C6F4C608F1
:10030300C6F4C608C6F4C608C6F4C62260170808B1
:1003130008C6A2E713C618C613C618C613C618C65E
:1003230013C6D5E0E9226016080808C6C313C61829
:10033300C613C618C613C618C613C6D5E0EA22707C
:1003430009080808226016181818C6C333C608C659
:1003530033C608C633C608C633C6D5E0EA22E62745
:10036300F60809E637F60809E637F60809E637F628
:1003730022E026F608A3E036F608A3E036F608A343
:10038300E036F622E49326F60874019336F60874F1
:10039300029336F60874039336F622E026F008A398
:1003A300E036F008A3E036F008A3E036F022C3E617
:1003B30097F60809E697F60809E697F60809E69717
:1003C300F622C3E0C696F608A3E0C696F608A3E0B5
:1003D300C696F608A3E0C696F622E056F608A3E012
:1003E30056F608A3E056F608A3E056F622E4935621
:1003F300F60874019356F60874029356F6087403CC
:100403009356F622E056F008A3E056F008A3E05610
:10041300F008A3E056F022E647F60809E647F60897
:1004230009E647F60809E647F622E046F008A3E0A6
:1004330046F008A3E046F008A3E046F022E667F69C
:100443000809E667F60809E667F60809E667F6228B
:10045300E49366F60874019366F60874029366F6ED
:100463000874039366F622E0F608A3E0F608A3E017
:10047300F608A3E0F622E493F608740193F60874F1
:100483000293F608740393F622E6F008A3E6F00855
:10049300A3E6F008A3E6F022E0FAA3E0FBA3E0FC66
:1004A300A3E0FD22EAF0A3EBF0A3ECF0A3EDF0222E
:1004B300E0F8A3E0F9A3E0FAA3E0FB22E8F0A3E964
:1004C300F0A3EAF0A3EBF022CAC0E0E6F0A308DA57
:1004D300FAD0E0FA22CAC0E0E0A3C582CCC582C547
:1004E30083CDC583F0A3C582CCC582C583CDC58327
:1004F300DAE6D0E0CA22CAC0E0E493A3C582CCC541
:1005030082C583CDC583F0A3C582CCC582C583CD07
:10051300C583DAE5D0E0CA22C3E498F8E499F91276
:10052300055C8026C3E49AFAE49BFBE920E7E91221
:10053300055CE498F8E499F922C3E498F8E499F99E
:1005430012055CE498F8E499F9C3E49AFAE49BFB96
:1005530022EB20E7CFE920E7E0B90010BB0008E871
:100563008AF084F8AAF022E4FBC8FA22EB70227B1B
:1005730010C833C8C933C9335007C39AC3DBF280E9
:10058300069A50012ADBEAC833F4C8C933F4C9FA1E
:100593002275F008E4C833C8C933C933C99AC99B63
:1005A3005004C92AC93BD5F0ECFBC833F4C8E4C9ED
:1005B300FA22600D08C6A2E713C618C613C6D5E013
:1005C300F322600C08C6C313C618C613C6D5E0F4DD
:1005D30022700422600D18C6C333C608C633C6D5BD
:1005E300E0F41822251010AF08F510400C15118007
:1005F30008F51040021511D2AF2200C0D02510100B
:10060300AF08F510500C05118008F51050020511C4
:10061300D2AFD0D0222510F58210AF08F510400CD0
:1006230015118008F51040021511D2AF85118322F0
:100633002510F582E43511F583222510FCE43511EC
:10064300FD22E4732510C582C0E0E51134FFC583A4
:10065300C0E0E510C3958224F910AF0885831185A6
:1006630082108008858311858210D2AFCEF0A3E576
:1006730020F0A37808E608F0A3DEFAEFF0A3E58103
:1006830024FBF8E608F0A3E608F0A30808E608F060
:10069300A3E608F0A315811581D0E0FED0E0F8159C
:1006A300811581E8C0E0EEC0E022851183851082C8
:1006B300E0A3FEE0A3F5207808E0A3F608DFFAE064
:1006C300A3FFE0A3C0E0E0A3C0E0E0A3C0E0E0A399
:1006D300C0E010AF088582108583118008858210E1
:1006E300858311D2AFD083D08222C0D02510C5829A
:1006F300C0E0E51134FFC583C0E0E510C395822453
:10070300F310AF08858311858210800885831185D6
:100713008210D2AFC8F0A3E9F0A3EAF0A3EBF0A3F1
:100723007908E709F0A3D8FAECF0A3EDF0A3EEF013
:10073300A3EFF0A3D0E0F0A3D0E0F0A3D0E0F0A3C8
:10074300E520F0A3E5F0F0A322851183851082E074
:10075300C0E0A3E0F9A3E0FAA3E0FBA37808E0F686
:1007630008A3DFFAE0FCA3E0FDA3E0FEA3E0FFA300
:10077300E0C0E0A3E0C0E0A3E0F5D0A3E0F520A350
:10078300E0A3F5F010AF08858311858210800885FA
:100793008311858210D2AFD082D083D0E0F8D0E02D
:1007A300327404800A74038006740280027401C0E8
:1007B300E0F404120618D0E01204CB22740480087B
:1007C3007403800474028000CCC0E0EDC0E0E51047
:1007D300C39CCCAD1150011D10AF068C108D118040
:1007E300068C108D11D2AF1204D8D0E0FDD0E0FCFE
:1007F3002274048000CCC0E0EDC0E0E510C39CCCC3
:10080300AD1150011D10AF068C108D1180068C1098
:100813008D11D2AF1204F9D0E0FDD0E0FC22D083D9
:10082300D082CCC0E0E493A3600612084B1470FAA4
:10083300E493A3600612086A1470FAD0E0FCE49310
:10084300A3C0E0E493C0E022C0E0E493A3D39C50B0
:1008530010E493A3C39C400AD0E0D0E0D0E00208A8
:100863003EA3A3A3D0E022C0E0E493A36C7009D01D
:10087300E0D0E0D0E002083EA3A3D0E02274F81257
:100883000647E9FEEDF8ECF9E87003E96011E96069
:1008930001088A828B83EEF0A3D9FB18E870F77FF7
:1008A300010206AD74F81206477408120633E0FE1F
:1008B300A3E0F508EEFEE5087003EE602DEE60029E
:1008C3000508EAF8EBF98C828D83E088828983F04E
:1008D3008C828D83A3AC82AD8388828983A3A88213
:1008E300A983DEE21508E50870DC7F010206AD741A
:1008F300F7120647EAFEEBFFEDF8ECF508E87003A4
:10090300EC6033EC600108EEFCEFFD740912063372
:10091300E0F9A3E0FAA3E0FB1201CF8C828D83F010
:10092300E9240109E43AFAA3AC82AD831508E5088A
:1009330070E618E870E2EEFAEFFB7F020206AD7490
:10094300F8120647E5A85480FEC2AF129B02EAF8EC
:10095300EBF9ECFAEDFB9004A01204BF7A597B404B
:1009630012945B9004A41204A7EE42A87F0102062E
:10097300AD74F51206478A088B098C0A8D0B900417
:10098300A478081203C5AA08AB09AC0AAD0B1298E8
:1009930091123C208A088B098C0A8D0B9004A07855
:1009A30008120374AA08AB09AC0AAD0B7F04020654
:1009B300ADC082C083900493E0F8742328F582E4E9
:1009C3003404F583E0F8A2E5500479068025740F1A
:1009D30058F8904030E0A2E7E8500590403B800390
:1009E300904033F0122875E9F8A2E7500490418053
:1009F300F07900D083D082221237FF0209B4123873
:100A0300690209B474F512064790400FE0FEA2E2B2
:100A1300504690401CE0640F703E12094290044C13
:100A2300E060357ADE7B06129C5A9006E3E4F09090
:100A330004A41204B39006E41204BF7ADE7B06809A
:100A4300147A4D7B4012945B12984F9006C812049F
:100A5300A77ABC7B06129CB990400DE0A2E040034C
:100A6300020CF8904029E0F8C4135407FE74076E93
:100A73007002E0FE741F5814602324F17003020C0B
:100A83005C147003020C34147003020BFB14700328
:100A9300020BAF24FE7003020C83020CE8EE60B875
:100AA300E01EEEFC79B87A057B00129CD7742165B1
:100AB300136006742365137020904F30E090040197
:100AC300F0904F31E0900402F0904F32E090040335
:100AD300F0904F33E0900404F074216513600674C2
:100AE3003265137005904002E4F0904007E0C2E0E5
:100AF300F07ABC7B06129C5A9006C1E4F09006D8AB
:100B030074B8F0A37405F0E51354F864287048A38F
:100B130074B8F0A37405F0EEA3F0A3E4F0904040A2
:100B2300E0F83395E0F990042AE0FA3395E0FBE826
:100B3300C39AF8E99BF99006C6E8F0A3E9F090049C
:100B430000E07003020A447A507B40129A9D129E81
:100B53000F123BB7020A4E90043EE0F874B828F82F
:100B6300E43405F99006DAE8F0A3E9F090043EE0F6
:100B7300F8EEC398500A9006DCE4F0A3F0020A5B97
:100B8300E0F8EEC3989006DCF0A3E4F07ABC7B06B1
:100B9300129CB974326513600974336513600302E0
:100BA3000A5B7A137B07129913020A5B900400E035
:100BB3006003020CE874036E6003020CE8904029A2
:100BC300E0F9540FF9740859F42401C949F9F508F7
:100BD3003395E0F509740878081205B5E508900621
:100BE300CBF0E99006CAF0904029E09006C9F09056
:100BF3004029E09006C88084900400E07003020C52
:100C0300E874026E6003020CE8904029E09006C984
:100C1300F0904029E09006C8F0780812046AAA0808
:100C2300AB09129E0F123BB79006C81204A7020A23
:100C33005B74016E6003020CE8E0F83395E0F99011
:100C4300042AE0FA3395E0FBE8C39AF8E99BF990AC
:100C530006C6E8F0A3E9020B7F74036E6003020C7F
:100C6300E89006C5E4F0904029E09006C4F0904077
:100C730029E09006C3F0904029E09006C2020B7F62
:100C8300EE7003020A5B1209427AE87B06129C5A51
:100C93009006EDE4F0904029E0FCF83395E0F990FC
:100CA300042AE0FA3395E0FBE8C39AF8E99BF9904C
:100CB30006F2E8F0A3E9F090042CE0F8ECC398A264
:100CC300D265D0334004780180027800E89006F4BE
:100CD300F09004A41204B39006EE1204BF7AE87BEA
:100CE30006129CB91EEE7003020A5BF9904029E0DC
:100CF300D9FA020A5B7F040206AD74F51206478037
:100D030047EEC394045003020FBD7E07900491C3C2
:100D1300E09407A3E094005005900491E0FEEEF800
:100D2300900491C3E098F0A3E09400F090402974FC
:100D330062F090043BE0904029F0EEC43354E0F0BD
:100D430090043AE0904029F090402DE0FE90402C32
:100D5300E060027EFFE51424F6600C146039147021
:100D630003020F30020FC3900491E0F8A3E0F9E807
:100D730049708E75140B7411651360067413651333
:100D830070059004348003900438E0F8A3E0F990F0
:100D93000491E8F0A3E9F0900491E0F8A3E0F9E806
:100DA300496003020E77EEC3940F5003020FBD9008
:100DB300043CE060629040297441F0741CF090049C
:100DC3003DE0F50890043CE0F87408C398F89042BD
:100DD30000E0A2E7750AFF750B00E8780A501812C5
:100DE30005D4E50A5208750A80750B0090043CE0AF
:100DF300780A1205B580161205B5E50A5208750A78
:100E030001750B0090043CE0780A1205D4E50A4210
:100E130008E508904029F0904012E0540E640670F3
:100E23004D900446E06047E0FB74075B60047A047E
:100E330080027A0074072B131313541FFB74012BC6
:100E4300C43354E04401904029F090044BE04A90AD
:100E53004029F07A008012EAF8744728F582E434D6
:100E630004F583E0904029F00AEAC39B40E9751436
:100E73000C020D4BEEC394045003020FBD7EFF9092
:100E83000491C3E094F8A3E094075014900491E014
:100E9300F508A3E0F509740378081205C5E508FE13
:100EA300EE602B8E08750900740378081205D49040
:100EB3000491C3E09508F0A3E09509F090402974EC
:100EC30062F090043BE0904029F0EE020D42900462
:100ED3003AE0F508900491E0FEE4F0A3F090402995
:100EE3007441F0741CF07408C39EF8904200E0A2B1
:100EF300E7750AFF750B00E8780A50151205D4E56B
:100F03000A5208750A80750B00EE780A1205B5803F
:100F1300131205B5E50A5208750A01750B00EE7840
:100F23000A1205D4E50A4208E508020D47EEC39408
:100F33000B5003020FBD7F00900491E0F8A3E0F98A
:100F4300E84970027F0190048FC082C083900491AE
:100F5300E0F8A3E0F9D083D082E0C398F8A3E09946
:100F6300F974FD2EFEC398E4994006E8FEEFD2E142
:100F7300FFEE603790402974E1F074012EF0EFF03A
:100F8300EEFC900491E024B4F508A3E03404A9082E
:100F9300FA7B00129CF3EEF8900491E028F0A3E0B2
:100FA3003400F0EFA2E14003020D4B75140D9040A5
:100FB300097401F09040077440F09040287404F0E5
:100FC3007F040206ADC0E074F21206EDE51414705E
:100FD3000302129E14700302125A14604024FE602E
:100FE3004724FE604E24FE60551470030210A514BE
:100FF30070030210A51470030210A51470030210ED
:10100300AB14700302117B1470030211AD1470034F
:101013000211CF904006E4F0A3F00212A190400623
:10102300E4F07514040212A1904006E4F07514066E
:101033000212A1904009E4F07514080212A1904035
:101043000FE09040287403F0904006E4F0A3740886
:10105300F075140A904010E0540F6409700E90402C
:101063002974E1F07402F014F07411F0120CFD9085
:101073004002740DF01209427AF57B06129C5AE580
:101083001324EE6003147013900498E0F890045551
:10109300E06860079006FA740880049006FAE40298
:1010A3001199120CFD0212A190400FE090401CE038
:1010B30060030212A1904009E4F0E51324EE6034CA
:1010C30014603124F3601524FE600924F260471490
:1010D3006017804D9006C1E064F07008120A011297
:1010E30012A68040121354803B900457E090048F63
:1010F300F0A3E4F0120A011212A67A137B071299E5
:101103001390044D1204B39007171204BF7A137B94
:1011130007129737800E900457E090048FF0A3E4F2
:10112300F012134374306513601774316513601143
:1011330074326513600B74336513600590048EE499
:10114300F01209427AFF7B06129C5A900704E4F0DE
:1011530074126513600C74136513600674316513A0
:1011630070037402F09004A41204B39007051204F0
:10117300BF7AFF7B06021255904006E4F0A3F0907D
:101183004002740DF07514001209427AF57B0612C1
:101193009C5A9006FAE4F09004A41204B39006FB60
:1011A3001204BF7AF57B0602125590400CE0A2E0D0
:1011B300506F9040097403F0904006E4F0A374402C
:1011C300F0904002740DF0751410805590400FE0BC
:1011D300FE74035E6003120942EEA2E0501F7AFF21
:1011E3007B06129C5A900704E4F09004A41204B303
:1011F3009007051204BF7AFF7B06129CB9EEA2E1A9
:10120300501F7AF57B06129C5A9006FAE4F090047C
:10121300A41204B39006FB1204BF7AF57B06129C5A
:10122300B990400DE0F8904007E0585408606FE033
:10123300C2E3F01209427A097B07129C5A90070E07
:10124300E4F09004A41204B390070F1204BF7A09C8
:101253007B07129CB9804790400DE0A2E790400BBA
:10126300E05004D2E78002C2E7F0A3E0A2E090409E
:101273000AE05004D2E08022C2E0F0900401E09042
:101283004F30F0900402E0904F31F0900403E0906F
:101293004F32F0900404E0904F33F0120A077F01BD
:1012A30002074C74F8120647743365137004D2F0C6
:1012B3008002C2F0743265137004D2F18002C2F16D
:1012C300A2F1E433F9A2F0E433F890044CE0484986
:1012D300FE60069040097404F090042BE090422CC9
:1012E300F01238D8904232E0C2E6F09040287403FE
:1012F300F09040027409F0751401EE904007600409
:10130300744180027401F0904006E4F07F0102060C
:10131300ADC082C0839040027405F07407F01209D7
:10132300FB90402EE4F0A37480F0751409904007FD
:10133300E4F090400604F0904004E0D083D0822291
:10134300C082C083121354904002E4F0D083D08251
:1013530022C082C083904007E4F0904006F09040A2
:10136300027405F0904310E4F0751400D083D0822A
:101373002274F8120647E5A85480FEC2AF75140321
:10138300904006E0D2E0F0800B79021271D7EE4272
:10139300A8127176C2AF7404651470EDEE42A87F93
:1013A300010206AD74F71206479004A8E0904207C5
:1013B300F09004A9E0904206F09004AAE090420560
:1013C300F09004ABE0904204F09004ACE090420B48
:1013D300F09004ADE090420AF09004AEE090420930
:1013E300F09004AFE0904208F090041BE0605D9041
:1013F300043FE060577AFF7B01904011E0A2E0E4F4
:1014030033F404FE900440E0F46014E0F508750939
:1014130000740378081205D4AC08AD091299C4EA24
:101423006EF8904207E068F0129B90EA6EF89042E3
:1014330006E068F0129B90EA6EF8904205E068F0CF
:10144300129B90EA6EF8904204E068F07F02020675
:10145300ADC082C083122D3B900445E0F890420258
:10146300E028F09040247403F0900400E0600474DA
:101473001380027415904232F01213A7D083D082E6
:101483002274F51206478A088B098C0A8D0B900487
:101493009A780812039E7F040206AD74F112064780
:1014A3008A088B098C0A8D0B90049A780C12046AB3
:1014B300780C79081203B1900717780C12048C7F0B
:1014C300080206AD74F11206479006C212049B127D
:1014D30009748A0C8B0D8C0E8D0F90049A780C1264
:1014E30003C5850C08850D099006CCE508F0A3E536
:1014F30009F090046EE0FCA3E0FD90049EE0FAA3E3
:10150300E0FB12998BE9701EAA0CAB0DAC0EAD0F6C
:101513001214847405780C1205D490049EE50CF023
:10152300A3E50DF0801E90049EE02508F0A3E035AE
:1015330009F07402780C12030FAA0CAB0DAC0EADBC
:101543000F12148490046EE0FCA3E0FD90049EE06F
:10155300FAA3E0FB12995090049EEAF0A3EBF07F0C
:10156300080206AD74F712064790045A12049B1240
:10157300148490046EE0FCA3E0FD90049EE0FAA3C3
:10158300E0FB12998BE9601E90049EE0F508A3E04E
:10159300F509740578081205B5AA08E509FB339522
:1015A300E0FCFD1214847F020206AD74F5120647B7
:1015B300E5131208210710116B161213E8162021E8
:1015C300D81522233817282CD8153031A9173233D0
:1015D300A51800661690048EE06402700302166B71
:1015E3007A137B0712991390042DE0F8A3E0F9E82E
:1015F300FCE9FD900717ECF0A3EDF0A3E4F0A3F0F2
:101603007A137B071297371209427AE87B06129CFA
:101613005A9006EDE4F0904040E0FCF83395E0F991
:1016230090042AE0FA3395E0FBE8C39AF8E99BF9C2
:101633009006F2E8F0A3E9F090042CE0F8ECC398EC
:10164300A2D265D0339006F4400474018001E4F023
:101653009004A41204B39006EE1204BF7AE87B064A
:10166300129CB97F040206AD900498E06003E01475
:10167300F07A137B0712991390042CE0F890404002
:10168300E0C398A2D265D033400C900498E0702157
:10169300900431E0601B90048EE4F0900436E0F88F
:1016A300A3E0F9900491E8F0A3E9F01213140216F1
:1016B3000A900498E060030215EA12094290048E2E
:1016C300E4F01213437AF57B06129C5A9006FA74DF
:1016D30003F09004A41204B39006FB1204BF7AF53E
:1016E3007B0602166390048EE06401700302166B9E
:1016F300121343900498E070231209427AFF7B0689
:10170300129C5A9007047403F09004A41204B3903B
:1017130007051204BF7AFF7B06021663E014F090FC
:101723000436E0F8A3E0F9900491E8F0A3E9F0129D
:10173300131402166690048EE06401700302166BA4
:101743009040287403F0904002740DF0904003E041
:10175300A2E350F81209FB90400FE090402EE4F012
:10176300A37480F075140A900436E0F8A3E0F990AE
:101773000491E8F0A3E9F0904010E0540F6409707D
:101783000E90402974E1F07402F014F07411F0909B
:1017930040077408F01209427AF57B06129C5A90AE
:1017A30006FAE40216D490048EE024FC604D147013
:1017B300030218859040027405F01209FB90048E11
:1017C3007404F07A097B07129C5A90070EE4F0A385
:1017D300F0A3F0A3F0A3F07A097B07129CB97A1364
:1017E3007B0712991390049A1204B39007171204FB
:1017F300BF7A137B07129B3302166690402874034B
:10180300F0904002740DF0904003E0A2E350F89092
:10181300400FE090402EE4F0A37480F075140A901A
:101823000436E0F8A3E0F9900491E8F0A3E9F0901E
:101833004010E0540F6409700E90402974E1F07475
:1018430002F014F07411F07A137B07129913120942
:10185300429040077408F090045A12049B121484B7
:1018630090048E7405F07431651360137403F09063
:10187300045E12049B12149E7A137B07129B33029D
:10188300179B1213437403F07A137B071299139077
:10189300045E12049B12149E7A137B07129B33027D
:1018A30016FC90048EE024F960741470030219741A
:1018B30014700302199A147003021A0314700302BA
:1018C3001A24147003021AF21213437407F09004DB
:1018D3006A12049B1214847A137B071299139004DF
:1018E3009A1204B39007171204BF7A137B07129B53
:1018F300337ABC7B06129C5A7C1E7D0079007AC029
:101903007B061208809004A41204B39006C212044A
:10191300BF9006C1740AF07ABC7B060216631212EA
:10192300A67406F090046212049B1214847A137B4B
:101933000712991390049A1204B39007171204BF65
:101943007A137B07129B331209427ABC7B06129CE3
:101953005A7C1E7D0079007AC07B061208809004B1
:10196300A41204B39006C21204BF9006C174098086
:10197300A59040027405F090048E7409F07A137BED
:101983000712991390045E780812046A9007177877
:101993000812039E0217F41212A6740AF0120942E7
:1019A3007ABC7B06129C5A7C1E7D0079007AC07B30
:1019B300061208809004A41204B39006C21204BF56
:1019C3009006C1740BF07ABC7B06129CB97A137B28
:1019D30007129913900499E0F8900471E0F9E8C3B1
:1019E300994003E014F88808750900740278081216
:1019F30005D4747E2508F58274043509F583808740
:101A030090401CE07003021666F4540F70139004A8
:101A13008E740BF07A137B0712991390048A0219C0
:101A23008A121343900499E070037401F0E004F008
:101A33001209427ABC7B06129C5A7C1E7D007900F7
:101A43007AC07B061208809004A41204B39006C2E5
:101A53001204BF9006C17403F0900499E0F8900457
:101A630070E0C398404A7ABC7B06129CB912156792
:101A730090048E7408F07A137B07129913900499DB
:101A8300E0F8900471E0F9E8C3994003E014F888A2
:101A930008750900740278081205D474722508F5D4
:101AA3008274043509F58312049B12149E0217F401
:101AB3009006C17409F07ABC7B06129CB91212A677
:101AC30090048E7406F07A137B07129913900462C4
:101AD3001204B39007171204BF7A137B07129737C8
:101AE3009007171204B390049A1204BF0216667487
:101AF30008F07A137B0712991390047612049B1251
:101B0300149E7A137B07129B33021743EA2404FAC9
:101B130050010B02935F74F71206479006C1E06011
:101B23000A7AC07B0612935F021F3F90041BE0609A
:101B330055E51354F86428604D904011E0A2E0E4A9
:101B430033F404F50878081207B07508FF75090126
:101B530078081207AC9006DCC082C08390043EE094
:101B6300F8D083D082E028FCA3E03400FD9006D8AF
:101B7300E0F8A3E0F5838882A982AA837B0012950B
:101B83002E74031205FD900445E06054E51354F8E8
:101B93006428604C9006DCC082C08390043EE0F869
:101BA300D083D082E028FCA3E03400FD9006D8E087
:101BB300FAA3E0FB123C77EA4B7003021F04900484
:101BC3003EE0F8EAC398FAEB9400FB900445E0F892
:101BD300EAC398F8EB9400F99006DCE8F0A3E9F087
:101BE3009006CCE4F0A3F0A3F0A3F07412651360A5
:101BF3000C74136513600674316513704412134338
:101C03007A137B0712991374316513701690048E3F
:101C13007403F090045E12049B12149E7A137B07E4
:101C2300129B337AFF7B06129C5A900704E4F07AE6
:101C3300597B4012945BA31204A77AFF7B06129C84
:101C4300B9900440E0F4602A90043FE0F508750978
:101C53000078081207AC900440E0F89006D8E0281A
:101C6300FCA3E03400FD7AD47B061208A7740212A9
:101C730005FD900441E0F4602A90043FE0F5087507
:101C8300090078081207AC900441E0F89006D8E008
:101C930028FCA3E03400FD7AD07B061208A7740267
:101CA3001205FD74226513600F74236513600974B4
:101CB3003365136003021E50900498E4F090043ED1
:101CC300E0FA900457E0F8EA28F8E43400F99004C5
:101CD3008FE8F0A3E9F090043EE0FC7D0079007A00
:101CE300B47B04120880900456E0F46031E0F8906D
:101CF30006D8E028FAA3E034008A82F583E0FAC02C
:101D0300E074B428F582E43404F583D0E0F0900461
:101D130099E06A6003EA80059006C17408F09004B4
:101D230040E0F46034E0F874B428FAE43404FB903F
:101D3300043FE0F508750900900441E0F478086079
:101D4300091207AC7CD07D0680071207AC7CB07DFE
:101D5300041208A774021205FD900441E0F4602701
:101D630090043FE0F50875090078081207AC7CA8D9
:101D73007D04900441E0F874B428FAE43404FB12BF
:101D830008A774021205FD900444E06033900442F6
:101D9300E0F874B428F8E43404F9900444E0F4FA65
:101DA30088828983E05AF0900444E0FD900443E084
:101DB300FC90048FE0C39C5DFA88828983E04AF03B
:101DC300900445E0601790048FE0FCA3E0FD7AB433
:101DD3007B04123CE790048FEAF0A3EBF090041B22
:101DE300E06032904011E0A2E0E433F404F50878B7
:101DF300081207B07508FF75090178081207AC903F
:101E0300048FE0FCA3E0FD79B47A047B0012952EE5
:101E130074031205FD904006E4F0A3F090400274B1
:101E230005F09040287403F075140A904003E0A273
:101E3300E340F87A137B071299139004511204B309
:101E43009007171204BF7A137B071298097432653F
:101E5300136009743365136003021EFD7433651345
:101E6300600312134390048EE024F8602524FE607F
:101E73002114601E9006C212049B12097490049AE6
:101E83001204A790049EE4F0A37480F0900499E4F4
:101E930080231214C790049EE0F508A3E0F50974AB
:101EA3000578081205B59006CEE508F0A3E509F01C
:101EB3009004997401F01215677433651390048EBE
:101EC30060357408F07A137B07129913900499E034
:101ED300F508750900740278081205D47472250890
:101EE300F58274043509F58312049B12149E7A1348
:101EF3007B07129B338003740CF07AC07B0612932A
:101F03005F7421651360357422651360067423655D
:101F130013701AE5A85480F9C2AFA8149006C174CF
:101F2300F0F0E942A8E870141212A6800FE5141429
:101F33006003147007904007E0D2E0F07F020206CE
:101F4300AD7ABC7B06129C5A7ADE7B06129C5A7AC7
:101F5300E87B06129C5A7AF57B06129C5A7AFF7B21
:101F630006129C5A7A097B07129C5A7A137B070242
:101F7300991374F81206477A007B007C4090430063
:101F83007484F0E0A2E740FB1CEC70F17C209043EA
:101F9300007484F0E0A2E740FB904308E05403F9A7
:101FA300A3E0FEEA2EFAEB39FB1CEC70E17F0102A1
:101FB30006AD74F3120647E9750CFF750DFFC2E712
:101FC300FF8F087E00805FEF2EF50974C0550970FE
:101FD3002374804509904180F0121F758A0A8B0B88
:101FE300A80AA90BC3E8950CE9950D5007880C893D
:101FF3000D850908EE602EEFC39EF50974C05509DF
:10200300702374804509904180F0121F758A0A8BF2
:102013000BA80AA90BC3E8950CE9950D5007880C8A
:10202300890D8509080E74106E709CC3E50C94111C
:10203300E50D9400748050034F80024508F97F0634
:102043000206AD74F2120647750A007508FF75099A
:10205300FF7E007F00750B40804F150B7480450B8E
:10206300F50E904180F0904033E0121F75E0A80B0D
:10207300E828F8E433F974B828F582740539F58350
:10208300EAF0A3EBF0C3EE9AEF9B5004EAFEEBFFFA
:10209300C3EA9508EB950950108A088B09904033E1
:1020A300E0F454C07003850E0AE50B70ADE50AA297
:1020B300E75019C3EF94FF5013C3E5099401400C93
:1020C300EEC39508EF9509C394605004790080022C
:1020D300A90A7F070206AD74F112064774FA1205C6
:1020E300E7751300121F449006BE7419F0A3741B06
:1020F300F0A3E4F07C04FDF97AD07B061208807C1F
:10210300047D0079007AD47B061208809006E0747F
:102113000FF0A3741BF0A37401F09006EA740FF0A0
:10212300A3741BF0A37402F09006F7740FF0A3746A
:102133001BF0A37403F0900701740FF0A3741BF05A
:10214300A37404F090070B740FF0A3741BF0A37433
:1021530005F090071574AEF0A37415F0900493E4A2
:10216300F0900494F0A3F0A3F0A3F0C2AC751400B4
:102173001291EBE9600579050224A2121454123777
:10218300FF9040307409F0A314F0D2AC9040027475
:1021930005F09040107408F0904161E4F0A3F0A3BF
:1021A300F0121374851082851183E4803B79021247
:1021B30071D7E50842A8127176C2AF740665147030
:1021C300EC751400904006E4F0904033E0C0E074F6
:1021D300232EF582E43404F583D0E0F0E50842A829
:1021E300851082851183E004F090041CE0F88510CB
:1021F30082851183E0C39840030222A0E0FE8E088B
:10220300750900740278081205D4741D2508F58237
:1022130074043509F583780812046AE50890403799
:10222300F0E509904036F085080CF50D850A0E851A
:102233000B0F7410780C120329E50C904035F074E1
:10224300187808120329E508904034F0E5A8548073
:10225300F508C2AF7514059040067410F090042180
:10226300E054F0700D74212EF582E43404F583E01C
:1022730080207818851082851183E0601874222EDF
:10228300F582E43404F583E0F8A2E550027808E827
:10229300540F4410F8E8904033F00221BC90042519
:1022A300E070030224171237FF9040107408F09077
:1022B3004161E4F0A3F0A3F0904030E0D2E2F0906B
:1022C3004F35E0F8D2E7F8D2F0A2E130F001B35095
:1022D3000108E8F0904002740CF0904180E0C0E007
:1022E3007405120633D0E0F074021206337402F060
:1022F300851082851183E4802F122046E9C0E074A3
:1023030003120633E0F8A3E0F5838882D0E0F0748B
:1023130002120633E014F0E060030223D17401F0EB
:10232300851082851183E004F090041CE0F8851089
:1023330082851183E0C398400302240DE0FE7424D8
:102343002EF8E43404F97403120633E8F0A3E9F039
:102353007403120633E0F8A3E0F5838882E4F07493
:10236300232EF582E43404F583E0A2E540B2E05481
:102373000FC0E07401120633D0E0F0E0904033F078
:102383008E08750900740278081205D4741D250897
:10239300F58274043509F583780812046AE5089018
:1023A3004037F0E509904036F085080CF50D850AB5
:1023B3000E850B0F7410780C120329E50C90403531
:1023C300F074187808120329E508904034F090045B
:1023D30022E070030222FC74222EF582E43404F519
:1023E30083E0F9900421E054F0701974011206336C
:1023F300E029F974212EF582E43404F583E0540FC7
:10240300C9C399F9121FB50222FF7405120633E0FE
:10241300904180F0904002E4F01214541238699015
:102423000423E0540F904033F090041D780C120401
:102433006AE50C904037F0850D09E509904036F0C8
:10244300850C08850E0A850F0B7410780812032972
:10245300E508904035F07418780C120329E50C90C8
:102463004034F0751301851082851183E48008855B
:102473001082851183E004F090041CE0F88510823B
:10248300851183E0C3985015E0F8742328F582E49E
:102493003404F583E0A2E550D6790680027900740E
:1024A300061205FD7F080206ADE514600674026599
:1024B30014700379012279002274F8120647E9FEA9
:1024C300E5136E700302279BE51312082102181C03
:1024D3000225282D3A250300E52402EF24030225D3
:1024E30043251220DAE9F9605D0227A11294EEE98F
:1024F300600579050227A11214547514008044E580
:10250300A85480FFC2AFE51470221209427AFF7B00
:1025130006129C5A900704E4F09004A41204B390AA
:1025230007051204BF7AFF7B06129CB9121343EF0F
:1025330042A8121454800C1213431214547513013D
:10254300121343751301121F44EE700302279F9069
:10255300048EE4F0EE1208210510139125181CEBEC
:1025630025282D65263031002732333A2707019B72
:102573002702882503C626209F2521DD25229F25A6
:1025830023DD259F271294C775130202279B8E1301
:1025930090049974FFF01209FB02279B8E13900499
:1025A3009974FFF0120A011212A690042FE060271B
:1025B3007A137B0712991390042DE0F8A3E0F9E84E
:1025C300FAE9FB900717EAF0A3EBF0A3E4F0A3F01A
:1025D3007A137B0712973702279B90049974FFF0B5
:1025E3008E13120A0102279B8E137418651360065B
:1025F300741A65137005904011E4F0741965136043
:1026030006741B651370069040117404F0741A6508
:10261300136006741B65137007904200E0C2E7F075
:102623001209FB904012E4F012131475140F90403A
:1026330003E0A2E350F89040287403F090400FE0C9
:102643001209427A097B07129C5A90070EE4F09014
:1026530004A41204B390070F1204BF7A097B070284
:1026630027988E13120A01742865136006742A656D
:10267300137005904011E4F0742965136006742B00
:10268300651370069040117404F0742A6513600694
:10269300742B65137007904200E0C2E7F09040127C
:1026A300E4F09042307408F0904117E4F0742D6523
:1026B30013700D1239059040237404F0904022F0FA
:1026C3000225AA7513031209FB9040107408F090B9
:1026D3004161E4F0A3F0A3F0904165F0A3F0A304FB
:1026E300F09040237404F09040027407F075140EC8
:1026F300904007E4F090400604F002279B8E13906D
:10270300048E7403F07A137B0712991390071774DE
:1027130002F0A3E4F0A3F0A3F07A137B0712973738
:102723009007171204B390049A1204BF90045E1228
:10273300049B12148480618E13120A011212A69054
:10274300048E7406F07A137B0712991390046612B1
:1027530004B39007171204BF7A137B0712973790BD
:1027630007171204B390049A1204BF7ABC7B0612B3
:102773009C5A7C1E7D0079007AC07B0612088090EB
:1027830004A41204B39006C21204BF9006C17409D4
:10279300F07ABC7B06129CB97900800279017F0133
:1027A3000206AD74F1120647E9FA90041CE0F8EA58
:1027B300C39840057904022870EA900493F08A08CC
:1027C300750900742329F582E43404F583E0F9A242
:1027D300E550057906022870740278081205D4744E
:1027E3001D2508F58274043509F583780812046AF7
:1027F3009004947808120374E509FB85080CF50D21
:10280300850A0E850B0F7418780C120329E50CFC4E
:1028130085080C8B0D850A0EF50F7410780C1203C6
:1028230029E50CF8740F59F9904030E0A2E7E9501C
:102833001A904033F0E508904037F0EB904036F0C3
:10284300E8904035F0EC904034801890403BF0E540
:102853000890403FF0EB90403EF0E890403DF0ECB4
:1028630090403CF0904030E06480F079007F0802B3
:1028730006ADC082C083900493E0FA900425E06023
:102883001074242AF582E43404F583E0F9A2E740C6
:102893004174222AF582E43404F583E0F9A2E75077
:1028A3002C900421E054F0702974212AF582E43439
:1028B30004F583E0540FF874232AF582E43404F515
:1028C30083E0540F29C398543F448080049041808F
:1028D300E0F9D083D0822274F612064789088A0968
:1028E3008B0A78081207A87C087D007AA87B04125B
:1028F30008F274031205FD1213A77F030206AD74D9
:10290300F112064774FC1205E77401120633E9F06D
:10291300A3EAF0A3EBF0ECFEEDFF7413120633E031
:10292300F508A3E0F509A3E0F50A7416120633E0EF
:10293300F50BE513120821041013872A181C4E29DE
:102943002021402A3031642A002F2D7A2C7B40121B
:102953009A9DE50B60158E0C8F0D7402780C120591
:10296300D4E50C2403F8E4350D8006EE2403F8E4E3
:102973003FF9C3EA98EB995003022AB8EE4F70036C
:10298300022A26EEFE90402974E1F08E0C750D00AC
:10299300E50B60077402780C1205D4A80CE804F068
:1029A3007408F0E50B60677C007D00804DECC33359
:1029B300FFA908AA09AB0A1201CFFA7B008A0C8B84
:1029C3000D74012F780C1205D4E50CC420E30454D4
:1029D3000F800244F05408F98A0C8B0DEF780C1227
:1029E30005D4E50C5480494477F0E5082401F50843
:1029F300E43509F5090CEC70010DC3EC9404ED9476
:102A030000A2D265D03340A51EEE709B8015A908A5
:102A1300AA09AB0A1201CFF0E92401F508E43AF55B
:102A230009DEEB9040287404F0E5A85480F8C2AFA7
:102A3300904007E0D2E3F0E842A8022D2B90048EE9
:102A4300E07047904006E4F0A3F09040027405F074
:102A53009040287403F0904003E0A2E340F8120989
:102A6300FB900455E0900498F0900499E004F0E59D
:102A73000B601C8E0C8F0D7402780C1205D4A80CFD
:102A8300A90D800F90048EE060D77902022D31EEFC
:102A9300F8EFF990043EE0FC7D00E82CF8E439F906
:102AA30090048FE8F0A3E9F090048FC3E09405A3AA
:102AB300E0940140057904022D3179007AB47B0456
:102AC300120880E50B7003022B6C750B00022B5C64
:102AD300AC0BE5082CF9E43509FAAB0A1201CFFA7D
:102AE3007B00E50EC333851082851183F08A0C8B3E
:102AF3000DE004780C1205D4E50CC420E304540F54
:102B0300800244F05408F98A0C8B0DE0780C12050E
:102B1300D4E50C5480494477C0E08C0C8B0D7402CF
:102B2300780C1205D4E50C250EF8E50D350FF97474
:102B3300B428F582740439F583D0E0F0050EE50E70
:102B43007002050FC3E50E9404E50F9400A2D2654D
:102B5300D0335003022AD3050BC3E50B9EE49F50E9
:102B630026750E00750F0080DB78081207A8EEFCAF
:102B7300EFFD90043EE0F874B428FAE43404FB1249
:102B830008F274031205FD900456E0F460189004F3
:102B930099E0C0E0900456E0F874B428F582E43478
:102BA30004F583D0E0F0900440E0F4602474011253
:102BB30006331207C390043FE0FC7D00900440E01D
:102BC300F874B428FAE43404FB1208F2740312050F
:102BD300FD900441E0F4602790043FE0F508750997
:102BE3000078081207AC7CA87D04900441E0F874D7
:102BF300B428FAE43404FB1208A774021205FD900A
:102C03000444E06033900442E0F874B428F8E434F8
:102C130004F9900444E0F4FA88828983E05AF0903E
:102C23000444E0FD900443E0FC90048FE0C39C5D0A
:102C3300FA88828983E04AF0900445E060179004A3
:102C43008FE0FCA3E0FD7AB47B04123CE790048F91
:102C5300EAF0A3EBF090041BE06032904011E0A295
:102C6300E0E433F404F50878081207B07508FF753B
:102C7300090178081207AC90048FE0FCA3E0FD790A
:102C8300B47A047B0012952E74031205FD7430652B
:102C9300136006743165137003022D2B74116513D1
:102CA3006006741365137005900432800390043634
:102CB300E0F8A3E0F9900491E8F0A3E9F090043080
:102CC300E0605CE513120821021013D72C2023D7F0
:102CD3002C00222D121354120A0190042BE090426F
:102CE3002CF09040027409F0900430E0900498F0C6
:102CF30090048E7401F07A137B0712991390042DBC
:102D0300E0F8A3E0F9E8FCE9FD900717ECF0A3ED88
:102D1300F0A3E4F0A3F07A137B07129737800990AE
:102D2300048E7402F0121314790080027901740482
:102D33001205FD7F080206ADC082C083900AE2E05F
:102D430070030230A614700302342B14700302368E
:102D53000A24EE602814602514602224FE70030206
:102D630030A6147003022F5C14700302324C1470EB
:102D73000302342B14700302360A0237FA90401010
:102D83007404F0A314F0A37406F09040217402F0CD
:102D9300A314F0A3F09040257482F0A3F090406E4A
:102DA3007401F0904100F0A374FCF0A3747FF0A3CE
:102DB300E4F0A3747FF0A374F3F0A3E4F0A3F0A30F
:102DC300F0A37480F0A3E4F0A3F0904115F09041D8
:102DD3001774F4F090412074E9F0A37484F09041E7
:102DE3002474F9F0A37484F0A37403F0A37446F07D
:102DF300A3740AF0A3741FF0A3F0A37406F0A3E472
:102E0300F0A3F090412FF0A374E9F0A37484F0A32E
:102E1300E4F0A3F0A374F7F0A37483F0A37403F0B6
:102E2300A37446F0A3740AF0A3741FF0A3F0A37471
:102E330006F0A3E4F0A3F0A37416F0A3E4F090412A
:102E43005074FFF0A37484F0A3E4F0A3F0A374F62A
:102E5300F0A37482F0A37403F0A37446F0A3740A7E
:102E6300F0A3741FF0A3F0A37406F0A3E4F0A3F09F
:102E7300A37416F0A3E4F0904161F0A3F0A3F0A3D0
:102E83007406F0A3E4F0A3F0A37481F090416A7494
:102E93000FF0A374FFF09041807499F09041837414
:102EA30004F0904188740FF0A37477F0904200749B
:102EB30080F0A3E4F0A37488F0A374C8F0904210E8
:102EC30074FFF0A3E4F0A3F0A3F0A37407F090421F
:102ED30016F090421874FFF0A3F090421C740AF0AD
:102EE30090421EF0904220743EF0A37431F0904261
:102EF30023743EF0A37431F0A3E4F0A3747FF09045
:102F030042287403F090422A7412F090422D74CB3D
:102F1300F090422FE4F0A3740DF09042337420F04C
:102F2300904330E4F0A3F0A3F0904F0D7403F090BE
:102F33004F1004F0A3E4F0904F1C7407F0904F215E
:102F43007468F0A374FFF0A37484F0904F26749810
:102F5300F0904F3474080236039040107404F0A3C9
:102F630014F0A37406F09040217402F0A314F0A3AC
:102F7300F09040257482F0A3F090406E7401F090BD
:102F83004100E4F0A374FCF0A37466F0A3E4F0A39F
:102F93007427F0A374D4F0A3E4F0A3F0A3F0A37414
:102FA30080F0A3E4F0A3F0904115F090411774F47E
:102FB300F090412074D7F0A37484F0904124749866
:102FC300F0A374A2F0A374C3F0A37446F0A3740A2D
:102FD300F0A3741FF0A3F0A37406F0A3E4F0A3F02E
:102FE30090412FF0A374D7F0A37484F0A3E4F0A36B
:102FF300F0A37496F0A374A1F0A374C3F0A3744672
:10300300F0A3740AF0A3741FF0A3F0A37406F0A353
:10301300E4F0A3F0A37416F0A3E4F090415074FF1E
:10302300F0A37484F0A3E4F0A3F0A37495F0A37465
:10303300A0F0A374C3F0A37446F0A3740AF0A374BE
:103043001FF0A3F0A37406F0A3E4F0A3F0A3741697
:10305300F0A3E4F0904161F0A3F0A3F0A37406F0B1
:10306300A3E4F0A37404F0A37408F090416A740F0E
:10307300F0A374FFF09041807499F090418374043D
:10308300F0904188740FF0A37477F090420074803D
:10309300F0A3E4F0A37488F0A374FEF0904210044C
:1030A3000233949040107404F0A3E4F0A37464F02A
:1030B3009040187433F09040217402F0A314F0A3ED
:1030C300F09040257482F0A3F090406E7401F0906C
:1030D3004100F0A374F8F0A3747FF0A3E4F0A374A9
:1030E3007FF0A374F3F0A3E4F0A3F0A3F0A3748040
:1030F300F0A3E4F0A3F0904115F090411774F4F0BD
:1031030090412074E9F0A37484F090412474F9F0A1
:10311300A37484F0A37403F0A37446F0A3740AF0B9
:10312300A3741FF0A3F0A37406F0A3E4F0A3F0903C
:10313300412FF0A374E9F0A37484F0A3E4F0A3F0A7
:10314300A374F7F0A37483F0A37403F0A37446F09D
:10315300A3740AF0A3741FF0A3F0A37406F0A3E40E
:10316300F0A3F0A37416F0A3E4F090415074FFF0C1
:10317300A37484F0A3E4F0A3F0A374F6F0A3748221
:10318300F0A37403F0A37446F0A3740AF0A3741FAE
:10319300F0A3F0A37406F0A3E4F0A3F0A37416F075
:1031A300A3E4F0904161F0A3F0A3F0A37406F0A3AD
:1031B300E4F0A3F0A37481F090416AE4F0A374AA4D
:1031C300F09041807497F09041837404F0904188AB
:1031D300740FF0A37477F09042007481F0A314F09D
:1031E300A3E4F0A374F0F090421074FFF0A3E4F0B2
:1031F300A3F0A3F0904218747EF0A3F090421C74E5
:103203008AF090421E740AF0904220743EF0A37438
:1032130031F0904223743EF0A37431F0A3E4F0A3A1
:10322300747FF09042287403F090422A7417F09050
:10323300422D74DDF090422FE4F0A3740DF0904220
:1032430033E4F09043300235D19040107404F0A37E
:1032530014F0A37406F09040217402F0A314F0A3B9
:10326300F09040257482F0A3F090406E7401F090CA
:103273004100E4F0A374FCF0A37451F0A3E4F0A3C1
:103283007428F0A3741FF0A3E4F0A3F0A3F0A374D5
:1032930080F0A3E4F0A3F0904115F090411774F48B
:1032A300F090412074D7F0A37484F090412474A863
:1032B300F0A374A2F0A374C3F0A37446F0A3740A3A
:1032C300F0A3741FF0A3F0A37406F0A3E4F0A3F03B
:1032D30090412FF0A374D7F0A37484F0A3E4F0A378
:1032E300F0A374A6F0A374A1F0A374C3F0A374466F
:1032F300F0A3740AF0A3741FF0A3F0A37406F0A361
:10330300E4F0A3F0A37416F0A3E4F090415074FF2B
:10331300F0A37484F0A3E4F0A3F0A374A5F0A37462
:10332300A0F0A374C3F0A37446F0A3740AF0A374CB
:103333001FF0A3F0A37406F0A3E4F0A3F0A37416A4
:10334300F0A3E4F0904161F0A3F0A3F0A37406F0BE
:10335300A3E4F0A37405F0A3740BF090416A740F17
:10336300F0A374FFF09041807499F090418374044A
:10337300F0904188740FF0A37477F090420074804A
:10338300F0A3E4F0A37488F0A374C8F0904210741F
:10339300FFF0A3E4F0A3F0A3F0A37407F0904216A8
:1033A300F090421874FFF0A3F090421C740AF0905E
:1033B300421EF0904220743EF0A37431F0904223F9
:1033C300743EF0A37431F0A3E4F0A3747FF0904251
:1033D300287403F090422A7412F090422D74DDF0A9
:1033E30090422FE4F0A3740DF09042337420F090D8
:1033F3004330E4F0A3F0A3F0904F0D7403F0904F2B
:103403001004F0A3E4F0904F1C7407F0904F217464
:1034130068F0A374FFF0A37484F0904F267498F0BF
:10342300904F3474080237E99040107404F0A3E419
:10343300F0A37464F09040187433F0904021740149
:10344300F0A3F0A3F09040257482F0A3F090406EB7
:103453007401F0904100F0A374F8F0A3747FF0A31B
:10346300E4F0A37433F0A3742EF0A3E4F0A3F0A369
:10347300F0A37480F0A3E4F0A3F0904115F0904121
:103483001774F4F090412074E8F0A37484F0904131
:103493002474C8F0A374C2F0A37483F0A37446F039
:1034A300A3740AF0A3741FF0A3F0A37406F0A3E4BB
:1034B300F0A3F090412FF0A374E8F0A37484F0A379
:1034C300E4F0A3F0A374C6F0A374C1F0A37483F073
:1034D300A37446F0A3740AF0A3741FF0A3F0A374BB
:1034E30006F0A3E4F0A3F0A37416F0A3E4F0904174
:1034F3005074FFF0A37484F0A3E4F0A3F0A374C5A5
:10350300F0A374C0F0A37483F0A37446F0A3740A09
:10351300F0A3741FF0A3F0A37406F0A3E4F0A3F0E8
:10352300A37416F0A3E4F0904161F0A3F0A3F0A319
:103533007405F0A3E4F0A304F0A37443F090416A8C
:10354300740FF0A374FFF09041807497F09041835F
:103553007404F0904188740FF0A37477F0904200E4
:103563007481F0A314F0A3E4F0A374C8F0904210A4
:1035730074FFF0A3E4F0A3F0A3F0904218747EF07C
:10358300A3F090421C748AF090421E740AF0904299
:1035930020743EF0A37431F0904223743EF0A37480
:1035A30031F0A3E4F0A3747FF09042287403F09009
:1035B300422A7417F090422D74DDF090422FE4F00C
:1035C300A3740DF09042337420F0904330E4F0A3E1
:1035D300F0A3F0904F0D7403F0904F1004F0A3E4A8
:1035E300F0904F1C7407F0904F217468F0A374FFA0
:1035F300F0A37484F0904F267498F0904F3474289D
:10360300F0A374120237ED9040107404F0A3E4F0B9
:10361300A37464F09040187433F09040217402F066
:10362300A314F0A3F09040257482F0A3F090406EB1
:103633007401F0904100740BF0A374D1F0A37402F1
:10364300F0A3E4F0A37438F0A3746CF0A3E4F0A344
:10365300F0A3F0A37480F0A3E4F0A3F0904115F07D
:1036630090411774F4F09041207483F0A304F09018
:10367300412474E8F0A374E2F0A37483F0A37446C6
:10368300F0A3740AF0A3741FF0A3F0A37406F0A3CD
:10369300E4F0A3F090412FF0A37483F0A304F0A30C
:1036A300E4F0A3F0A374E6F0A374E1F0A37483F051
:1036B300A37446F0A3740AF0A3741FF0A3F0A374D9
:1036C30006F0A3E4F0A3F0A37416F0A3E4F0904192
:1036D3005074FFF0A37484F0A3E4F0A3F0A374E5A3
:1036E300F0A374E0F0A37483F0A37446F0A3740A08
:1036F300F0A3741FF0A3F0A37406F0A3E4F0A3F007
:10370300A37416F0A3E4F0904161F0A3F0A3F0A337
:103713007406F0A3E4F0A37491F0A37430F0904125
:103723006A7403F0A374D6F09041807497F09041CB
:10373300837404F0904188740FF0A37477F090427F
:10374300007481F0A314F0A3E4F0A374F0F09042AA
:103753001074AAF0A374CCF0A374AAF0A374CCF0F1
:10376300904218747EF0A3F090421C748AF0904249
:103773001E740AF0904220743EF0A37431F090421C
:1037830023743EF0A37431F0A3E4F0A3747FF090AC
:1037930042287403F090422A7417F090422D74E883
:1037A300F090422FE4F0A3740DF09042337420F0B4
:1037B300904330E4F0A3F0A3F0904F0D7403F09026
:1037C3004F1004F0A3E4F0904F1C7407F0904F21C6
:1037D3007468F0A374FFF0A37484F0904F26749878
:1037E300F0904F347428F0A37411F0904F44742573
:1037F300F0904F5F74E1F0D083D08222C082C08307
:10380300904184E4F0904F00740FF0904F187406C9
:10381300F0900AE2E0603114602E14603624EE600A
:103823001814601514601224FE601D14600B1460DC
:103833000814601414601C80289040307407F0A3AF
:103843007412F0A374208018904030740BF0A374AA
:103853001080099040307409F0A37402F0A374241B
:10386300F0D083D08222C082C083900AE2E0603627
:1038730014603314603B24EE601814601514601256
:1038830024FE602214600B14600814601914602174
:1038930080339040307407F0A304F0A37420F090B9
:1038A3004F187406801E904030740BF0A374108080
:1038B300099040307409F0A37401F0A37424F090CC
:1038C3004F187402F0904184E4F0904F00740FF0AD
:1038D300D083D08222C082C083900AE2E012082102
:1038E300030002F3381416F338181CF338000039B8
:1038F300904227E4F0904229F0904231F0D083D0F7
:103903008222C082C08390411774FFF090415CE42F
:10391300F0A3F0900AE2E0602214602D14602324E7
:10392300EE601814601514601224FE600E14601902
:10393300146008146013146009801490415074E9F2
:10394300800C90415074A5800590415074E8F0D0EC
:1039530083D08222C082C083907046E4F0D083D0AB
:103963008222538C3F2274F11206478A088B098CFA
:103973000A8D0B909E1A78081201624003023A8F57
:103983008A0C8B0D7408780C1205B5AA0C85080CEB
:103993008B0D8C0E8D0F7418780C12030FAE0C85E3
:1039A300080C8B0D8C0E8D0F7410780C12030FAC5A
:1039B3000CE50875F0A5A4F508E5F0F509E4F50AAA
:1039C300F50BEA75F030A4F50CE5F0F50DE4F50E12
:1039D300F50F7808790C120361EC75F0E8A4F50C87
:1039E300E5F0F50D7808790C120361740878081274
:1039F3000329EA75F0A5A4FAABF08A0C8B0D7808BD
:103A0300790C120361EC75F030A4F50CE5F0F50DBB
:103A13007808790C120361EE75F0E8A4F50CE5F073
:103A2300F50D7808790C120361C008C009C00AC0FB
:103A33000BEC75F0A5A4FCADF08C088D09E4F50A38
:103A4300F50BEE75F030A4F50CE5F0F50D7808797B
:103A53000C12036174087808120342D00FD00ED001
:103A63000DD00C780C7908120361EE75F0A5A4FE55
:103A7300AFF08E088F09E4F50AF50B74107808127D
:103A83000342780C7908120361023BAA78081202F8
:103A9300EE85080C85090D7408780C1205B5AA0C7F
:103AA30085080C85090D850A0E850B0F7418780C93
:103AB30012030FAE0C85080C85090D850A0E850BC4
:103AC3000F7410780C12030FAC0CE50875F0A5A465
:103AD300F508E5F0F509E4F50AF50B78081202EEAE
:103AE300EA75F030A4F50CE5F0F50DE4F50EF50FED
:103AF3007808790C1203B1EC75F0E8A4F50CE5F045
:103B0300F50D7808790C1203B17408780812030FC5
:103B1300EA75F0A5A4FAABF08A0C8B0D7808790C42
:103B23001203B1EC75F030A4F50CE5F0F50D78084F
:103B3300790C1203B1EE75F0E8A4F50CE5F0F50D80
:103B43007808790C1203B1C008C009C00AC00BEC95
:103B530075F0A5A4FCADF08C088D09E4F50AF50B0E
:103B6300EE75F030A4F50CE5F0F50D7808790C123C
:103B7300036174087808120342D00FD00ED00DD021
:103B83000C780C79081203B1EE75F0A5A4FEAFF022
:103B93008E088F09E4F50AF50B74107808120342B6
:103BA300780C79081203B1AA0CAB0DAC0EAD0F7FE4
:103BB300080206AD74F51206478A088B098C0A8D34
:103BC3000B909E1A78081201625016740878081236
:103BD30005B5E50875F081A4AAF07B00E4FCFD803F
:103BE30037C3E49508F508E49509F50974087808DE
:103BF3001205B5E50875F081A4F508E5F0F509E4CB
:103C0300F50AF50B78081202EE7408780812030F10
:103C1300AA08AB09AC0AAD0B7F040206AD74F1121E
:103C230006478A088B098C0A8D0B740678081203E1
:103C33000F85080C85090D850A0E850B0F74027814
:103C43000812030F780C79081203617403780812C1
:103C5300030F780C79081203617402780812030FBA
:103C6300780C7908120361AA0CAB0DAC0EAD0F7F73
:103C7300080206AD74F5120647ECFEEDFF900AE26A
:103C8300E0602014601D14601A24EE60481460453F
:103C930014604224FE600C14603B1460381460030B
:103CA300147038909E52C082C083909E2E1207F4E7
:103CB3008A828B83A982AA837B0012959174041252
:103CC30005FD8A088B098C0A8D0BD083D082780876
:103CD3001201497006EEFAEFFB80047A007B007F45
:103CE300040206AD74F112064774FE1205E785104F
:103CF30082851183ECF0A3EDF0EAFEEBFF900AE27C
:103D0300E0602C14602914602624EE6016146013FE
:103D130014601024FE601814600924FE60111460FE
:103D23000E806E851082851183E0FAA3E0805F9098
:103D33009E2E1207F47404120633E0FCA3E0FD8EFA
:103D4300828F83A982AA837B001295917404120542
:103D5300FD851082851183E0F8A3E0F9EE28FEEFDC
:103D630039FFEAF48E828F83F0EBF4A3F0ECF48E48
:103D7300828F83A3A3F0EDF48E828F83A3A3A3F09A
:103D8300851082851183E02404FAA3E03400FB80CC
:103D9300047A007B0074021205FD7F080206AD74ED
:103DA300F5120647900AE2E0700302409E14700386
:103DB3000243A31470030242E324EE602214601F43
:103DC30014601C24FE700302409E14601214600FE2
:103DD3001470030243A31470030242E30245E69006
:103DE30004007401F090041BE4F090041C04F07AC6
:103DF300007B0080328A088B09740278081205D48C
:103E0300AC08AD09741E2CF582749E3DF5837808C9
:103E1300120479741D2CF58274043DF5837808121D
:103E2300048C0AEA70010BC3EA9401EB9400A2D25A
:103E330065D03340C078007900802074B128F582C2
:103E4300749E39F583E493C0E0742128F5827404E9
:103E530039F583D0E0F008E8700109C3E89401E97B
:103E63009400A2D265D03340D278007900802074C8
:103E7300B028F582749E39F583E493C0E074222858
:103E8300F582740439F583D0E0F008E8700109C3C2
:103E9300E89401E99400A2D265D03340D29004257E
:103EA300E4F09004267441F0A3E4F0A3F0A3F090AF
:103EB300042A7440F090042B743AF090042C74CBD1
:103EC300F090042D7407F0A3E4F090042FF0900415
:103ED30030F0900431F0900432F0A3F09004347485
:103EE30060F0A3E4F0900436F0A3F0900438F0A35C
:103EF300F090043A74FFF090043B7418F090043C83
:103F0300E4F090043DF090043EF090043FF0900400
:103F130040F090044174FFF0900442E4F0900443B5
:103F23007488F0900444E4F0900445F090044674DF
:103F330008F0780079008020749E28F582749E39F9
:103F4300F583E493C0E0744728F582740439F5835C
:103F5300D0E0F008E8700109C3E89404E99400A2F2
:103F6300D265D03340D290044B7418F090044CE4E3
:103F7300F090044D7455F0A3E4F0A3F0A3F0900483
:103F8300517439F0A37401F0A3E4F0A3F090045545
:103F93007402F090045674FFF0900457E4F0900418
:103FA300587480F0A3E4F090045AF0A3F0A37405CE
:103FB300F0A3E4F090045E7431F0A3E4F0A3F0A363
:103FC300F0900462F0A3F0A3740FF0A3E4F0900464
:103FD30066F0A3F0A3745AF0A3E4F090046AF0A38C
:103FE300F0A3742CF0A37401F090046E74A3F0A3F7
:103FF3007416F0900470740BF09004717403F07AEB
:10400300007B0080328A088B09740278081205D479
:10401300AC08AD0974BF2CF582749D3DF583780817
:1040230012047974722CF58274043DF583780812B6
:10403300048C0AEA70010BC3EA9403EB9400A2D246
:1040430065D03340C07A007B0080328A088B0974C4
:104053000278081205D4AC08AD0974EF2CF582740C
:104063009D3DF5837808120479747E2CF5827404DF
:104073003DF583780812048C0AEA70010BC3EA94B5
:1040830003EB9400A2D265D03340C090048A745DE0
:10409300F0A3745FF0A374010245E290040074017D
:1040A300F090041BE4F090041C04F090041D74775A
:1040B300F0A37462F0A37427F0A37411F0900421A9
:1040C3007409F09004227497F0900425E4F09004AE
:1040D300267420F0A3E4F0A3F0A3F090042A744024
:1040E300F090042B743AF090042C74DDF090042DBE
:1040F3007480F0A37402F090042FE4F0900430F085
:10410300900431F090043204F0A3E4F0900434748A
:1041130060F0A3E4F090043604F0A3E4F0900438D4
:104123007448F0A3E4F090043A747EF090043B7476
:1041330038F090043CE4F090043DF090043E7404A5
:10414300F090043F14F09004407401F09004417423
:10415300FFF0900442E4F0900443F090044474FFB1
:10416300F0900445E4F09004467408F07800790078
:104173008020746A28F582749E39F583E493C0E045
:10418300744728F582740439F583D0E0F008E870A9
:104193000109C3E89404E99400A2D265D03340D264
:1041A30090044B7418F090044CE4F090044D740F99
:1041B300F0A3740DF0A3E4F0A3F09004517439F06C
:1041C300A37401F0A3E4F0A3F09004557402F090FB
:1041D300045674FFF09004577401F09004587480EF
:1041E300F0A3E4F090045A746DF0A37467F0A37421
:1041F30003F0A3E4F090045E7431F0A3E4F0A3F0C1
:10420300A3F09004627446F0A37436F0A3740AF02A
:10421300A3E4F0900466F0A3F0A3745AF0A3E4F0CF
:1042230090046AF0A3F0A3742CF0A37401F090043B
:104233006E7468F0A37411F0900470740BF0900422
:10424300717403F07A007B0080328A088B09740250
:1042530078081205D4AC08AD0974E32CF582749D7B
:104263003DF583780812047974722CF58274043D49
:10427300F583780812048C0AEA70010BC3EA9403ED
:10428300EB9400A2D265D03340C07A007B00803229
:104293008A088B09740278081205D4AC08AD097436
:1042A3009B2CF582749D3DF5837808120479747E06
:1042B3002CF58274043DF583780812048C0AEA70A5
:1042C300010BC3EA9403EB9400A2D265D03340C040
:1042D30090048A745DF0A3744FF0A374020245E264
:1042E300780079008020741628F582749E39F5834E
:1042F300E493C0E0744728F582740439F583D0E071
:10430300F008E8700109C3E89404E99400A2D265B7
:10431300D03340D27A007B0080328A088B09740242
:1043230078081205D4AC08AD0974D72CF582749DB6
:104333003DF583780812047974722CF58274043D78
:10434300F583780812048C0AEA70010BC3EA94031C
:10435300EB9400A2D265D03340C07A007B00803258
:104363008A088B09740278081205D4AC08AD097465
:10437300CB2CF582749D3DF5837808120479747E05
:104383002CF58274043DF583780812048C0AEA70D4
:10439300010BC3EA9403EB9400A2D265D03340C06F
:1043A3009004007401F090041BE4F090041C04F0EA
:1043B30090041D7477F0A37462F0A37427F0A374C0
:1043C30011F09004217409F09004227497F0900482
:1043D30025E4F09004267451F0A3E4F0A3F0A3F0D5
:1043E30090042A7440F090042B743AF090042C74D7
:1043F300DDF090042D7407F0A3E4F090042FF09007
:104403000430F0900431F090043204F0A3E4F0900F
:1044130004347488F0A3E4F090043604F0A3E4F0C9
:104423009004387448F0A3E4F090043A747EF0905A
:10443300043B7438F090043CE4F090043DF09004A5
:104443003E7404F090043F14F09004407401F09023
:10445300044174FFF0900442E4F0900443F09004AC
:104463004474FFF0900445E4F09004467408F07837
:104473000079008020744E28F582749E39F583E418
:1044830093C0E0744728F582740439F583D0E0F0D3
:1044930008E8700109C3E89404E99400A2D265D046
:1044A3003340D290044B7418F090044CE4F0900421
:1044B3004D743BF0A37405F0A3E4F0A3F090045112
:1044C3007439F0A37401F0A3E4F0A3F090045574DD
:1044D30002F090045674FFF09004577401F09004B6
:1044E300587480F0A3E4F090045AF0A37480F0A30E
:1044F30074D7F0A37403F090045E7431F0A3E4F076
:10450300A3F0A3F0900462F0A37480F0A37486F088
:10451300A3740BF0900466E4F0A3F0A3745AF0A321
:10452300E4F090046AF0A3F0A3742CF0A37401F0F8
:1045330090046E74FCF0A3749CF0900470740BF000
:104543009004717403F07A007B0080328A088B092F
:10455300740278081205D4AC08AD0974FB2CF582FB
:10456300749D3DF583780812047974722CF5827476
:10457300043DF583780812048C0AEA70010BC3EA40
:104583009403EB9400A2D265D03340C07A007B0041
:1045930080328A088B09740278081205D4AC08ADFE
:1045A30009748F2CF582749D3DF583780812047984
:1045B300747E2CF58274043DF583780812048C0A0A
:1045C300EA70010BC3EA9403EB9400A2D265D033E3
:1045D30040C090048A7438F0A37409F0A37403F004
:1045E300A3E4F07F040206AD028C4802902274F12A
:1045F30012064774F91205E77404120633E9F0A3AF
:10460300EAF0A3EBF0EC851082851183F0740112BC
:104613000633E4F0851082851183E0C0E074031251
:104623000633D0E0F0750800900B2AE0F88510827D
:10463300851183E0F9E8C399501A7401120633E037
:104643007004D2F08002C2F0A2F0E43333F508E83C
:1046530095088001E0C0E07402120633D0E0F0E078
:104663002508F91254688A0A8B0BAE0AAF0BEE4F7A
:104673007005790402481F7401120633E06004D206
:10468300008002C2007402120633E0F50A750B00C3
:10469300780A1207AC7403120633E0FA900B2AE08F
:1046A300F50AEA850AF0A4FAA200E43325E0F8EA61
:1046B30098FCE5F09400FD7406120633E0F9A3E0DC
:1046C300FAE92CF9EA3D890AAC0AFDA808EE28F8B4
:1046D300E43FF9E82406FAE439FB1208A77402124E
:1046E30005FD8E828F837402F0900B27E08E828FFC
:1046F30083A3F0900AE7780812046AE508541FFCC4
:10470300909E927808120479900AE7780812039E23
:10471300EE2405F8E43FF9E8FAE9FB8A828B83E0AB
:1047230054E0F0E04CF0851082851183E0F87402C8
:10473300120633E0C39850378A828B83E0D2E5F0C8
:104743007401120633E070278A828B83E0D2E7F08C
:104753008E828F83A3A3A3A3A3A37405F074031270
:104763000633E08E828F83A3A3A3A3A3A3A3F07432
:1047730002120633E0F8851082851183E0C398F0B6
:104783007401120633E004F0900B27E0607D85107E
:1047930082851183E070467401120633E064017070
:1047A3003C900AE7780C12046A900B28E0F508E4C1
:1047B300F509F50AF50B780C790812027FE508452F
:1047C30009450A450B700F8A828B83E0D2E6F0908D
:1047D3000B1AE0048028900B1AE004802D851082C8
:1047E300851183E070258A828B83E0D2E6F0E0D2E4
:1047F300E5F0900B1AE0F87401120633E0288E827C
:104803008F83A3A3A3F0900B1AE4F0851082851184
:1048130083E0600302462812538F79007407120560
:10482300FD7F080206AD74F112064774F91205E71D
:1048330080457403120633E0F508A3E0F509750A11
:10484300007401120633E0FCA908AA09AB0A12722C
:10485300F1E0FCA3E0FDA908AA09AB0A900B18E05C
:10486300F8A3E0F58388821206457403120633E049
:10487300FAA3E0FB1245EE740112063DAA10AB1138
:104883001258138A088B09AE08AF09EE4F700A74E9
:10489300071205FD7F080206AD7401120633E0FA24
:1048A300A3E0FB1245EB7403120633EAF0A3EBF02B
:1048B3007403120633E0F8A3E0F9E84960D18E826D
:1048C3008F83A3A3A3A3A3E0541FF50E74011206C1
:1048D30033E0F508A3E0F5097401120633E0900B09
:1048E3001FF0750B008005740AF0050B8510828597
:1048F3001183E0650B70030248357C00E50B700DF6
:10490300E0C394024007750A067C028020900B2ABC
:10491300E0F8FA7B00C3E5089AE5099400400488AF
:104923000A800AA808A90912055CEAF50AE50B60E2
:1049330004D2F08002C2F0FAE50E2A541F25E0F8F3
:1049430074E828F8E4340BF97405120633E8F0A38D
:10495300E9F0AE0A8E0C750D00780C1207AC7407E3
:10496300120633E0F8A3E0F5838882E02CF8A3E095
:1049730034008882F583A3A3A3A3A3A3AC82AD834E
:10498300A2F0E43325E0F8E498F895E0F9900B2AD7
:10499300E0F50CEA850CF0A4FA85F00FAB0F740573
:1049A300120633E02AFAA3E03BFBEA28FAEB39FBD1
:1049B3001208A774021205FDC3E5089EF508E50970
:1049C3009400F5097405120633E0F8A3E0F5838833
:1049D30082E0F8A3E0F988828983A3A3A3A3A3E0D9
:1049E300A2E68882898340030248EA74140248ECF1
:1049F30074F112064774FD1205E7EAFEEBFF900B14
:104A030022EEF0A3EFF0909E927808120479900AB8
:104A1300EB780812039E9004107405F08E828F8346
:104A2300A3A3A3A3A3A3E0F8A3E0F990040CE0FAE3
:104A3300A3E0FBC3E89AE99BA2D265D03350087484
:104A430002120633E4801190040CE0FAE8C39AC022
:104A5300E07402120633D0E0F0900AF3E075F0033D
:104A6300A4F8A9F07402120633E0FAE82AF508E480
:104A730039F509740278081205C5E508900AF3F0C0
:104A8300EE241AF50AE43FF50B900B24E06403854A
:104A93000A82850B837033E0F508A3E0F509750AF4
:104AA3000078081207A8EE241CF582E43FF583E0A2
:104AB30024FCFA791012733B74031205FD12658B03
:104AC30074031205FD7F080206ADE0F8A3E0F98543
:104AD3001082851183E8F0A3E9F0851082851183A4
:104AE300E0F8A3E0F9900B20E8F0A3E9F07A107B5B
:104AF3000B129A6A90040AE0F8A3E0F5838882E037
:104B030064137014900AFFE0C0E090040AE0F8A375
:104B1300E0F5838882D0E0F0851082851183E0F888
:104B2300A3E0F5838882E0A2E74003024D4A8510A3
:104B330082851183E0F8A3E0F5838882A3E0601CFB
:104B430024FD7003024C40147003024C761470036E
:104B5300024D4A147003024C7C024D2C750C0075F7
:104B63000D00750E00750F007E0190040AE0F8A396
:104B7300E0F5838882E0640F6003024D2C85108288
:104B8300851183E0F8A3E0F5838882E0541FF89051
:104B9300040AE0F9A3E0F5838982A3A3A3A3A3E016
:104BA300541F686003024D2C7A087B0B129A6A909B
:104BB300040AE0F8A3E0F58388827407F0900AF40E
:104BC300E075F003A4F8A9F0851082851183E0FA5B
:104BD300A3E0CA2406F582E43AF583E0FAE82AF56D
:104BE30008E439F509740278081205C5E508900A46
:104BF300F4F07408780C120342EEF88510828511E4
:104C030083E028FAA3E034008A82F583A3E0F50861
:104C1300E4F509F50AF50B780C79081203610EEE39
:104C2300C3940540CD780C1207A490040AE0FAA3BC
:104C3300E0FB125A4F74041205FD024D2C90040A36
:104C4300E0F8A3E0F5838882E0640F6003024D2C53
:104C53007A087B0B129A6A90040AE0F8A3E0F583C2
:104C630088827407F0900AF5E02401F0A3E0340091
:104C7300024D2B1259BC024D2C851082851183E005
:104C83002402F508A3E03400F509AA08FB126A011F
:104C93004003024D2C79081254688A0A8B0BAE0A22
:104CA300AF0BEE4F7003024D2C8E828F83A3A3A311
:104CB300A3A3A37406F0750A07750B00780A1207FD
:104CC300ACAC08AD09EE2407FAE43FFB1208A77465
:104CD300021205FD851082851183E0F8A3E0F583B8
:104CE3008882E0541FFAEE2405F8E43FF9888289AC
:104CF30083E054E0F0E04AF0E0D2E7F08E828F8365
:104D0300A3AA82AB83900B62E08A828B83600C74CC
:104D130001F088828983E0D2E68001E4F0E4900B1D
:104D230062F08E828F837412F0851082851183E086
:104D3300F8A3E0F5838882E0A2E64003024ED5792A
:104D430008125468024ED5EE241CFE50010F8E82C9
:104D53008F83E024FCF9851082851183E0FAA3E0B8
:104D6300FB1257BA405F8E828F83E024FBFA8510D3
:104D730082851183E0F8A3E0F5838882E0F9125578
:104D8300478A088B09EA45097003024AC38E828F5A
:104D930083E024FCF50CA3E034FFF50D780C120737
:104DA300AC850A82850B83E0FCA3E0FDEA2405FAC7
:104DB300E43509FB1208A774021205FD85088285F4
:104DC30009837406F0851082851183E0F8A3E0F56A
:104DD300838882E0A2E64003024ED5790812546824
:104DE3008A088B09AE08AF09EE4F7003024ED51245
:104DF30057318E828F83A3A3A3A3A3A3E4F08E8250
:104E03008F83A3A3A3A3A3A3A3EDF08E828F83A376
:104E1300A3A3A3A3A3A3A3ECF08E828F83A3A3A333
:104E2300A3A3A3A3A3A3EBF08E828F83A3A3A3A324
:104E3300A3A3A3A3A3A3EAF07402120633E0C0E082
:104E4300EE240BF582E43FF583D0E0F090040CE010
:104E53002496C0E0EE240CF582E43FF583D0E0F025
:104E6300900B41E0543FF9900B66E0F8900B67E03C
:104E73002829C0E0EE240DF582E43FF583D0E0F06D
:104E8300EE2405F8E43FF9E8FAE9FB900AEF780825
:104E930012046AE508541FF88A828B83E054E048C1
:104EA300F0E0D2E7F08E828F83A3A882A983900BD0
:104EB30027E0640288828983700C7401F08A828BF4
:104EC30083E0D2E68001E4F08E828F837412F012C5
:104ED300538F12482990040AE0F8A3E0F5838882EF
:104EE300E0F8851082851183E0F9A3E0F5838982D8
:104EF300E0546064207046E8900AFFF090040AE0F2
:104F0300F8A3E0F58388827413F0900B26E0F5088C
:104F1300750900740278081205D474B32508F58264
:104F2300749D3509F5831207F479017C4D7D537A1D
:104F3300107B0B128E3774041205FD8019741368ED
:104F43007014900AFFE0C0E090040AE0F8A3E0F5D3
:104F5300838882D0E0F0851082851183E0F8A3E096
:104F6300F5838882E0A2E6400312668D1256068B13
:104F730009EA45097003024AC012538F024AC374F7
:104F8300F112064774FE1205E7851082851183EA44
:104F9300F0A3EBF0900C7FE0600302513C90040A15
:104FA300E0F8A3E0F5838882E024F3700302513C28
:104FB30024FE700302513C24FC700302513C125640
:104FC300068A088B09AE08AF09EE4F70030251340D
:104FD3008E828F83A3E070030250D08E828F83A3CF
:104FE300A3A3A3A3E0A2E640030250D0900B24E0C6
:104FF300640370030250D0E0146006146032025060
:10500300D78E828F83740DF0900B25E0F508750918
:1050130000740278081205D474E62508F582749B9F
:105023003509F5831207F479017C237D520250C2BE
:105033008E828F83740FF0129BE98A0C8B0D900B79
:1050430026E0F508750900740278081205D4AA0849
:10505300AB09900B25E0F508750900740278081276
:1050630005D474E62508F582749B3509F583780821
:1050730012047974B32AF582749D3BF58378081280
:105083000387C008C009C00AC00BE4F50EF50F740E
:10509300A72AF582749D3BF5837808120479780C6E
:1050A300790812027FD00FD00ED00DD00C780C7976
:1050B30008120361780C1207A479017C6B7D527A84
:1050C300087B0B128E3774041205FD80078E828FC6
:1050D300837405F090040AEEF0A3EFF08E828F83C1
:1050E300A3A3A3A3A3E0A2E750171256068B09EAD2
:1050F3004509600D8E828F83A3A3A3A3A3E0D2E50A
:10510300F08E828F83A982AA837B00126449A3A3B2
:10511300A3A3A3E0A2E6400F1256068B09EA4509B2
:10512300600512538F8012900B1BE4F012668D8082
:1051330005900B1BE4F012658B900C84E064016016
:10514300030251FB900B1EE0C3940A407E900B1C9C
:10515300E0F8A3E0F9900B1EE0FA7B0012055488F7
:10516300088909AA08AB09900B1CE4F0A3F0900B83
:105173001EF090040EE0F8A3E0F9C3EA98EB99A2BD
:10518300D265D033500890040EEAF0A3EBF09004FC
:1051930010E014F0E0706190040EE0646A7003A301
:1051A300E0F4700990040CEAF0A3EB800F90040E76
:1051B300E0F8A3E0F990040CE8F0A3E9F090040E02
:1051C300E4F0A3F09004107405802C904040E0F8C4
:1051D3003395E0F9900B1CE028F0A3E039F090043C
:1051E3002AE0F83395E0F9900B1CC3E098F0A3E0B4
:1051F30099F0900B1EE004F0909E5E1207F4790183
:105203007C007D007404120633E0FAA3E0FB128EE7
:105213003774041205FD74021205FD7F080206AD02
:1052230074F712064790040AE0F8A3E0F583888236
:10523300740EF0900B26E0F50875090074027808E7
:105243001205D474B32508F582749D3509F58312CC
:1052530007F479017C6B7D52128E3774041205FDBD
:1052630012658B7F020206AD74F7120647900C7F1E
:10527300E06030900B26E0F50875090074027808A9
:105283001205D474B32508F582749D3509F583128C
:1052930007F479017C6B7D52128E3774041205FD7D
:1052A3000253487A087B0B129A6A90040AE0F8A327
:1052B300E0F5838882E0640F6003025348900AF7A5
:1052C300E02401F0A3E03400F0790112689E900419
:1052D3000AE0F8A3E0F5838882A3A3E004F0900436
:1052E3000AE0F8A3E0F5838882A3A3E0F8900B29F2
:1052F300E0C39890040AE0F8A3E0F5838882503F66
:105303007408F090040AE0F8A3E0F5838882A3A36D
:10531300A3A3A3E0A2E7501A90040AE0F8A3E0C80D
:105323002406F582E438F583E064067005126C61A7
:105333008008126C86C2F01268E112658B800674D5
:1053430003F012538F7F020206AD74F71206477AF9
:10535300107B0B129A6A90040AE0F8A3E0F58388A5
:1053630082E064137014900AFFE0C0E090040AE046
:10537300F8A3E0F5838882D0E0F01256068B09EAA1
:105383004509600312538F7F020206ADC082C083BA
:10539300909E661207F479017C827D4F7A007B0B25
:1053A300128E3774041205FDD083D0822274F71253
:1053B30006471256068B09EA4509600E900B1B74CB
:1053C30001F08003127176E070FA7F020206AD7479
:1053D300F8120647EAFEEBFF126C867A008016EAA3
:1053E30025E0F8E433F9746828F582740B39F58302
:1053F300E4F0A3F00AEAC3944040E47A008016EA9A
:1054030025E0F8E433F974E828F582740B39F58361
:10541300E4F0A3F00AEAC3942040E4900B18EEF002
:10542300A3EFF0909E8E1207F4900B41E0FB900BDC
:105433003FE0FA900B25E0F912800674041205FD93
:1054430012658B79157A047B0012810CC2F01284E9
:1054530032C2F01268E179001259EB12538F7900CE
:105463007F010206AD74F51206478908900C28E007
:10547300543FF825E0F8746828FEE4340BFF8E826D
:105483008F83E0F8A3E0F988828983E5824583600E
:105493001BE024FE603714603424F6603024FE6081
:1054A3002C24FD6028AA82AB831245EEE50824066E
:1054B300FAE43400FB1245EB8A0A8B0BA80AA90B0A
:1054C3008E828F83E8F0A3E9F0E84970067A007BC7
:1054D30000806C888289837401F08E828F83E0F868
:1054E300A3E0F5838882A3A3A3A3E508F08E828FAC
:1054F30083E0F8A3E0F5838882A3E4F08E828F83B0
:10550300E0F8A3E0F5838882A3A3E4F08E828F837F
:10551300E0F8A3E0F5838882A3A3A3E4F08E828F4F
:1055230083E0F8A3E0F5838882A3A3A3A3A3E4F015
:10553300900C28E004F08E828F83E0FAA3E0FB7FD7
:10554300040206AD74F3120647890B8A0A741F55C9
:105553000BFE90040AE0F8A3E0F5838882E024FEC2
:10556300600B14600824F6600424FE700A90040A99
:1055730074F9F0A3740AF0EE2EF874E828F508E441
:10558300340BF509850882F583E0FAA3E0FBEA4BC7
:1055930060031245EEE50A2406FAE43400FB1245E3
:1055A300EB850882850983EAF0A3EBF0EA4B7006EA
:1055B3007A007B008048EE900AEFF0A3E4F0A3F0BA
:1055C300A3F08A828B8304F0850882850983E0F83F
:1055D300A3E0F5838882A3A3A3A3E50AF085088249
:1055E300850983E0F8A3E0F5838882A3A3A3A3A39B
:1055F300E50BF0850882850983E0FAA3E0FB7F06CB
:105603000206AD74F8120647900C28E024C0FAFC99
:1056130080010C900C28E06C602F743F5CF825E04F
:10562300F8746828F582E4340BF583E0F8A3E0F915
:1056330088828983E582458360D8E024FD60042461
:10564300F170CFAA82AB838066EAFD80010D900CD6
:1056530028E06D6056743F5DF825E0F8746828F81B
:10566300E4340BF9E8FAE9FB8A828B83E0F8A3E0E0
:10567300F9E84960D888828983E024FE60221460B7
:105683001F24F6600424FE70C490040AE0FEA3E025
:10569300FFE86E7002E96F60B4888289837403F057
:1056A3008A828B83E0FAA3E0FB80047A007B007F8D
:1056B300010206AD74F8120647E9FD900C28E0FCE0
:1056C30080011C900C28E024C06C6059743F5CF886
:1056D30025E0F8746828F582E4340BF583E0FAA337
:1056E300E0FBEA4B60DCEA2405F8E43BF9888289B5
:1056F30083E0A2E7500F8A828B83A3A3A3A3A3A370
:10570300E0640570BD8A828B83E024FB600B24FE7A
:10571300600714600424F970A988828983E0541F08
:105723006D709F80047A007B007F010206AD74F1E7
:1057330012064774FC1205E7851082851183E4F095
:10574300A3F0A3F0A3F0750801F509F50AF50B9092
:105753000AEF780C12046AE50C14541FF9803AE935
:10576300541F28FA74E82AF582E4340BF583E0FA2F
:10577300A3E0FB8A828B83E58245836014E024FAED
:10578300600424FC700B8510828511837808120451
:105793002D1974017808120342741F59F8E50C544B
:1057A3001F6870BB85108285118312049B740412D9
:1057B30005FD7F080206AD74F5120647E9FE900A5F
:1057C300EF780812046AE508541F25E0F874E82806
:1057D300F582E4340BF583E02405F8A3E03400F903
:1057E300E8FCE9FD7F0080010FEE6F601DEFF8EC30
:1057F30028F582E43DF583E0F508EA28F582E43BE9
:10580300F583E0650860E1C38001D37F040206AD40
:1058130074F1120647900AEF780812046A909E9278
:105823008003909E927808120387900AEF780C12F7
:10583300046A909EA2780C1203877808790C1201EF
:105843008C50030259B38A828B83E4F08C828D835C
:10585300F0A3F07E00802688828983A3A3A3A3A359
:10586300A3A3E0FE88828983A3A3A3A3E024FEF875
:10587300E434FFF98C828D83E8F0A3E9F08A828B0C
:1058830083E0FF85080CE50C2F541F25E0F874E82E
:1058930028F582E4340BF583E0F8A3E0F9E84970D6
:1058A3000302596A88828983E06406600302596AA5
:1058B300E82405F50CE439F50DEF70408A828B83FB
:1058C3007401F0850C82850D83E054A064A07012EE
:1058D30088828983A3A3A3A3A3A3E064057003021F
:1058E300585A850C82850D83E0A2E5407A88828927
:1058F30083A3A3A3A3E08C828D838060A3A3A3A32C
:10590300E0F50E8C828D83E0250EF0A3E03400F0E9
:105913008A828B83E004F0850C82850D83E0A2E507
:10592300501D8C828D838E0EC3E0950EA3E09400F0
:10593300500D8A828B83E0C3941F500302588085E5
:105943000C82850D83E0A2E5501D8C828D83C3E01C
:105953009EA3E0940040108C828D83EEF0A3E4F0CC
:10596300888289837409F08A828B83E0F87003024A
:10597300582585080CE50C2814541F25E0F874E815
:1059830028F582E4340BF583E0F8A3E0F5838882FD
:10599300E064096003025825E508541F25E0F87404
:1059A300E828F582E4340BF583E0FAA3E0FB8004F6
:1059B3007A007B007F080206ADC082C0837A008034
:1059C3001DEA25E0F8E433F974E828F582740B390D
:1059D300F583E0F8A3E0F58388827414F00A742059
:1059E3006A70DED083D0822274F7120647E9FE790B
:1059F30008125468EA4B604F8A828B83A3A3A3A344
:105A0300A3A37404F07C018013ECF8EA28F582E484
:105A13003BF583A3A3A3A3A3A3E4F00C74086C70C6
:105A2300E8EA2405F582E43BF583E054E0F0741FD3
:105A33005EF8E048F0E0D2E7F08A828B83A3E4F0DB
:105A43008A828B837412F07F020206AD74F1120610
:105A53004774FD1205E7851082851183EAF0A3EBF5
:105A6300F0851082851183E0F8A3E0F5838882A393
:105A7300A3A3A3A3E0541FC0E07402120633D0E033
:105A8300F07412120633780812046A78081202FFBF
:105A93007401780812034274121206337808120450
:105AA3008C74121206331204B3900C291204BF90A3
:105AB3000C2DE4F0A3F0A3F0A3F0851082851183ED
:105AC300E0F8A3E0F5838882A3A3A3E0543F14F98D
:105AD300801A750801750900750A00750B007808AE
:105AE300120342900C2D780812042D19E970E390EB
:105AF3000C2D780812046A74121206337808120403
:105B030007750C01750D00750E00750F00909E4A08
:105B130078081204797412120633780812019C4033
