:020000040000FA
:030000000200D12A
:03000B000281D19E
:03001B0002A40B31
:03002300020FCCFD
:03005B0002A4B349
:100063000295FC00000080FB1200E0B900030200CF
:10007300CBE47913780CB800028004F709D8FCE4C8
:1000830090041D787579098002F0A3D8FCD9FA7819
:100093001290012F7A01BA00028007E493A3F608B5
:1000A300DAF97A007B04900130781E79018015E437
:1000B30093A3AD82AE838A828B83F0A3AA82AB83A0
:1000C3008D828E83D8E9D9E712A45F12006675D0BA
:1000D3000075817E75100075110402006BC082C02B
:1000E30083907054748AF0790912AF39793812AF5A
:1000F300529070607409F0E587A2E64004D2F08064
:1001030002C2F0A2F0E433F5129070077418F012F3
:10011300393075860075A84075980075A0009070F9
:100123000C7401F0E512F9D083D0822201013FF073
:100133003FF001F60A6AFF6AFF02543909001417F7
:100143001D00010203016F6F6F6FE4936670130864
:1001530074019366700C0874029366700508740347
:10016300936622C008C3E49396F508087401939636
:10017300420808740293964208087403939642084F
:10018300A2D265D033E5087001D3D00822C3E79625
:100193000809E7960809E7960809E79622C3E09657
:1001A30008A3E09608A3E09608A3E09622C008C33C
:1001B300E49396F508087401939642080874029331
:1001C300964208087403939645087001D3D0082219
:1001D300BB0102E722C082C08389828A83BB0003FA
:1001E300E08002E493D083D08222BB000EC082C0A1
:1001F300838A838982F0D083D08222BB0101F722D4
:10020300080808EAC0E0EBC0E086F0E7A4FA1809A2
:1002130086F0E7A42AFA180986F0E7A42AFA18094F
:1002230086F0E7A42AFA1986F0E7A4FBE5F02AFA98
:10023300190886F0E7A42BFBE5F03AFA190886F0D3
:10024300E7A42BFBE5F03AFA18180986F0E7A4C5F2
:10025300F02BFBE43AFA1908E7C5F0C6A426F6E545
:10026300F03BFBE43AFA1886F0E7A4F6E5F008263B
:10027300F6E43B08F6E43A08F6D0E0FBD0E0FA22D5
:10028300E4CFC0E0E4CEC0E0E4CDC0E0E4CCC0E025
:1002930075F020E626F608E633F608E633F608E6B8
:1002A30033F6181818EC33FCED33FDEE33FEEF3361
:1002B300FFC3EC9709ED9709EE9709EF9719191901
:1002C300400FFFEC97FC09ED97FD09EE97FE191916
:1002D30006D5F0BFECF709EDF709EEF709EFF719CB
:1002E3001919D0E0FCD0E0FDD0E0FED0E0FF22E41D
:1002F300C396F608E496F608E496F608E496F62222
:10030300C6F4C608C6F4C608C6F4C608C6F4C622B0
:100313006017080808C6A2E713C618C613C618C68E
:1003230013C618C613C6D5E0E9226016080808C626
:10033300C313C618C613C618C613C618C613C6D524
:10034300E0EA227009080808226016181818C6C3C4
:1003530033C608C633C608C633C608C633C6D5E097
:10036300EA22E627F60809E637F60809E637F6082B
:1003730009E637F622E026F608A3E036F608A3E0FE
:1003830036F608A3E036F622E49326F608740193C2
:1003930036F60874029336F60874039336F622E0B1
:1003A30026F008A3E036F008A3E036F008A3E03611
:1003B300F022C3E697F60809E697F60809E697F6EA
:1003C3000809E697F622C3E0C696F608A3E0C696A8
:1003D300F608A3E0C696F608A3E0C696F622E05612
:1003E300F608A3E056F608A3E056F608A3E056F68F
:1003F30022E49356F60874019356F6087402935652
:10040300F60874039356F622E056F008A3E056F07C
:1004130008A3E056F008A3E056F022E647F60809E1
:10042300E647F60809E647F60809E647F622E046F6
:10043300F008A3E046F008A3E046F008A3E046F086
:1004430022E667F60809E667F60809E667F608098B
:10045300E667F622E49366F60874019366F6087479
:10046300029366F60874039366F622E0F608A3E0A7
:10047300F608A3E0F608A3E0F622E493F608740175
:1004830093F608740293F608740393F622E6F008D1
:10049300A3E6F008A3E6F008A3E6F022E0FAA3E05F
:1004A300FBA3E0FCA3E0FD22EAF0A3EBF0A3ECF056
:1004B300A3EDF022E0F8A3E0F9A3E0FAA3E0FB2226
:1004C300E8F0A3E9F0A3EAF0A3EBF022CAC0E0E668
:1004D300F0A308DAFAD0E0FA22CAC0E0E0A3C582AA
:1004E300CCC582C583CDC583F0A3C582CCC582C5E7
:1004F30083CDC583DAE6D0E0CA22CAC0E0E493A381
:10050300C582CCC582C583CDC583F0A3C582CCC5C6
:1005130082C583CDC583DAE5D0E0CA22C3E498F867
:10052300E499F91205608026C3E49AFAE49BFBE997
:1005330020E7E9120560E498F8E499F922C3E49806
:10054300F8E499F9120560E498F8E499F9C3E49A98
:10055300FAE49BFB22EB20E7CFE920E7E0B90010A8
:10056300BB0008E88AF084F8AAF022E4FBC8FA2268
:10057300EB70227B10C833C8C933C9335007C39A01
:10058300C3DBF280069A50012ADBEAC833F4C8C9F8
:1005930033F4C9FA2275F008E4C833C8C933C93340
:1005A300C99AC99B5004C92AC93BD5F0ECFBC8338F
:1005B300F4C8E4C9FA22600D08C6A2E713C618C638
:1005C30013C6D5E0F322600C08C6C313C618C613BE
:1005D300C6D5E0F422700422600D18C6C333C608E2
:1005E300C633C6D5E0F41822251010AF08F5104025
:1005F3000C15118008F51040021511D2AF2200C06E
:10060300D0251010AF08F510500C05118008F51017
:1006130050020511D2AFD0D0222510F58210AF08B9
:10062300F510400C15118008F51040021511D2AFDA
:10063300851183222510F582E43511F583222510D7
:10064300FCE43511FD22E4732510C582C0E0E511F9
:1006530034FFC583C0E0E510C3958224F910AF08C9
:100663008583118582108008858311858210D2AF1E
:10067300CEF0A3E520F0A37808E608F0A3DEFAEFB6
:10068300F0A3E58124FBF8E608F0A3E608F0A3084D
:1006930008E608F0A3E608F0A315811581D0E0FE73
:1006A300D0E0F815811581E8C0E0EEC0E0228511A5
:1006B30083851082E0A3FEE0A3F5207808E0A3F68B
:1006C30008DFFAE0A3FFE0A3C0E0E0A3C0E0E0A3FB
:1006D300C0E0E0A3C0E010AF0885821085831180DD
:1006E30008858210858311D2AFD083D08222C0D0F7
:1006F3002510C582C0E0E51134FFC583C0E0E510D5
:10070300C3958224F310AF08858311858210800876
:10071300858311858210D2AFC8F0A3E9F0A3EAF074
:10072300A3EBF0A37908E709F0A3D8FAECF0A3ED63
:10073300F0A3EEF0A3EFF0A3D0E0F0A3D0E0F0A39A
:10074300D0E0F0A3E520F0A3E5F0F0A32285118328
:10075300851082E0C0E0A3E0F9A3E0FAA3E0FBA3E5
:100763007808E0F608A3DFFAE0FCA3E0FDA3E0FECF
:10077300A3E0FFA3E0C0E0A3E0C0E0A3E0F5D0A3C3
:10078300E0F520A3E0A3F5F010AF0885831185827F
:10079300108008858311858210D2AFD082D083D098
:1007A300E0F8D0E0327404800A7403800674028097
:1007B300027401C0E0F40412061CD0E01204CF223C
:1007C300740480087403800474028000CCC0E0EDDC
:1007D300C0E0E510C39CCCAD1150011D10AF068CD9
:1007E300108D1180068C108D11D2AF1204DCD0E075
:1007F300FDD0E0FC2274048000CCC0E0EDC0E0E555
:1008030010C39CCCAD1150011D10AF068C108D117F
:1008130080068C108D11D2AF1204FDD0E0FDD0E024
:10082300FC22D083D082CCC0E0E493A360061208FC
:100833004F1470FAE493A3600612086E1470FAD092
:10084300E0FCE493A3C0E0E493C0E022C0E0E493BF
:10085300A3D39C5010E493A3C39C400AD0E0D0E000
:10086300D0E0020842A3A3A3D0E022C0E0E493A314
:100873006C7009D0E0D0E0D0E0020842A3A3D0E03E
:100883002274F812064BE9FEEDF8ECF9E87003E97F
:100893006011E96001088A828B83EEF0A3D9FB180B
:1008A300E870F77F010206B174F812064B74081260
:1008B3000637E0FEA3E0F508EEFEE5087003EE6000
:1008C3002DEE60020508EAF8EBF98C828D83E0884F
:1008D300828983F08C828D83A3AC82AD83888289E5
:1008E30083A3A882A983DEE21508E50870DC7F01F3
:1008F3000206B174F712064BEAFEEBFFEDF8ECF5D6
:1009030008E87003EC6033EC600108EEFCEFFD7463
:1009130009120637E0F9A3E0FAA3E0FB1201D38C36
:10092300828D83F0E9240109E43AFAA3AC82AD8312
:100933001508E50870E618E870E2EEFAEFFB7F02AF
:100943000206B174F812064BE5A85480FEC2AF123A
:10095300AA89EAF8EBF9ECFAEDFB9004A41204C3BC
:100963007A597B4012A5C49004A81204ABEE42A8A6
:100973007F010206B174F512064B8A088B098C0AB3
:100983008D0B9004A878081203C9AA08AB09AC0A16
:10099300AD0B12AB11123D7D8A088B098C0A8D0BAE
:1009A3009004A47808120378AA08AB09AC0AAD0B2B
:1009B3007F040206B1C082C083900497E0F87427D5
:1009C30028F582E43404F583E0F8A2E550047906BF
:1009D3008025740F58F8904030E0A2E7E850059066
:1009E300403B8003904033F0122879E9F8A2E750A6
:1009F30004904180F07900D083D082221237E20242
:100A030009B812384E0209B874F512064B90400F1C
:100A1300E0FEA2E2504690401CE0640F703E1209D3
:100A230046900450E060357AE27B0612ACBB900638
:100A3300E7E4F09004A81204B79006E81204C37A1E
:100A4300E27B0680147A4D7B4012A5C412AB53900F
:100A530006CC1204AB7AC07B0612ACF290400DE0D8
:100A6300A2E04003020CFC904029E0F8C4135407B1
:100A7300FE74076E7002E0FE741F5814602324F1A5
:100A83007003020C60147003020C38147003020B21
:100A9300FF147003020BB324FE7003020C87020CD5
:100AA300ECEE60B8E01EEEFC79BC7A057B0012AF79
:100AB30001742165136006742365137020904F3011
:100AC300E0900401F0904F31E0900402F0904F3237
:100AD300E0900403F0904F33E0900404F074216538
:100AE300136006743265137005904002E4F0904081
:100AF30007E0C2E0F07AC07B0612ACBB9006C5E407
:100B0300F09006DC74BCF0A37405F0E51354F864AC
:100B1300287048A374BCF0A37405F0EEA3F0A3E41B
:100B2300F0904040E0F83395E0F990042EE0FA337A
:100B330095E0FBE8C39AF8E99BF99006CAE8F0A3AD
:100B4300E9F0900400E07003020A487A507B4012F7
:100B5300AD5B12B04F123B90020A52900442E0F890
:100B630074BC28F8E43405F99006DEE8F0A3E9F054
:100B7300900442E0F8EEC398500A9006E0E4F0A334
:100B8300F0020A5FE0F8EEC3989006E0F0A3E4F009
:100B93007AC07B0612ACF274326513600974336554
:100BA300136003020A5F7A177B0712A8CC020A5F5D
:100BB300900400E06003020CEC74036E6003020C0B
:100BC300EC904029E0F9540FF9740859F42401C951
:100BD30049F9F5083395E0F509740878081205B961
:100BE300E5089006CFF0E99006CEF0904029E0901A
:100BF30006CDF0904029E09006CC8084900400E07C
:100C03007003020CEC74026E6003020CEC9040293A
:100C1300E09006CDF0904029E09006CCF0780812E1
:100C2300046EAA08AB0912B04F123B909006CC1287
:100C330004AB020A5F74016E6003020CECE0F8334C
:100C430095E0F990042EE0FA3395E0FBE8C39AF8B7
:100C5300E99BF99006CAE8F0A3E9020B8374036EDB
:100C63006003020CEC9006C9E4F0904029E0900682
:100C7300C8F0904029E09006C7F0904029E0900624
:100C8300C6020B83EE7003020A5F1209467AEC7BFD
:100C93000612ACBB9006F1E4F0904029E0FCF83377
:100CA30095E0F990042EE0FA3395E0FBE8C39AF857
:100CB300E99BF99006F6E8F0A3E9F0900430E0F838
:100CC300ECC398A2D265D033400478018002780047
:100CD300E89006F8F09004A81204B79006F2120404
:100CE300C37AEC7B0612ACF21EEE7003020A5FF9C4
:100CF300904029E0D9FA020A5F7F040206B174F535
:100D030012064B8047EEC394045003020FC17E07C3
:100D1300900495C3E09407A3E094005005900495D4
:100D2300E0FEEEF8900495C3E098F0A3E09400F0A1
:100D33009040297462F090043FE0904029F0EEC4A3
:100D43003354E0F090043EE0904029F090402DE0D1
:100D5300FE90402CE060027EFFE51424F6600C1444
:100D63006039147003020F34020FC7900495E0F842
:100D7300A3E0F9E849708E75140B741165136006CE
:100D8300741365137005900438800390043CE0F8F5
:100D9300A3E0F9900495E8F0A3E9F0900495E0F856
:100DA300A3E0F9E8496003020E7BEEC3940F5003FE
:100DB300020FC1900440E060629040297441F074D6
:100DC3001CF0900441E0F508900440E0F87408C377
:100DD30098F8904200E0A2E7750AFF750B00E878E7
:100DE3000A50181205D8E50A5208750A80750B00D7
:100DF300900440E0780A1205B980161205B9E50A95
:100E03005208750A01750B00900440E0780A120538
:100E1300D8E50A4208E508904029F0904012E054D2
:100E23000E6406704D90044AE06047E0FB74075B74
:100E330060047A0480027A0074072B131313541F7F
:100E4300FB74012BC43354E04401904029F0900417
:100E53004FE04A904029F07A008012EAF8744B2858
:100E6300F582E43404F583E0904029F00AEAC39B59
:100E730040E975140C020D4FEEC394045003020FA6
:100E8300C17EFF900495C3E094F8A3E09407501447
:100E9300900495E0F508A3E0F509740378081205BA
:100EA300C9E508FEEE602B8E087509007403780807
:100EB3001205D8900495C3E09508F0A3E09509F0D6
:100EC3009040297462F090043FE0904029F0EE02D4
:100ED3000D4690043EE0F508900495E0FEE4F0A38F
:100EE300F09040297441F0741CF07408C39EF8908C
:100EF3004200E0A2E7750AFF750B00E8780A501577
:100F03001205D8E50A5208750A80750B00EE780AB7
:100F13001205B980131205B9E50A5208750A01755D
:100F23000B00EE780A1205D8E50A4208E508020D1F
:100F33004BEEC3940B5003020FC17F00900495E066
:100F4300F8A3E0F9E84970027F01900493C082C0DE
:100F530083900495E0F8A3E0F9D083D082E0C398AE
:100F6300F8A3E099F974FD2EFEC398E4994006E8CE
:100F7300FEEFD2E1FFEE603790402974E1F0740197
:100F83002EF0EFF0EEFC900495E024B8F508A3E012
:100F93003404A908FA7B0012AF1DEEF8900495E023
:100FA30028F0A3E03400F0EFA2E14003020D4F75F7
:100FB300140D9040097401F09040077440F0904084
:100FC300287404F07F040206B1C0E074F21206F143
:100FD300E5141470030212A214700302125E14606B
:100FE3004024FE604724FE604E24FE6055147003C7
:100FF3000210A91470030210A91470030210A9149B
:1010030070030210AF14700302117F1470030211F6
:10101300B11470030211D3904006E4F0A3F002125E
:10102300A5904006E4F07514040212A5904006E46E
:10103300F07514060212A5904009E4F07514080235
:1010430012A590400FE09040287403F0904006E40E
:10105300F0A37408F075140A904010E0540F64096B
:10106300700E90402974E1F07402F014F07411F0E2
:10107300120D01904002740DF01209467AF97B06B5
:1010830012ACBBE51324EE600314701390049CE0D0
:10109300F8900459E06860079006FE740880049095
:1010A30006FEE402119D120D010212A590400FE00D
:1010B30090401CE060030212A5904009E4F0E513A0
:1010C30024EE603414603124F3601524FE60092497
:1010D300F26047146017804D9006C5E064F0700815
:1010E300120A051212AA8040121358803B90045B27
:1010F300E0900493F0A3E4F0120A051212AA7A17FF
:101103007B0712A8CC9004511204B790071B12045A
:10111300C37A177B0712A870800E90045BE09004DB
:1011230093F0A3E4F012134774306513601774311E
:101133006513601174326513600B743365136005B6
:10114300900492E4F01209467A037B0712ACBB9039
:101153000708E4F074126513600C741365136006DA
:101163007431651370037402F09004A81204B790ED
:1011730007091204C37A037B07021259904006E45D
:10118300F0A3F0904002740DF07514001209467A32
:10119300F97B0612ACBB9006FEE4F09004A812049F
:1011A300B79006FF1204C37AF97B060212599040E6
:1011B3000CE0A2E0506F9040097403F0904006E405
:1011C300F0A37440F0904002740DF0751410805534
:1011D30090400FE0FE74035E6003120946EEA2E046
:1011E300501F7A037B0712ACBB900708E4F090040E
:1011F300A81204B79007091204C37A037B0712AC41
:10120300F2EEA2E1501F7AF97B0612ACBB9006FE08
:10121300E4F09004A81204B79006FF1204C37AF90D
:101223007B0612ACF290400DE0F8904007E0585472
:1012330008606FE0C2E3F01209467A0D7B0712AC37
:10124300BB900712E4F09004A81204B7900713129E
:1012530004C37A0D7B0712ACF2804790400DE0A2E5
:10126300E790400BE05004D2E78002C2E7F0A3E02E
:10127300A2E090400AE05004D2E08022C2E0F09065
:101283000401E0904F30F0900402E0904F31F09071
:101293000403E0904F32F0900404E0904F33F012D7
:1012A3000A0B7F0102075074F812064B743365135F
:1012B3007004D2F08002C2F0743265137004D2F16C
:1012C3008002C2F1A2F1E433F9A2F0E433F890040E
:1012D30050E04849FE60069040097404F090042FE2
:1012E300E090422CF01238BF904232E0C2E6F09018
:1012F30040287403F09040027409F0751401EE90D5
:1013030040076004744180027401F0904006E4F0E9
:101313007F010206B1C082C0839040027405F0745D
:1013230007F01209FF90402EE4F0A37480F07514C7
:1013330009904007E4F090400604F0904004E0D0A8
:1013430083D08222C082C083121358904002E4F0FB
:10135300D083D08222C082C083904007E4F09040C3
:1013630006F09040027405F0904310E4F075140009
:10137300D083D0822274F812064BE5A85480FEC2B3
:10138300AF751403904006E0D2E0F0800B790212AF
:10139300863CEE42A81285DBC2AF7404651470ED7F
:1013A300EE42A87F010206B174F712064B9004AC1B
:1013B300E0904207F09004ADE0904206F09004AE56
:1013C300E0904205F09004AFE0904204F09004B046
:1013D300E090420BF09004B1E090420AF09004B226
:1013E300E0904209F09004B3E0904208F090041FAB
:1013F300E0605D900443E060577AFF7B0190401109
:10140300E0A2E0E433F404FE900444E0F46014E06A
:10141300F508750900740378081205D8AC08AD09FE
:1014230012AC49EA6EF8904207E068F012ADEEEABA
:101433006EF8904206E068F012ADEEEA6EF8904264
:1014430005E068F012ADEEEA6EF8904204E068F051
:101453007F020206B1C082C083122D3F900449E08F
:10146300F8904202E028F09040247403F0900400C6
:10147300E06004741380027415904232F01213ABCF
:10148300D083D0822274F512064B8A088B098C0A0A
:101493008D0B90049E78081203A27F040206B17498
:1014A300F112064B8A088B098C0A8D0B90049E78E7
:1014B3000C12046E780C79081203B590071B780C94
:1014C3001204907F080206B174F112064B9006C60F
:1014D30012049F1209788A0C8B0D8C0E8D0F9004C9
:1014E3009E780C1203C9850C08850D099006D0E57A
:1014F30008F0A3E509F0900472E0FCA3E0FD90047A
:10150300A2E0FAA3E0FB12AC82E9701EAA0CAB0DB9
:10151300AC0EAD0F1214887405780C1205D8900424
:10152300A2E50CF0A3E50DF0801E9004A2E02508CF
:10153300F0A3E03509F07402780C120313AA0CAB84
:101543000DAC0EAD0F121488900472E0FCA3E0FD05
:101553009004A2E0FAA3E0FB12ABD59004A2EAF058
:10156300A3EBF07F080206B174F712064B90045EFA
:1015730012049F121488900472E0FCA3E0FD90040F
:10158300A2E0FAA3E0FB12AC82E9601E9004A2E0A1
:10159300F508A3E0F509740578081205B9AA08E56A
:1015A30009FB3395E0FCFD1214887F020206B17437
:1015B300F512064BE5131208250710116F161213C7
:1015C300EC162021DC1522233C17282CDC153031A6
:1015D300AD173233A918006A16900492E0640270C2
:1015E3000302166F7A177B0712A8CC900431E0F838
:1015F300A3E0F9E8FCE9FD90071BECF0A3EDF0A3F1
:10160300E4F0A3F07A177B0712A8701209467AEC6C
:101613007B0612ACBB9006F1E4F0904040E0FCF88E
:101623003395E0F990042EE0FA3395E0FBE8C39A92
:10163300F8E99BF99006F6E8F0A3E9F0900430E0AE
:10164300F8ECC398A2D265D0339006F84004740135
:101653008001E4F09004A81204B79006F21204C3C8
:101663007AEC7B0612ACF27F040206B190049CE094
:101673006003E014F07A177B0712A8CC900430E0E3
:10168300F8904040E0C398A2D265D033400C900458
:101693009CE07021900435E0601B900492E4F0908C
:1016A300043AE0F8A3E0F9900495E8F0A3E9F01216
:1016B300131802160E90049CE060030215EE120943
:1016C30046900492E4F01213477AF97B0612ACBBFE
:1016D3009006FE7403F09004A81204B79006FF125C
:1016E30004C37AF97B06021667900492E0640170E2
:1016F3000302166F12134790049CE07023120946ED
:101703007A037B0712ACBB9007087403F09004A81C
:101713001204B79007091204C37A037B0702166702
:10172300E014F090043AE0F8A3E0F9900495E8F0AF
:10173300A3E9F012131802166A900492E064017090
:101743000302166F9040287403F0904002740DF06A
:10175300904003E0A2E350F81209FF90400FE0909D
:10176300402EE4F0A37480F075140A90043AE0F874
:10177300A3E0F9900495E8F0A3E9F0904010E05459
:101783000F6409700E90402974E1F07402F014F0B4
:101793007411F09040077408F01209467AF97B0639
:1017A30012ACBB9006FEE40216D8900492E024FC2F
:1017B300604D1470030218899040027405F01209F9
:1017C300FF9004927404F07A0D7B0712ACBB900770
:1017D30012E4F0A3F0A3F0A3F0A3F07A0D7B0712B9
:1017E300ACF27A177B0712A8CC90049E1204B79030
:1017F300071B1204C37A177B0712AACE02166A903C
:1018030040287403F0904002740DF0904003E0A26E
:10181300E350F890400FE090402EE4F0A37480F082
:1018230075140A90043AE0F8A3E0F9900495E8F0FF
:10183300A3E9F0904010E0540F6409700E90402922
:1018430074E1F07402F014F07411F07A177B07124C
:10185300A8CC1209469040077408F090045E120465
:101863009F1214889004927405F074316513601309
:101873007403F090046212049F1214A27A177B0778
:1018830012AACE02179F1213477403F07A177B072D
:1018930012A8CC90046212049F1214A27A177B0739
:1018A30012AACE021700900492E024F96074147017
:1018B3000302197814700302199E147003021A07A5
:1018C300147003021A28147003021AF612134774D1
:1018D30007F090046E12049F1214887A177B071284
:1018E300A8CC90049E1204B790071B1204C37A1766
:1018F3007B0712AACE7AC07B0612ACBB7C1E7D008E
:1019030079007AC47B061208849004A81204B79065
:1019130006C61204C39006C5740AF07AC07B060299
:1019230016671212AA7406F090046612049F12142A
:10193300887A177B0712A8CC90049E1204B79007ED
:101943001B1204C37A177B0712AACE1209467AC068
:101953007B0612ACBB7C1E7D0079007AC47B061229
:1019630008849004A81204B79006C61204C3900614
:10197300C5740980A59040027405F090049274091F
:10198300F07A177B0712A8CC900462780812046ED1
:1019930090071B78081203A20217F81212AA740AFE
:1019A300F01209467AC07B0612ACBB7C1E7D00791F
:1019B300007AC47B061208849004A81204B7900628
:1019C300C61204C39006C5740BF07AC07B0612AC32
:1019D300F27A177B0712A8CC90049DE0F890047567
:1019E300E0F9E8C3994003E014F888087509007426
:1019F3000278081205D874822508F5827404350923
:101A0300F583808790401CE0700302166AF4540F3C
:101A13007013900492740BF07A177B0712A8CC9082
:101A2300048E02198E12134790049DE07003740113
:101A3300F0E004F01209467AC07B0612ACBB7C1EB0
:101A43007D0079007AC47B061208849004A81204EE
:101A5300B79006C61204C39006C57403F090049DA4
:101A6300E0F8900474E0C398404A7AC07B0612AC55
:101A7300F212156B9004927408F07A177B0712A880
:101A8300CC90049DE0F8900475E0F9E8C399400315
:101A9300E014F88808750900740278081205D874F0
:101AA300762508F58274043509F58312049F121410
:101AB300A20217F89006C57409F07AC07B0612AC2F
:101AC300F21212AA9004927406F07A177B0712A8F6
:101AD300CC9004661204B790071B1204C37A177BD9
:101AE3000712A87090071B1204B790049E1204C338
:101AF30002166A7408F07A177B0712A8CC90047A4E
:101B030012049F1214A27A177B0712AACE02174758
:101B1300EA2404FA50010B02A41E74F712064B9038
:101B230006C5E0600A7AC47B0612A41E021F439016
:101B3300041FE06055E51354F86428604D9040118C
:101B4300E0A2E0E433F404F50878081207B475085A
:101B5300FF75090178081207B09006E0C082C083C0
:101B6300900442E0F8D083D082E028FCA3E0340064
:101B7300FD9006DCE0F8A3E0F5838882A982AA83BE
:101B83007B0012A6977403120601900449E0605487
:101B9300E51354F86428604C9006E0C082C083903B
:101BA3000442E0F8D083D082E028FCA3E03400FDB7
:101BB3009006DCE0FAA3E0FB123DD4EA4B7003028B
:101BC3001F08900442E0F8EAC398FAEB9400FB90F4
:101BD3000449E0F8EAC398F8EB9400F99006E0E8CA
:101BE300F0A3E9F09006D0E4F0A3F0A3F0A3F0741F
:101BF300126513600C7413651360067431651370FA
:101C0300441213477A177B0712A8CC7431651370FB
:101C1300169004927403F090046212049F1214A2AB
:101C23007A177B0712AACE7A037B0712ACBB900705
:101C330008E4F07A597B4012A5C4A31204AB7A03DB
:101C43007B0712ACF2900444E0F4602A900443E072
:101C5300F50875090078081207B0900444E0F8907D
:101C630006DCE028FCA3E03400FD7AD87B061208EA
:101C7300AB7402120601900445E0F4602A90044319
:101C8300E0F50875090078081207B0900445E0F8FC
:101C93009006DCE028FCA3E03400FD7AD47B061236
:101CA30008AB740212060174226513600F74236576
:101CB300136009743365136003021E5490049CE49B
:101CC300F0900442E0FA90045BE0F8EA28F8E43488
:101CD30000F9900493E8F0A3E9F0900442E0FC7D5E
:101CE3000079007AB87B0412088490045AE0F46007
:101CF30031E0F89006DCE028FAA3E034008A82F5AC
:101D030083E0FAC0E074B828F582E43404F583D0A4
:101D1300E0F090049DE06A6003EA80059006C574D4
:101D230008F0900444E0F46034E0F874B828FAE46E
:101D33003404FB900443E0F508750900900445E082
:101D4300F4780860091207B07CD47D068007120777
:101D5300B07CB47D041208AB7402120601900445F2
:101D6300E0F46027900443E0F50875090078081251
:101D730007B07CAC7D04900445E0F874B828FAE41D
:101D83003404FB1208AB7402120601900448E060AD
:101D930033900446E0F874B828F8E43404F9900466
:101DA30048E0F4FA88828983E05AF0900448E0FD21
:101DB300900447E0FC900493E0C39C5DFA88828919
:101DC30083E04AF0900449E06017900493E0FCA399
:101DD300E0FD7AB87B04123E46900493EAF0A3EB4D
:101DE300F090041FE06032904011E0A2E0E433F48D
:101DF30004F50878081207B47508FF750901780817
:101E03001207B0900493E0FCA3E0FD79B87A047B59
:101E13000012A6977403120601904006E4F0A3F0A3
:101E23009040027405F09040287403F075140A90F2
:101E33004003E0A2E340F87A177B0712A8CC900492
:101E4300551204B790071B1204C37A177B0712A815
:101E530014743265136009743365136003021F0140
:101E6300743365136003121347900492E024F860FF
:101E73002524FE602114601E9006C612049F1209D9
:101E83007890049E1204AB9004A2E4F0A37480F053
:101E930090049DE480231214CB9004A2E0F508A3E0
:101EA300E0F509740578081205B99006D2E508F043
:101EB300A3E509F090049D7401F012156B7433656A
:101EC3001390049260357408F07A177B0712A8CC3C
:101ED30090049DE0F508750900740278081205D88E
:101EE30074762508F58274043509F58312049F126C
:101EF30014A27A177B0712AACE8003740CF07AC45B
:101F03007B0612A41E742165136035742265136069
:101F13000674236513701AE5A85480F9C2AFA81498
:101F23009006C574F0F0E942A8E870141212AA8072
:101F33000FE514146003147007904007E0D2E0F03B
:101F43007F020206B17AC07B0612ACBB7AE27B0643
:101F530012ACBB7AEC7B0612ACBB7AF97B0612ACF3
:101F6300BB7A037B0712ACBB7A0D7B0712ACBB7A3F
:101F7300177B0702A8CC74F812064B7A007B007C0F
:101F8300409043007484F0E0A2E740FB1CEC70F146
:101F93007C209043007484F0E0A2E740FB90430868
:101FA300E05403F9A3E0FEEA2EFAEB39FB1CEC70D4
:101FB300E17F010206B174F312064BE9750CFF755C
:101FC3000DFFC2E7FF8F087E00805FEF2EF50974D7
:101FD300C05509702374804509904180F0121F7920
:101FE3008A0A8B0BA80AA90BC3E8950CE9950D5037
:101FF30007880C890D850908EE602EEFC39EF5094D
:1020030074C05509702374804509904180F0121FF4
:10201300798A0A8B0BA80AA90BC3E8950CE9950DDD
:102023005007880C890D8509080E74106E709CC3C7
:10203300E50C9411E50D9400748050034F80024524
:1020430008F97F060206B174F212064B750A007591
:1020530008FF7509FF7E007F00750B40804F150B4D
:102063007480450BF50E904180F0904033E0121FD1
:1020730079E0A80BE828F8E433F974BC28F58274F6
:102083000539F583EAF0A3EBF0C3EE9AEF9B500416
:10209300EAFEEBFFC3EA9508EB950950108A088B1B
:1020A30009904033E0F454C07003850E0AE50B70C9
:1020B300ADE50AA2E75019C3EF94FF5013C3E50936
:1020C3009401400CEEC39508EF9509C39460500446
:1020D30079008002A90A7F070206B174F112064B48
:1020E30074FA1205EB751300121F489006C2741D93
:1020F300F0A3741BF0A3E4F07C04FDF97AD47B060F
:102103001208847C047D0079007AD87B0612088447
:102113009006E47413F0A3741BF0A37401F090060B
:10212300EE7413F0A3741BF0A37402F09006FB7417
:1021330013F0A3741BF0A37403F09007057413F05A
:10214300A3741BF0A37404F090070F7413F0A3742B
:102153001BF0A37405F090071974B2F0A37415F083
:10216300900497E4F0900498F0A3F0A3F0A3F0C2D6
:10217300AC75140012A348E9600579050224A61280
:1021830014581237E29040307409F0A314F0D2AC23
:102193009040027405F09040107408F0904161E49F
:1021A300F0A3F0A3F0121378851082851183E480E5
:1021B3003B790212863CE50842A81285DBC2AF7464
:1021C30006651470EC751400904006E4F0904033FB
:1021D300E0C0E074272EF582E43404F583D0E0F008
:1021E300E50842A8851082851183E004F09004205D
:1021F300E0F8851082851183E0C39840030222A48E
:10220300E0FE8E08750900740278081205D874215F
:102213002508F58274043509F583780812046EE500
:1022230008904037F0E509904036F085080CF50D2D
:10223300850A0E850B0F7410780C12032DE50C9094
:102243004035F07418780812032DE508904034F0F7
:10225300E5A85480F508C2AF7514059040067410C4
:10226300F0900425E054F0700D74252EF582E434CB
:1022730004F583E080207818851082851183E0605F
:102283001874262EF582E43404F583E0F8A2E550B1
:10229300027808E8540F4410F8E8904033F0022124
:1022A300C0900429E0700302241B1237E29040100F
:1022B3007408F0904161E4F0A3F0A3F0904030E0A3
:1022C300D2E2F0904F35E0F8D2E7F8D2F0A2E13055
:1022D300F001B3500108E8F0904002740CF0904113
:1022E30080E0C0E07405120637D0E0F074021206F5
:1022F300377402F0851082851183E4802F12204AFF
:10230300E9C0E07403120637E0F8A3E0F58388829E
:10231300D0E0F07402120637E014F0E06003022309
:10232300D57401F0851082851183E004F0900420B8
:10233300E0F8851082851183E0C3984003022411DD
:10234300E0FE74282EF8E43404F97403120637E827
:10235300F0A3E9F07403120637E0F8A3E0F58388ED
:1023630082E4F074272EF582E43404F583E0A2E5D9
:1023730040B2E0540FC0E07401120637D0E0F0E041
:10238300904033F08E08750900740278081205D85E
:1023930074212508F58274043509F583780812043D
:1023A3006EE508904037F0E509904036F085080C5B
:1023B300F50D850A0E850B0F7410780C12032DE5AD
:1023C3000C904035F07418780812032DE5089040FE
:1023D30034F0900426E0700302230074262EF58265
:1023E300E43404F583E0F9900425E054F0701974A3
:1023F30001120637E029F974252EF582E43404F539
:1024030083E0540FC9C399F9121FB902230374055A
:10241300120637E0904180F0904002E4F012145825
:1024230012384E900427E0540F904033F09004216B
:10243300780C12046EE50C904037F0850D09E50920
:10244300904036F0850C08850E0A850F0B741078C2
:102453000812032DE508904035F07418780C120328
:102463002DE50C904034F07513018510828511839E
:10247300E48008851082851183E004F0900420E055
:10248300F8851082851183E0C3985015E0F874270E
:1024930028F582E43404F583E0A2E550D67906807A
:1024A30002790074061206017F080206B1E5146082
:1024B3000674026514700379012279002274F812FC
:1024C300064BE9FEE5136E700302279FE51312081E
:1024D3002502181C0625282D3E250300E92402F3B6
:1024E3002403062547251220DEE9F9605D0227A5AE
:1024F30012A657E9600579050227A5121458751429
:10250300008044E5A85480FFC2AFE514702212098D
:10251300467A037B0712ACBB900708E4F09004A84B
:102523001204B79007091204C37A037B0712ACF2B3
:10253300121347EF42A8121458800C1213471214B7
:1025430058751301121347751301121F48EE7003D8
:102553000227A3900492E4F0EE12082505101395C8
:1025630025181CEF25282D69263031042732333EE8
:102573002707019F27028C2503CA2620A32521E1D3
:102583002522A32523E125A32712A63075130202D2
:10259300279F8E1390049D74FFF01209FF02279F5B
:1025A3008E1390049D74FFF0120A051212AA900470
:1025B30033E060277A177B0712A8CC900431E0F848
:1025C300A3E0F9E8FAE9FB90071BEAF0A3EBF0A319
:1025D300E4F0A3F07A177B0712A87002279F9004F8
:1025E3009D74FFF08E13120A0502279F8E13741831
:1025F30065136006741A65137005904011E4F07456
:102603001965136006741B651370069040117404FA
:10261300F0741A65136006741B651370079042000B
:10262300E0C2E7F01209FF904012E4F012131875AC
:10263300140F904003E0A2E350F89040287403F095
:1026430090400FE01209467A0D7B0712ACBB90074E
:1026530012E4F09004A81204B79007131204C37A8B
:102663000D7B0702279C8E13120A057428651360DD
:1026730006742A65137005904011E4F074296513FC
:102683006006742B651370069040117404F0742A6D
:1026930065136006742B65137007904200E0C2E770
:1026A300F0904012E4F09042307408F0904117E447
:1026B300F0742D6513700D1238D59040237404F017
:1026C300904022F00225AE7513031209FF904010CB
:1026D3007408F0904161E4F0A3F0A3F0904165F039
:1026E300A3F0A304F09040237404F0904002740715
:1026F300F075140E904007E4F090400604F00227B2
:102703009F8E139004927403F07A177B0712A8CC60
:1027130090071B7402F0A3E4F0A3F0A3F07A177BF5
:102723000712A87090071B1204B790049E1204C3EB
:1027330090046212049F12148880618E13120A059A
:102743001212AA9004927406F07A177B0712A8CC8F
:1027530090046A1204B790071B1204C37A177B070D
:1027630012A87090071B1204B790049E1204C37A38
:10277300C07B0612ACBB7C1E7D0079007AC47B064D
:102783001208849004A81204B79006C61204C390DA
:1027930006C57409F07AC07B0612ACF27900800298
:1027A30079017F010206B174F112064BE9FA900434
:1027B30020E0F8EAC39840057904022874EA9004FB
:1027C30097F08A08750900742729F582E43404F523
:1027D30083E0F9A2E55005790602287474027808AB
:1027E3001205D874212508F58274043509F5837818
:1027F3000812046E9004987808120378E509FB85A3
:10280300080CF50D850A0E850B0F7418780C12034E
:102813002DE50CFC85080C8B0D850A0EF50F741045
:10282300780C12032DE50CF8740F59F9904030E041
:10283300A2E7E9501A904033F0E508904037F0EBF7
:10284300904036F0E8904035F0EC9040348018909A
:10285300403BF0E50890403FF0EB90403EF0E890BD
:10286300403DF0EC90403CF0904030E06480F079E3
:10287300007F080206B1C082C083900497E0FA90FB
:102883000429E0601074282AF582E43404F583E017
:10289300F9A2E7404174262AF582E43404F583E083
:1028A300F9A2E7502C900425E054F0702974252AEE
:1028B300F582E43404F583E0540FF874272AF58293
:1028C300E43404F583E0540F29C398543F448080D3
:1028D30004904180E0F9D083D0822274F612064B33
:1028E30089088A098B0A78081207AC7C087D007A6C
:1028F300AC7B041208F674031206011213AB7F03B8
:102903000206B174F112064B74FC1205EB7401124A
:102913000637E9F0A3EAF0A3EBF0ECFEEDFF741346
:10292300120637E0F508A3E0F509A3E0F50A7416EB
:10293300120637E0F50BE5131208250410138B2A52
:10294300181C52292021442A3031682A00332D7A59
:102953002C7B4012AD5BE50B60158E0C8F0D740262
:10296300780C1205D8E50C2403F8E4350D8006EE47
:102973002403F8E43FF9C3EA98EB995003022ABC15
:10298300EE4F7003022A2AEEFE90402974E1F08E86
:102993000C750D00E50B60077402780C1205D8A8BE
:1029A3000CE804F07408F0E50B60677C007D0080A0
:1029B3004DECC333FFA908AA09AB0A1201D3FA7B72
:1029C300008A0C8B0D74012F780C1205D8E50CC40A
:1029D30020E304540F800244F05408F98A0C8B0D51
:1029E300EF780C1205D8E50C5480494477F0E508DC
:1029F3002401F508E43509F5090CEC70010DC3EC6D
:102A03009404ED9400A2D265D03340A51EEE709BD2
:102A13008015A908AA09AB0A1201D3F0E92401F52C
:102A230008E43AF509DEEB9040287404F0E5A85475
:102A330080F8C2AF904007E0D2E3F0E842A8022D4D
:102A43002F900492E07047904006E4F0A3F090408A
:102A5300027405F09040287403F0904003E0A2E371
:102A630040F81209FF900459E090049CF090049DF3
:102A7300E004F0E50B601C8E0C8F0D7402780C12D1
:102A830005D8A80CA90D800F900492E060D77902B5
:102A9300022D35EEF8EFF9900442E0FC7D00E82CBE
:102AA300F8E439F9900493E8F0A3E9F0900493C3B0
:102AB300E09405A3E0940140057904022D357900E3
:102AC3007AB87B04120884E50B7003022B70750B34
:102AD30000022B60AC0BE5082CF9E43509FAAB0ACC
:102AE3001201D3FA7B00E50EC3338510828511836F
:102AF300F08A0C8B0DE004780C1205D8E50CC42089
:102B0300E304540F800244F05408F98A0C8B0DE05F
:102B1300780C1205D8E50C5480494477C0E08C0C3E
:102B23008B0D7402780C1205D8E50C250EF8E50D13
:102B3300350FF974B828F582740439F583D0E0F0C1
:102B4300050EE50E7002050FC3E50E9404E50F9420
:102B530000A2D265D0335003022AD7050BC3E50B7D
:102B63009EE49F5026750E00750F0080DB780812D7
:102B730007ACEEFCEFFD900442E0F874B828FAE4E9
:102B83003404FB1208F6740312060190045AE0F4AD
:102B9300601890049DE0C0E090045AE0F874B828EF
:102BA300F582E43404F583D0E0F0900444E0F4606B
:102BB3002474011206371207C7900443E0FC7D001A
:102BC300900444E0F874B828FAE43404FB1208F6DD
:102BD3007403120601900445E0F46027900443E077
:102BE300F50875090078081207B07CAC7D049004E1
:102BF30045E0F874B828FAE43404FB1208AB740215
:102C0300120601900448E06033900446E0F874B87B
:102C130028F8E43404F9900448E0F4FA88828983BC
:102C2300E05AF0900448E0FD900447E0FC900493E0
:102C3300E0C39C5DFA88828983E04AF0900449E00E
:102C43006017900493E0FCA3E0FD7AB87B04123E86
:102C530046900493EAF0A3EBF090041FE0603290F7
:102C63004011E0A2E0E433F404F50878081207B455
:102C73007508FF75090178081207B0900493E0FC0A
:102C8300A3E0FD79B87A047B0012A69774031206B9
:102C930001743065136006743165137003022D2FC0
:102CA3007411651360067413651370059004368000
:102CB3000390043AE0F8A3E0F9900495E8F0A3E95F
:102CC300F0900434E0605CE513120825021013DB76
:102CD3002C2023DB2C00262D121358120A059004F6
:102CE3002FE090422CF09040027409F0900434E0FD
:102CF30090049CF09004927401F07A177B0712A859
:102D0300CC900431E0F8A3E0F9E8FCE9FD90071B5F
:102D1300ECF0A3EDF0A3E4F0A3F07A177B0712A87D
:102D23007080099004927402F012131879008002E3
:102D3300790174041206017F080206B1C082C083C0
:102D4300900ADFE0700302314314700302325A1415
:102D5300700302343F1470030235F024EF6027142C
:102D63006024147003023143147003022F6524FEA0
:102D7300700302325A24FE700302343F24FE7003B0
:102D83000235F00237DD9040107404F0A314F0A371
:102D93007406F09040217402F0A314F0A3F0904065
:102DA300257482F0A3F090406E7401F0904100F01E
:102DB300A374FCF0A3747FF0A3E4F0A3747FF0A3E7
:102DC30074F3F0A3E4F0A3F0A3F0A37480F0A3E4FE
:102DD300F0A3F0904115F090411774F4F090412066
:102DE30074E9F0A37484F090412474F9F0A374841B
:102DF300F0A37403F0A37446F0A3740AF0A3741F42
:102E0300F0A3F0A37406F0A3E4F0A3F090412FF035
:102E1300A374E9F0A37484F0A3E4F0A3F0A374F71C
:102E2300F0A37483F0A37403F0A37446F0A3740AAD
:102E3300F0A3741FF0A3F0A37406F0A3E4F0A3F0CF
:102E4300A37416F0A3E4F090415074FFF0A37484CC
:102E5300F0A3E4F0A3F0A374F6F0A37482F0A374D8
:102E630003F0A37446F0A3740AF0A3741FF0A3F055
:102E7300A37406F0A3E4F0A3F0A37416F0A3E4F0A4
:102E8300904161F0A3F0A3F0A37406F0A3E4F0A3D0
:102E9300F0A37481F090416A740FF0A374FFF09073
:102EA30041807499F09041837404F0904188740FC9
:102EB300F0A37477F09042007480F0A3E4F0A3745D
:102EC30088F0A374C8F090421074FFF0A3E4F0A359
:102ED300F0A3F0A37407F0904216F090421874FF29
:102EE300F0A3F090421C740AF090421EF09042202E
:102EF300743EF0A37431F0904223743EF0A3743116
:102F0300F0A3E4F0A3747FF09042287403F090429E
:102F13002A7412F090422D74CBF090422FE4F0A368
:102F2300740DF09042337420F0904330E4F0A3F03A
:102F3300A3F0904F0D7403F0904F1004F0A3E4F04E
:102F4300904F1C7407F0904F217468F0A374FFF046
:102F5300A37484F0904F267498F0904F3474080251
:102F630034389040107404F0A314F0A37406F09066
:102F730040217402F0A314F0A3F09040257482F072
:102F8300A3F090406E7401F0904100E4F0A374FC50
:102F9300F0A37466F0A3E4F0A37427F0A374D4F051
:102FA300A3E4F0A3F0A3F0A37480F0A3E4F0A3F0F0
:102FB300904115F090411774F4F090412074D7F0CC
:102FC300A37484F09041247498F0A374A2F0A374C2
:102FD300C3F0A37446F0A3740AF0A3741FF0A3F024
:102FE300A37406F0A3E4F0A3F090412FF0A374D7E9
:102FF300F0A37484F0A3E4F0A3F0A37496F0A37495
:10300300A1F0A374C3F0A37446F0A3740AF0A374ED
:103013001FF0A3F0A37406F0A3E4F0A3F0A37416C7
:10302300F0A3E4F090415074FFF0A37484F0A3E4A0
:10303300F0A3F0A37495F0A374A0F0A374C3F0A35A
:103043007446F0A3740AF0A3741FF0A3F0A37406EC
:10305300F0A3E4F0A3F0A37416F0A3E4F0904161AD
:10306300F0A3F0A3F0A37406F0A3E4F0A37404F0B8
:10307300A37408F090416A740FF0A374FFF09041B9
:10308300807499F09041837404F0904188740FF038
:10309300A37477F09042007480F0A3E4F0A37488E3
:1030A300F0A374FEF090421004F0A3E4F0A3F0A3A5
:1030B300F0A37407F0904216F090421874FFF0A347
:1030C300F090421C740AF090421EF0904220743E2D
:1030D300F0A37431F0904223743EF0A37431F0A353
:1030E300E4F0A3747FF09042287403F090422A74B2
:1030F30012F090422D74DDF090422FE4F0A3740D92
:10310300F09042337420F0904330E4F0A3F0A3F046
:10311300904F0D7403F0904F1004F0A3E4F0904F20
:103123001C7407F0904F217468F0A374FFF0A3742C
:1031330084F0904F267498F0904F3474080237CC83
:103143009040107404F0A3E4F0A37464F09040186A
:103153007433F09040217402F0A314F0A3F0904074
:10316300257482F0A3F090406E7401F0904100F05A
:10317300A374F8F0A3747FF0A3E4F0A3747FF0A327
:1031830074F3F0A3E4F0A3F0A3F0A37480F0A3E43A
:10319300F0A3F0904115F090411774F4F0904120A2
:1031A30074E9F0A37484F090412474F9F0A3748457
:1031B300F0A37403F0A37446F0A3740AF0A3741F7E
:1031C300F0A3F0A37406F0A3E4F0A3F090412FF072
:1031D300A374E9F0A37484F0A3E4F0A3F0A374F759
:1031E300F0A37483F0A37403F0A37446F0A3740AEA
:1031F300F0A3741FF0A3F0A37406F0A3E4F0A3F00C
:10320300A37416F0A3E4F090415074FFF0A3748408
:10321300F0A3E4F0A3F0A374F6F0A37482F0A37414
:1032230003F0A37446F0A3740AF0A3741FF0A3F091
:10323300A37406F0A3E4F0A3F0A37416F0A3E4F0E0
:10324300904161F0A3F0A3F0A37406F0A3E4F0A30C
:10325300F0A3748102336F9040107404F0A3E4F080
:10326300A37464F09040187433F09040217402F01A
:10327300A314F0A3F09040257482F0A3F090406E65
:103283007401F0904100F0A374F8F0A3747FF0A3ED
:10329300E4F0A37433F0A3742EF0A3E4F0A3F0A33B
:1032A300F0A37480F0A3E4F0A3F0904115F09041F3
:1032B3001774F4F090412074E8F0A37484F0904103
:1032C3002474C8F0A374C2F0A37483F0A37446F00B
:1032D300A3740AF0A3741FF0A3F0A37406F0A3E48D
:1032E300F0A3F090412FF0A374E8F0A37484F0A34B
:1032F300E4F0A3F0A374C6F0A374C1F0A37483F045
:10330300A37446F0A3740AF0A3741FF0A3F0A3748C
:1033130006F0A3E4F0A3F0A37416F0A3E4F0904145
:103323005074FFF0A37484F0A3E4F0A3F0A374C576
:10333300F0A374C0F0A37483F0A37446F0A3740ADB
:10334300F0A3741FF0A3F0A37406F0A3E4F0A3F0BA
:10335300A37416F0A3E4F0904161F0A3F0A3F0A3EB
:103363007406F0A3E4F0A304F0A37443F090416A5D
:103373007402F0A37407F09041807497F090418336
:103383007404F0904188740FF0A37477F0904200B6
:103393007481F0A314F0A3E4F0A374F0F09042104E
:1033A30074AAF0A374CCF0A374AAF0A374CCF09025
:1033B3004218747EF0A3F090421C748AF090421E6F
:1033C300740AF0904220743EF0A37431F0904223CB
:1033D300743EF0A37431F0A3E4F0A3747FF0904241
:1033E300287403F090422A7417F090422D74DDF094
:1033F30090422FE4F0A3740DF09042337420F090C8
:103403004330E4F0A3F0A3F0904F0D7403F0904F1A
:103413001004F0A3E4F0904F1C7407F0904F217454
:1034230068F0A374FFF0A37484F0904F267498F0AF
:10343300904F347428F0A374120237D09040107464
:1034430004F0A3E4F0A37464F09040187433F09094
:1034530040217402F0A314F0A3F09040257482F08D
:10346300A3F090406E7401F0904100E4F0A374FC6B
:10347300F0A37420F0A3E4F0A37428F0A374A0F0E5
:10348300A3E4F0A3F0A3F0A37480F0A3E4F0A3F00B
:10349300904115F090411774F4F090412074C5F0F9
:1034A300A37484F090412474A8F0A374A2F0A374CD
:1034B300C3F0A37446F0A3740AF0A3741FF0A3F03F
:1034C300A37406F0A3E4F0A3F090412FF0A374C516
:1034D300F0A37484F0A3E4F0A3F0A374A6F0A374A0
:1034E300A1F0A374C3F0A37446F0A3740AF0A37409
:1034F3001FF0A3F0A37406F0A3E4F0A3F0A37416E3
:10350300F0A3E4F090415074FFF0A37484F0A3E4BB
:10351300F0A3F0A374A5F0A374A0F0A374C3F0A365
:103523007446F0A3740AF0A3741FF0A3F0A3740607
:10353300F0A3E4F0A3F0A37416F0A3E4F0904161C8
:10354300F0A3F0A3F0A37406F0A3E4F0A3740CF0CB
:10355300A3749AF090416A7402F0A37407F0904147
:10356300807497F09041837404F0904188740FF055
:10357300A37477F09042007481F0A314F0A3E4F0F5
:10358300A374F0F090421074AAF0A374CCF0A37467
:10359300AAF0A374CCF0904218747EF0A3F090428A
:1035A3001C748AF090421E740AF0904220743EF01C
:1035B300A37431F0904223743EF0A37431F0A3E47A
:1035C300F0A3747FF09042287403F090422A74179A
:1035D300F090422D74DDF090422FE4F0A3740DF0CF
:1035E3009042337420F0904330E402379A904010B5
:1035F3007404F0A3E4F0A37464F09040187433F0FF
:103603009040217402F0A314F0A3F090402574823B
:10361300F0A3F090406E7401F0904100740BF0A39E
:1036230074D1F0A37402F0A3E4F0A37438F0A3748C
:103633006CF0A3E4F0A3F0A3F0A37480F0A3E4F090
:10364300A3F0904115F090411774F4F09041207469
:1036530083F0A304F090412474E8F0A374E2F0A390
:103663007483F0A37446F0A3740AF0A3741FF0A349
:10367300F0A37406F0A3E4F0A3F090412FF0A37439
:1036830083F0A304F0A3E4F0A3F0A374E6F0A3741F
:10369300E1F0A37483F0A37446F0A3740AF0A37457
:1036A3001FF0A3F0A37406F0A3E4F0A3F0A3741631
:1036B300F0A3E4F090415074FFF0A37484F0A3E40A
:1036C300F0A3F0A374E5F0A374E0F0A37483F0A374
:1036D3007446F0A3740AF0A3741FF0A3F0A3740656
:1036E300F0A3E4F0A3F0A37416F0A3E4F090416117
:1036F300F0A3F0A3F0A37405F0A3E4F0A37491F096
:10370300A37430F090416A7403F0A37498F090416D
:103713008014F09041837404F0904188740FF0A3F7
:103723007477F09042007481F0A314F0A3E4F0A343
:1037330074F0F090421074AAF0A374CCF0A374AAAE
:10374300F0A374CCF0904218747EF0A3F090421C66
:10375300748AF090421E740AF0904220743EF0A3E3
:103763007431F0904223743EF0A37431F0A3E4F07B
:10377300A3747FF09042287403F090422A7417F0E8
:1037830090422D74E8F090422FE4F0A3740DF09072
:103793004233E4F0904330F0A3F0A3F0904F0D7464
:1037A30003F0904F1004F0A3E4F0904F1C7407F063
:1037B300904F217468F0A374FFF0A37484F0904FCA
:1037C300267498F0904F347428F0A37411F0904F3E
:1037D300447425F0904F5F74E1F0D083D08222C00F
:1037E30082C083904184E4F0904F00740FF0904FB7
:1037F300187406F0900ADFE0603314603014602D13
:1038030014603524EF601714601414602014600EE4
:1038130024FE601924FE601524FE601C802890405D
:10382300307407F0A37412F0A37420801890403012
:10383300740BF0A3741080099040307409F0A374E2
:1038430002F0A37424F0D083D08222C082C083907C
:103853000ADFE0603814603514603214603A24EFF4
:10386300601714601414602514600E24FE601E2477
:10387300FE601A24FE602180339040307407F0A369
:1038830004F0A37420F0904F187406801E9040300B
:10389300740BF0A3741080099040307409F0A37482
:1038A30001F0A37424F0904F187402F0904184E463
:1038B300F0904F00740FF0D083D08222C082C08377
:1038C300904227E4F0904229F0904231F0D083D027
:1038D3008222C082C08390411774FFF090415CE460
:1038E300F0A3F0900ADFE0602414603614602C1417
:1038F300602224EF601714601414601114602324F1
:10390300FE601F24FE601424FE6009801B9041505A
:1039130074E9801390415074A5800C90415074E772
:10392300800590415074E8F0D083D08222C082C0D9
:1039330083907046E4F0D083D08222538C3F22746C
:10394300F112064B8A088B098C0A8D0B90B096787E
:10395300081201664003023A688A0C8B0D740878DA
:103963000C1205B9AA0C85080C8B0D8C0E8D0F74E7
:1039730018780C120313AE0C85080C8B0D8C0E8D6E
:103983000F7410780C120313AC0CE50875F0A5A4A2
:10399300F508E5F0F509E4F50AF50BEA75F030A44E
:1039A300F50CE5F0F50DE4F50EF50F7808790C123A
:1039B3000365EC75F0E8A4F50CE5F0F50D780879EE
:1039C3000C1203657408780812032DEA75F0A5A498
:1039D300FAABF08A0C8B0D7808790C120365EC7541
:1039E300F030A4F50CE5F0F50D7808790C120365B9
:1039F300EE75F0E8A4F50CE5F0F50D7808790C12F6
:103A03000365C008C009C00AC00BEC75F0A5A4FC8F
:103A1300ADF08C088D09E4F50AF50BEE75F030A4D2
:103A2300F50CE5F0F50D7808790C12036574087848
:103A330008120346D00FD00ED00DD00C780C7908A5
:103A4300120365EE75F0A5A4FEAFF08E088F09E4AE
:103A5300F50AF50B74107808120346780C790812EE
:103A63000365023B8378081202F285080C85090D71
:103A73007408780C1205B9AA0C85080C85090D8504
:103A83000A0E850B0F7418780C120313AE0C8508FD
:103A93000C85090D850A0E850B0F7410780C120323
:103AA30013AC0CE50875F0A5A4F508E5F0F509E4F9
:103AB300F50AF50B78081202F2EA75F030A4F50C5A
:103AC300E5F0F50DE4F50EF50F7808790C1203B562
:103AD300EC75F0E8A4F50CE5F0F50D7808790C1217
:103AE30003B574087808120313EA75F0A5A4FAABBA
:103AF300F08A0C8B0D7808790C1203B5EC75F03055
:103B0300A4F50CE5F0F50D7808790C1203B5EE7504
:103B1300F0E8A4F50CE5F0F50D7808790C1203B57F
:103B2300C008C009C00AC00BEC75F0A5A4FCADF039
:103B33008C088D09E4F50AF50BEE75F030A4F50C4D
:103B4300E5F0F50D7808790C12036574087808120E
:103B53000346D00FD00ED00DD00C780C7908120389
:103B6300B5EE75F0A5A4FEAFF08E088F09E4F50A53
:103B7300F50B74107808120346780C79081203B514
:103B8300AA0CAB0DAC0EAD0F7F080206B174F11297
:103B9300064B8A088B098C0A8D0B900ADFE024FE02
:103BA3007003023C5B14600E24E87003023C5B2448
:103BB300FE6003023D2190B09678081201665046DC
:103BC3008A0C8B0D7408780C1205B9AA0C85080CA5
:103BD300E50C75F091A4F50CE5F0F50DE4F50EF5A3
:103BE3000FEA75F02FA4F508E5F0F509E4F50AF5F9
:103BF3000B780C79081203657408780C12032DEA0C
:103C030075F091023CA878081202F285080C850928
:103C13000D7408780C1205B9AA0C85080CE50C750F
:103C2300F091A4F50CE5F0F50DE4F50EF50F780C25
:103C33001202F2EA75F02FA4F508E5F0F509E4F5B0
:103C43000AF50B780C79081203B57408780C120383
:103C530013EA75F091023D0890B096780812016658
:103C630050548A0C8B0D7408780C1205B9AA0C8574
:103C7300080CE50C75F00CA4F50CE5F0F50DE4F576
:103C83000EF50FEA75F09AA4F508E5F0F509E4F5E9
:103C93000AF50B780C79081203657408780C120383
:103CA3002DEA75F00CA4FAABF08A088B09780C792D
:103CB30008120365805E78081202F285080C8509F4
:103CC3000D7408780C1205B9AA0C85080CE50C755F
:103CD300F00CA4F50CE5F0F50DE4F50EF50F780CFA
:103CE3001202F2EA75F09AA4F508E5F0F509E4F595
:103CF3000AF50B780C79081203B57408780C1203D3
:103D030013EA75F00CA4FAABF08A088B09780C79E6
:103D1300081203B5AA0CAB0DAC0EAD0F805790B0D3
:103D23009678081201665016740878081205B9E5EA
:103D33000875F081A4AAF07B00E4FCFD8037C3E49E
:103D43009508F508E49509F509740878081205B98A
:103D5300E50875F081A4F508E5F0F509E4F50AF541
:103D63000B78081202F274087808120313AA08AB3E
:103D730009AC0AAD0B7F080206B174F112064B8A37
:103D8300088B098C0A8D0B740678081203138508B7
:103D93000C85090D850A0E850B0F74027808120332
:103DA30013780C79081203657403780812031378E7
:103DB3000C790812036574027808120313780C79DE
:103DC30008120365AA0CAB0DAC0EAD0F7F080206FB
:103DD300B174F512064BECFEEDFF900ADFE06022B2
:103DE30014601F14601C14601924EF6047146044AE
:103DF30014600F14603E24FE600824FE600424FE59
:103E0300703890B086C082C08390B0921207F88A4F
:103E1300828B83A982AA837B0012A7B6740412063D
:103E2300018A088B098C0A8D0BD083D08278081203
:103E3300014D7006EEFAEFFB80047A007B007F04ED
:103E43000206B174F112064B74FE1205EB85108263
:103E5300851183ECF0A3EDF0EAFEEBFF900ADFE0BF
:103E6300603014602D14602A14602724EF60171447
:103E7300601414601D14600E24FE601624FE60128C
:103E830024FE600E806E851082851183E0FAA3E024
:103E9300805F90B0921207F87404120637E0FCA317
:103EA300E0FD8E828F83A982AA837B0012A7B6745A
:103EB30004120601851082851183E0F8A3E0F9EE70
:103EC30028FEEF39FFEAF48E828F83F0EBF4A3F040
:103ED300ECF48E828F83A3A3F0EDF48E828F83A301
:103EE300A3A3F0851082851183E02404FAA3E034B0
:103EF30000FB80047A007B0074021206017F080233
:103F030006B174F312064B900ADFE0700302420914
:103F130014700302444A14700302468414700302AB
:103F230048BF24EF60241460211470030242091473
:103F3300601824FE700302444A24FE700302468480
:103F430024FE70030248BF024B5B9004007401F02F
:103F530090041FE4F090042004F07A007B00803288
:103F63008A088B09740278081205D8AC08AD097465
:103F7300122CF58274B13DF583780812047D742107
:103F83002CF58274043DF58378081204900AEA70D4
:103F9300010BC3EA9401EB9400A2D265D03340C075
:103FA300780079008020742328F58274B139F58371
:103FB300E493C0E0742528F582740439F583D0E0D6
:103FC300F008E8700109C3E89401E99400A2D265FE
:103FD300D03340D2780079008020742228F582748F
:103FE300B139F583E493C0E0742628F5827404396B
:103FF300F583D0E0F008E8700109C3E89401E9947F
:1040030000A2D265D03340D2900429E4F090042A70
:104013007441F0A3E4F0A3F0A3F090042E7440F0F5
:1040230090042F743AF090043074CBF09004317400
:1040330007F0A3E4F0900433F0900434F0900435D7
:10404300F0900436F0A3F09004387460F0A3E4F029
:1040530090043AF0A3F090043CF0A3F090043E7473
:10406300FFF090043F7418F0900440E4F090044192
:10407300F0900442F0900443F0900444F09004451F
:1040830074FFF0900446E4F09004477488F09004C1
:1040930048E4F0900449F090044A7408F0780079F9
:1040A300008020740228F58274B139F583E493C04B
:1040B300E0744B28F582740439F583D0E0F008E806
:1040C300700109C3E89404E99400A2D265D0334097
:1040D300D290044F7418F0900450E4F0900451749B
:1040E30055F0A3E4F0A3F0A3F09004557439F0A3C2
:1040F3007401F0A3E4F0A3F09004597402F0900467
:104103005A74FFF090045BE4F090045C7480F0A3B5
:10411300E4F090045EF0A3F0A37405F0A3E4F09040
:1041230004627431F0A3E4F0A3F0A3F0900466F00A
:10413300A3F0A3740FF0A3E4F090046AF0A3F0A338
:10414300745AF0A3E4F090046EF0A3F0A3742CF07F
:10415300A37401F090047274A3F0A37416F0900496
:1041630074740BF09004757403F07A007B00803252
:104173008A088B09740278081205D8AC08AD097453
:10418300F62CF58274AF3DF583780812047D7476BE
:104193002CF58274043DF58378081204900AEA70C2
:1041A300010BC3EA9403EB9400A2D265D03340C061
:1041B3007A007B0080328A088B0974027808120522
:1041C300D8AC08AD0974DE2CF58274AF3DF5837865
:1041D3000812047D74822CF58274043DF5837808FB
:1041E3001204900AEA70010BC3EA9403EB9400A251
:1041F300D265D03340C090048E745DF0A3745FF039
:10420300A374010244449004007401F090041FE479
:10421300F090042004F09004217477F0A37462F00A
:10422300A37427F0A37411F09004257409F090048B
:10423300267497F0900429E4F090042A7420F0A3E4
:10424300E4F0A3F0A3F090042E7440F090042F74D4
:104253003AF090043074DDF09004317407F0A3E475
:10426300F0900433F0900434F0900435F090043669
:1042730004F0A3E4F09004387460F0A3E4F0900435
:104283003A04F0A3E4F090043C7448F0A3E4F09003
:10429300043E747EF090043F7438F0900440E4F0E0
:1042A300900441F09004427402F090044314F0909F
:1042B3000444F090044574FFF0900446E4F0900445
:1042C30047F090044874FFF0900449E4F090044AE6
:1042D3007420F078007900802074F228F58274B09D
:1042E30039F583E493C0E0744B28F582740439F5FF
:1042F30083D0E0F008E8700109C3E89404E994006E
:10430300A2D265D03340D290044F7418F090045079
:10431300E4F0900451742DF0A3740CF0A3E4F0A323
:10432300F09004557439F0A37401F0A3E4F0A3F002
:10433300900459F090045A74FFF090045BE4F090F9
:10434300045C7480F0A3E4F090045E747FF0A374C3
:10435300EAF0A37402F0A3E4F09004627431F0A3D2
:10436300E4F0A3F0A3F0900466747DF0A374BFF0AF
:10437300A37408F0A3E4F090046AF0A3F0A3745AC2
:10438300F0A3E4F090046EF0A3F0A3742CF0A374F4
:1043930001F090047274CFF0A3740FF0900474745E
:1043A3000BF09004757403F07A007B0080328A0866
:1043B3008B09740278081205D8AC08AD0974C62CB1
:1043C300F58274AF3DF583780812047D74762CF57D
:1043D3008274043DF58378081204900AEA70010B95
:1043E300C3EA9403EB9400A2D265D03340C07A00B1
:1043F3007B0080328A088B09740278081205D8ACD6
:1044030008AD0974262CF58274B03DF58378081243
:10441300047D74822CF58274043DF58378081204BC
:10442300900AEA70010BC3EA9403EB9400A2D265ED
:10443300D03340C090048E741FF0A37445F0A3746E
:1044430002F0A3E4024B5A9004007401F090041F9D
:10445300E4F090042004F09004217477F0A37462D4
:10446300F0A37427F0A37411F09004257409F0905D
:1044730004267497F0900429E4F090042A7451F010
:10448300A3E4F0A3F0A3F090042E7440F090042F63
:10449300743AF090043074DDF09004317407F0A3A3
:1044A300E4F0900433F0900434F0900435F0900479
:1044B3003604F0A3E4F09004387488F0A3E4F09099
:1044C300043A04F0A3E4F090043C7448F0A3E4F04D
:1044D30090043E747EF090043F7438F0900440E4FE
:1044E300F0900441F09004427402F090044314F0FD
:1044F300900444F090044574FFF0900446E4F09077
:104503000447F090044874FFF0900449E4F09004E9
:104513004A7420F078007900802074C628F58274EC
:10452300B039F583E493C0E0744B28F58274043901
:10453300F583D0E0F008E8700109C3E89404E99436
:1045430000A2D265D03340D290044F7418F0900487
:1045530050E4F090045174E1F0A37404F0A3E4F088
:10456300A3F09004557439F0A37401F0A3E4F0A30D
:10457300F0900459F090045A74FFF090045BE4F057
:1045830090045C7480F0A3E4F090045E747FF0A365
:1045930074EAF0A37402F0A3E4F09004627431F0BF
:1045A300A3E4F0A3F0A3F0900466747DF0A374BFBA
:1045B300F0A37408F0A3E4F090046AF0A3F0A374EA
:1045C3005AF0A3E4F090046EF0A3F0A3742CF0A3CC
:1045D3007401F090047274CFF0A3740FF09004741C
:1045E300740BF09004757403F07A007B0080328AB8
:1045F300088B09740278081205D8AC08AD0974EA6F
:104603002CF58274AF3DF583780812047D74762C03
:10461300F58274043DF58378081204900AEA700168
:104623000BC3EA9403EB9400A2D265D03340C07A63
:10463300007B0080328A088B09740278081205D83F
:10464300AC08AD0974022CF58274B03DF58378088B
:1046530012047D74822CF58274043DF5837808126C
:1046630004900AEA70010BC3EA9403EB9400A2D20C
:1046730065D03340C090048E7473F0A374E8024B8A
:10468300559004007401F090041FE4F0900420049A
:10469300F09004217477F0A37462F0A37427F0A35D
:1046A3007411F09004257409F09004267497F09027
:1046B3000429E4F090042A7427F0A37403F0A3E41C
:1046C300F0A3F090042E7440F090042F7439F0900E
:1046D300043074DDF09004317407F0A3E4F0900427
:1046E30033F0900434F0900435F09004367403F002
:1046F300A3E4F090043874A0F0A3E4F090043A0427
:10470300F0A3E4F090043C7448F0A3E4F090043E7A
:10471300747EF090043F7438F0900440E4F0900409
:1047230041F09004427402F090044314F090044466
:10473300F090044574FFF0900446E4F0900447F0D1
:1047430090044874FFF0900449E4F090044A742004
:10475300F078007900802074AA28F58274B039F5C6
:1047630083E493C0E0744B28F582740439F583D055
:10477300E0F008E8700109C3E89404E99400A2D2C8
:1047830065D03340D290044F7418F0900450E4F095
:104793009004517480F0A3E4F0A3F0A3F0900455C7
:1047A3007439F0A37401F0A3E4F0A3F0900459F07A
:1047B30090045A74FFF090045BE4F090045C7480FE
:1047C300F0A3E4F090045E747FF0A374EAF0A374A2
:1047D30002F0A3E4F09004627431F0A3E4F0A3F0D8
:1047E300A3F0900466747DF0A374BFF0A37408F083
:1047F300A3E4F090046AF0A3F0A3745AF0A3E4F0E6
:1048030090046EF0A3F0A3742CF0A37401F0900451
:104813007274CFF0A3740FF0900474740BF09004CF
:10482300757403F07A007B0080328A088B09740266
:1048330078081205D8AC08AD09740E2CF58274B053
:104843003DF583780812047D74762CF58274043D5B
:10485300F58378081204900AEA70010BC3EA940303
:10486300EB9400A2D265D03340C07A007B00803243
:104873008A088B09740278081205D8AC08AD09744C
:104883001A2CF58274B03DF583780812047D748286
:104893002CF58274043DF58378081204900AEA70BB
:1048A300010BC3EA9403EB9400A2D265D03340C05A
:1048B30090048E743FF0A37417024B559004007458
:1048C30001F090041FE4F090042004F07900807755
:1048D300E9FA8A08750900740278081205D8850870
:1048E3000C85090D74E6250CF58274B0350DF5833E
:1048F300780812047D7421250CF5827404350DF5B6
:1049030083E508F0A3E509F0A3E50AF0A3E50BF0BE
:1049130074212AF582E434B1F583E493C0E074256D
:104923002AF582E43404F583D0E0F074202AF5827A
:10493300E434B1F583E493C0E074262AF582E434C9
:1049430004F583D0E0F0097401697084900429E4CC
:10495300F090042A744CF0A37424F0A3E4F0A3F0C1
:1049630090042E7440F090042F7439F09004307446
:10497300E8F09004317407F0A3E4F0900433F0906E
:104983000434F0900435F0900436741CF0A3E4F082
:104993009004387448F0A3E4F090043A04F0A3E4DC
:1049A300F090043C7448F0A3E4F090043E747EF06D
:1049B30090043F7438F0900440E4F0900441F09088
:1049C30004427402F090044314F0900444F0900401
:1049D3004574FFF0900446E4F0900447F0900448D7
:1049E30074FFF0900449E4F090044A7420F07800D6
:1049F3007900802074E228F58274B039F583E4935A
:104A0300C0E0744B28F582740439F583D0E0F008D4
:104A1300E8700109C3E89404E99400A2D265D03395
:104A230040D290044F7418F0900450E4F090045175
:104A3300740EF0A3E4F0A3F0A3F09004557439F0DE
:104A4300A37401F0A3E4F0A3F0900459F090045A86
:104A530074FFF090045B7401F090045C7480F0A325
:104A6300E4F090045EF0A37440F0A37401F0A3E4B7
:104A7300F09004627431F0A3E4F0A3F0A3F0900487
:104A830066F0A374C0F0A37403F0A3E4F090046A87
:104A9300F0A3F0A3745AF0A3E4F090046EF0A3F033
:104AA300A3742CF0A37401F09004727459F0A374EE
:104AB3000AF090047404F09004757403F07A007B98
:104AC3000080328A088B09740278081205D8AC0872
:104AD300AD0974322CF58274B03DF5837808120465
:104AE3007D74762CF58274043DF583780812049066
:104AF3000AEA70010BC3EA9403EB9400A2D265D0D7
:104B03003340C07A007B0080328A088B09740278B4
:104B1300081205D8AC08AD0974D22CF58274AF3DE8
:104B2300F583780812047D74822CF58274043DF5B4
:104B33008378081204900AEA70010BC3EA9403EB2A
:104B43009400A2D265D03340C090048E74F1F0A3D8
:104B53007403F0A3E4F0A3F07F060206B1029DC044
:104B630002A09F74F112064B74F81205EB74051240
:104B73000637E9F0A3EAF0A3EBF0ECFE851082859B
:104B83001183E4F0EEC0E07404120637D0E0F012B3
:104B9300611EE9F87440C398F8900B2EE0FCC39EA5
:104BA3004018900B2CE07B002403FA50010BC3E860
:104BB3009AE49BA2D265D0334066ECF5F0EE847B99
:104BC300002403FA50010BC3E89AE49BA2D265D0F8
:104BD30033404D7F00900B2EE0F8C39E5019851093
:104BE30082851183E07004D2F08002C2F0A2F0E467
:104BF3003333FFE89F8001EEC0E07401120637D023
:104C0300E0F0E02FF9125E6F7402120637EAF0A3A8
:104C1300EBF07402120637E0F8A3E0F9E8497005F7
:104C23007904024DFD851082851183E06004D20072
:104C33008002C2007401120637E0F5087509007896
:104C4300081207B07402120637E0FA900B2EE0F553
:104C530008EA8508F0A4FAA200E43325E0F8EA980C
:104C6300FCE5F09400FD7407120637E0F9A3E0FABF
:104C7300E92CF9EA3D8908AC08FDEFF87404120643
:104C830037E028FAA3E034008A82F583A3A3A3A321
:104C9300A3A3AA82AB831208AB74021206017402A7
:104CA300120637E0F8A3E0F58388827402F0900BD4
:104CB3002BE0C0E07402120637E0F8A3E0F5838826
:104CC30082A3D0E0F0900AE4780812046EE5085459
:104CD3001FFC90B07E780812047D900AE4780812D5
:104CE30003A27402120637E02405F8A3E03400F9A6
:104CF300E8FAE9FB8A828B83E054E0F0E04CF0743D
:104D030001120637E0C39E504A8A828B83E0D2E5C4
:104D1300F0851082851183E070398A828B83E0D21B
:104D2300E7F07402120637E0F8A3E0C82406F58220
:104D3300E438F5837405F014120637E0C0E074021A
:104D4300120637E0F8A3E0C82407F582E438F583B8
:104D5300D0E0F07401120637E0CEC39EFE851082C8
:104D6300851183E004F0900B2BE07003024DF2EE0B
:104D73007047851082851183E06401703C900AE4DA
:104D8300780C12046E900B2CE0F508E4F509F50A93
:104D9300F50B780C7908120283E5084509450A45A5
:104DA3000B700F8A828B83E0D2E6F0900B1FE00436
:104DB3008023900B1FE0048035EE70338A828B834F
:104DC300E0D2E6F0E0D2E5F0900B1FE0F885108228
:104DD300851183E028C0E07402120637E0F8A3E0EF
:104DE300F5838882A3A3A3D0E0F0900B1FE4F0EE39
:104DF3006003024BD6125DA2790074081206017F8C
:104E0300080206B174F112064B74F91205EB804BDC
:104E13007403120637E0F508A3E0F509750A007874
:104E2300081207AC7404120637E0FA7910127D09F0
:104E33007403120601E0FCA3E0FDA908AA09AB0A6A
:104E4300900B1DE0F8A3E0F58388821206497403F2
:104E5300120637E0FAA3E0FB124B6374011206411A
:104E6300AA10AB111263BB8A088B09AE08AF09EE17
:104E73004F700A74071206017F080206B17401120B
:104E83000637E0FAA3E0FB124B607403120637EA1D
:104E9300F0A3EBF07403120637E0F8A3E0F9E84956
:104EA30060D18E828F83A3A3A3A3A3E0541FF50E27
:104EB3007401120637E0F508A3E0F5097401120640
:104EC30037E0900B25F0750B008005740BF0050B94
:104ED300851082851183E0650B7003024E137C00FD
:104EE300E50B700DE0C394024007750A067C02804F
:104EF30020900B2EE0F8FA7B00C3E5089AE50994AD
:104F0300004004880A800AA808A909120560EAF586
:104F13000AE50B6004D2F08002C2F0FAE50E2A54CF
:104F23001F25E0F874FA28F8E4340BF97405120627
:104F330037E8F0A3E9F0AE0A8E0C750D00780C1279
:104F430007B07407120637E0F8A3E0F5838882E020
:104F53002CF8A3E034008882F583A3A3A3A3A3A31F
:104F6300AC82AD83A2F0E43325E0F8E498F895E051
:104F7300F9900B2EE0F50CEA850CF0A4FA85F00FFE
:104F8300AB0F7405120637E02AFAA3E03BFBEA28CD
:104F9300FAEB39FB1208AB7402120601C3E5089E53
:104FA300F508E5099400F5097405120637E0F8A33E
:104FB300E0F5838882E0F8A3E0F988828983A3A3DC
:104FC300A3A3A3E0A2E6888289834003024ECE74A2
:104FD30015024ED074F112064B74FD1205EBEAFE76
:104FE300EBFF900B28E06403601FEE241AF582E4C4
:104FF3003FF583E0F8A3E0F5838882A982AA837B47
:1050030000127050400302510990B07E78081204D8
:105013007D900AE878081203A290040CE004F09053
:105023000B2AE0F874C228F582E434B0F583E493E4
:10503300F890040CE0F9E8C3995002E8F08E828FEF
:1050430083A3A3A3A3A3A3E0F8A3E0F9900408E038
:10505300FAA3E0FBC3E89AE99BA2D265D0335008D8
:105063007402120637E48011900408E0FAE8C39A48
:10507300C0E07402120637D0E0F0900AF0E075F059
:1050830003A4F8A9F07402120637E0FAE82AF50837
:10509300E439F509740278081205C9E508900AF0A5
:1050A300F0EE241AF8E43FF9900B28E064037060F3
:1050B3007402120637E0C0E088828983E0FAA3E035
:1050C300CA24FFF582EA34FFF583D0E0F0888289B1
:1050D30083E0F508A3E0F509750A00E50824FFF568
:1050E30008E50934FFF50978081207ACEE241CF52E
:1050F30082E43FF583E024FDFA7910127D097403FD
:1051030012060112731474031206017F080206B11A
:1051130088828983E02403F8A3E03400F9851082B0
:10512300851183E8F0A3E9F07A0D7B0B12A96BE4F8
:10513300900B24F0900406E0F8A3E0F5838882E066
:1051430064147014900AFCE0C0E0900406E0F8A335
:10515300E0F5838882D0E0F0851082851183E0F842
:10516300A3E0F5838882E0A2E740030253DE8510C3
:1051730082851183E0F8A3E0F5838882A3E06022AF
:1051830024FD70030252BF1470030252FA14700319
:105193000253DE1470030253001470030253B2026D
:1051A30053B5750C00750D00750E00750F007E016B
:1051B300900406E0F8A3E0F5838882E064106003BE
:1051C3000253B5851082851183E0F8A3E0F5838847
:1051D30082E0541FF8900406E0F9A3E0F583898286
:1051E300A3A3A3A3A3E0541F6860030253B57A05E6
:1051F3007B0B12A96BE4900B23F0900406E0F8A359
:10520300E0F5838882A3A3A3E07019900AF2E02E4D
:10521300F0A3E03400F0900406E0F8A3E0F58388FF
:10522300827408F0900AF1E075F003A4F8A9F08500
:105233001082851183E0FAA3E0CA2406F582E43ADA
:10524300F583E0FAE82AF508E439F50974027808E9
:105253001205C9E508900AF1F0851082851183E0F3
:10526300F8A3E0C82408F582E438F583E0900B4DF9
:10527300F07408780C120346EEF8851082851183CA
:10528300E028FAA3E034008A82F583A3E0F508E47A
:10529300F509F50AF50B780C79081203650EEEC3D0
:1052A300940540CD780C1207A8900406E0FAA3E019
:1052B300FB12664474041206010253B5900406E01F
:1052C300F8A3E0F5838882E0641060030253B57AA3
:1052D300057B0B12A96BE4900B23F0900406E0F816
:1052E300A3E0F58388827408F0900AF2E02401F0C9
:1052F300A3E034000253AF1265640253B5851082F4
:10530300851183E02402F508A3E03400F509AA0817
:10531300FB12779A40030253B57908125E6F8A0A2B
:105323008B0BAE0AAF0BEE4F70030253B58E828F19
:1053330083A3A3A3A3A3A37406F0750A07750B00A5
:10534300780A1207B0AC08AD09EE2407FAE43FFB74
:105353001208AB7402120601851082851183E0F8EE
:10536300A3E0F5838882E0541FFAEE2405F8E43FB6
:10537300F988828983E054E0F0E04AF0E0D2E7F074
:105383008E828F83A3AA82AB83900B73E08A828B76
:1053930083600C7401F088828983E0D2E68001E4A3
:1053A300F0E4900B73F08E828F837413F0800343C9
:1053B3008710851082851183E0F8A3E0F583888246
:1053C300E0A2E6400302557379001261EAE9600343
:1053D3000255737908125E6F025573EE241CFE505A
:1053E300010F8E828F83E024F9F985108285118362
:1053F300E0FAA3E0FB126362405E8E828F83E024B7
:10540300F8FA851082851183E0F8A3E0F58388829A
:10541300E0F9125F5A8A088B09EA450970030251C1
:10542300098E828F83E024F9F50AA3E034FFF50B9C
:10543300780A1207B07402120637E0FCA3E0FDEA13
:105443002405FAE43509FB1208AB74021206018540
:1054530008828509837407F0851082851183E0F83B
:10546300A3E0F5838882E0A2E64003025573790046
:105473001261EAE960030255737908125E6F8A08C4
:105483008B09AE08AF09EE4F70030255731262D950
:105493008E828F83A3A3A3A3A3A3E4F08E828F831F
:1054A300A3A3A3A3A3A3A3EDF08E828F83A3A3A39C
:1054B300A3A3A3A3A3ECF08E828F83A3A3A3A3A38D
:1054C300A3A3A3A3EBF08E828F83A3A3A3A3A3A37E
:1054D300A3A3A3A3EAF07402120637E0C0E0EE240C
:1054E3000BF582E43FF583D0E0F0900408E02496C6
:1054F300C0E0EE240CF582E43FF583D0E0F0900B9E
:1055030048E0543FF9900B78E0F8900B79E02829B4
:10551300C0E0EE240DF582E43FF583D0E0F0EE2405
:1055230005F8E43FF9E8FAE9FB900AEC780812047D
:105533006EE508541FF88A828B83E054E048F0E05C
:10554300D2E7F08E828F83A3A882A983900B2BE0EE
:10555300640288828983700C7401F08A828B83E0F1
:10556300D2E68001E4F08E828F837413F0125DA281
:10557300124E07900406E0F8A3E0F5838882E0F872
:10558300851082851183E0F9A3E0F5838982E054D5
:10559300606420704BE8900AFCF0900406E0F8A3E6
:1055A300E0F58388827414F0900B2AE0F5087509FE
:1055B30000740278081205D874962508F58274AF32
:1055C3003509F5831207F879017C897D5B7A0D7BB8
:1055D3000B1299FF74041206017401900B248018B6
:1055E3007414687014900AFCE0C0E0900406E0F8BC
:1055F300A3E0F5838882D0E0F0851082851183E0F3
:10560300F8A3E0F5838882E0A2E640031273EF1269
:1056130060198B09EA45097003025106125DA20263
:10562300510974F112064B74FE1205EB8510828545
:105633001183EAF0A3EBF0900C8CE060030258BFF7
:10564300900B28E0640170030258BF900406E0F851
:10565300A3E0F5838882E024F2600E24FE600A242E
:10566300FC7003025710025753900B23E0600302B0
:1056730058C412AE6F8A0C8B0D900B2AE0F5087597
:105683000900740278081205D8AA08AB09900B29FF
:10569300E0F508750900740278081205D874F72537
:1056A30008F58274AD3509F583780812047D749684
:1056B3002AF58274AF3BF583780812038BC008C0C8
:1056C30009C00AC00BE4F50EF50F74A62AF582741F
:1056D300AF3BF583780812047D780C7908120283B6
:1056E300D00FD00ED00DD00C780C7908120365784A
:1056F3000C1207A879017C4F7D5A7A057B0B12990E
:10570300FF74041206017401900B23803F900B2455
:10571300E060030258C4900B2AE0F5087509007491
:105723000278081205D874962508F58274AF3509F6
:10573300F5831207F879017C897D5B7A0D7B0B1267
:1057430099FF74041206017401900B24F00258C4EB
:105753001260198A088B09AE08AF09EE4F70030275
:1057630058BA8E828F83A3E07003025872900B287D
:10577300E0640370030258728E828F83A3A3A3A3F2
:10578300A3E0A2E6400302586A900B28E0146006E7
:105793001460320258798E828F83740EF0900B2935
:1057A300E0F508750900740278081205D874F72526
:1057B30008F58274AD3509F5831207F879017C0188
:1057C3007D5A0258578E828F837410F012AE6F8AFF
:1057D3000C8B0D900B2AE0F508750900740278080C
:1057E3001205D8AA08AB09900B29E0F50875090042
:1057F300740278081205D874F72508F58274AD355C
:1058030009F583780812047D74962AF58274AF3BF8
:10581300F583780812038BC008C009C00AC00BE4E3
:10582300F50EF50F74A62AF58274AF3BF58378085D
:1058330012047D780C7908120283D00FD00ED00D9C
:10584300D00C780C7908120365780C1207A879013B
:105853007C4F7D5A7A057B0B1299FF740412060163
:105863007401900B23800E8E828F83740680068EC4
:10587300828F837405F0900406EEF0A3EFF0EE241C
:1058830005F582E43FF583E054C06480700E126036
:10589300198B09EA45096004E0D2E5F08E828F8313
:1058A300A982AA837B001270B8E064057013EEFA34
:1058B300EFFB1260CA800A12731480057902129AF0
:1058C300EC900418E064016003025995900B22E008
:1058D300C3940A5003025968900B20E0F8A3E0F93F
:1058E300900B22E0FA7B0012055888088909AA0860
:1058F300AB09900B20E4F0A3F0900B22F090040A84
:10590300E0F8A3E0F9C3EA98EB99A2D265D033504B
:105913000890040AEAF0A3EBF090040CE014F0E022
:10592300707090040AE0646A7003A3E0F470099055
:105933000408EAF0A3EB800F90040AE0F8A3E0F96F
:10594300900408E8F0A3E9F090040AE4F0A3F090CF
:105953000B2AE0F874C228F582E434B0F583E493AB
:1059630090040C802C904040E0F83395E0F9900BC4
:1059730020E028F0A3E039F090042EE0F83395E01E
:10598300F9900B20C3E098F0A3E099F0900B22E08C
:1059930004F0900B28E06401700812731490B0AE09
:1059A300800390B0A21207F879017C007D00740493
:1059B300120637E0FAA3E0FB1299FF740412060102
:1059C30074021206017F080206B174F712064B90A7
:1059D3000406E0F8A3E0F5838882A3A3A3A3A3E0CE
:1059E300A2E6400F1260198B09EA45096005125DB2
:1059F300A280061273EF1273147F020206B174F7CA
:105A030012064B900406E0F8A3E0F5838882740F36
:105A1300F0900B2AE0F50875090074027808120566
:105A2300D874962508F58274AF3509F5831207F803
:105A330079017C4F7D5A1299FF7404120601740197
:105A4300900B23F01273147F020206B174F712064F
:105A53004B900C8CE06030900B2AE0F50875090040
:105A6300740278081205D874962508F58274AF3548
:105A730009F5831207F879017C4F7D5A1299FF7457
:105A830004120601025B847A057B0B12A96BE49076
:105A93000B23F0900406E0F8A3E0F5838882E0642A
:105AA300106003025B84900AF4E02401F0A3E03465
:105AB30000F079011276A0900406E0F8A3E0F583E4
:105AC3008882A3A3E004F0900406E02402F8A3E094
:105AD3003400F988828983E0FA900B2DE0C39A9011
:105AE3000406E04003025B77FAA3E0F5838A82A30E
:105AF300A3A3A3A3E0A2E75034900406E0FAA3E033
:105B0300CA2406F582E43AF583E06406701F900424
:105B130006E0F8A3E0F58388827409F01261A81205
