:020000040000FA
:030000000200D12A
:03000B0002843933
:03001B0002A643F7
:03002300020FD9F0
:03005B0002A6EB0F
:1000630002983500000080FB1200E0B90003020093
:10007300CBE47913780CB800028004F709D8FCE4C8
:10008300900522787779098002F0A3D8FCD9FA7811
:100093001290012F7A01BA00028007E493A3F608B5
:1000A300DAF97A007B05900130782379018015E431
:1000B30093A3AD82AE838A828B83F0A3AA82AB83A0
:1000C3008D828E83D8E9D9E712A69712006675D080
:1000D3000075817E75100075110502006BC082C02A
:1000E30083907054748AF0790912B20E793812B180
:1000F300DC9070607409F0E587A2E64004D2F080DA
:1001030002C2F0A2F0E433F5129070077418F012F3
:10011300393D75860075A84075980075A0009070EC
:100123000C7401F0E512F9D083D0822201010000A2
:1001330000013FF03FF001FD0B6AFF6AFF025439F3
:10014300090014171D0001020364016F6F6F6FE450
:10015300936670130874019366700C0874029366B7
:100163007005087403936622C008C3E49396F508E8
:10017300087401939642080874029396420808741F
:100183000393964208A2D265D033E5087001D3D019
:100193000822C3E7960809E7960809E7960809E7DE
:1001A3009622C3E09608A3E09608A3E09608A3E08E
:1001B3009622C008C3E49396F50808740193964207
:1001C30008087402939642080874039396450870CE
:1001D30001D3D00822BB0102E722C082C0838982F7
:1001E3008A83BB0003E08002E493D083D08222BBE6
:1001F300000EC082C0838A838982F0D083D082229A
:10020300BB0101F722080808EAC0E0EBC0E086F072
:10021300E7A4FA180986F0E7A42AFA180986F0E792
:10022300A42AFA180986F0E7A42AFA1986F0E7A4A3
:10023300FBE5F02AFA190886F0E7A42BFBE5F03A70
:10024300FA190886F0E7A42BFBE5F03AFA18180927
:1002530086F0E7A4C5F02BFBE43AFA1908E7C5F0EA
:10026300C6A426F6E5F03BFBE43AFA1886F0E7A4C9
:10027300F6E5F00826F6E43B08F6E43A08F6D0E0A3
:10028300FBD0E0FA22E4CFC0E0E4CEC0E0E4CDC08E
:10029300E0E4CCC0E075F020E626F608E633F60885
:1002A300E633F608E633F6181818EC33FCED33FDA5
:1002B300EE33FEEF33FFC3EC9709ED9709EE970991
:1002C300EF97191919400FFFEC97FC09ED97FD09FA
:1002D300EE97FE191906D5F0BFECF709EDF709EE15
:1002E300F709EFF7191919D0E0FCD0E0FDD0E0FED3
:1002F300D0E0FF22E4C396F608E496F608E496F607
:1003030008E496F622C6F4C608C6F4C608C6F4C6C0
:1003130008C6F4C6226017080808C6A2E713C61861
:10032300C613C618C613C618C613C6D5E0E922609D
:1003330016080808C6C313C618C613C618C613C6BC
:1003430018C613C6D5E0EA22700908080822601609
:10035300181818C6C333C608C633C608C633C6083A
:10036300C633C6D5E0EA22E627F60809E637F608DB
:1003730009E637F60809E637F622E026F608A3E091
:1003830036F608A3E036F608A3E036F622E4932611
:10039300F60874019336F60874029336F60874036C
:1003A3009336F622E026F008A3E036F008A3E03601
:1003B300F008A3E036F022C3E697F60809E697F6BD
:1003C3000809E697F60809E697F622C3E0C696F60B
:1003D30008A3E0C696F608A3E0C696F608A3E0C60F
:1003E30096F622E056F608A3E056F608A3E056F682
:1003F30008A3E056F622E49356F60874019356F6E2
:100403000874029356F60874039356F622E056F0E6
:1004130008A3E056F008A3E056F008A3E056F02244
:10042300E647F60809E647F60809E647F60809E647
:1004330047F622E046F008A3E046F008A3E046F0C2
:1004430008A3E046F022E667F60809E667F608091E
:10045300E667F60809E667F622E49366F608740190
:100463009366F60874029366F60874039366F6229D
:10047300E0F608A3E0F608A3E0F608A3E0F622E41A
:1004830093F608740193F608740293F608740393C1
:10049300F622E6F008A3E6F008A3E6F008A3E6F0E8
:1004A30022E0FAA3E0FBA3E0FCA3E0FD22EAF0A331
:1004B300EBF0A3ECF0A3EDF022E0F8A3E0F9A3E066
:1004C300FAA3E0FB22E8F0A3E9F0A3EAF0A3EBF040
:1004D30022CAC0E0E6F0A308DAFAD0E0FA22CAC0E2
:1004E300E0E0A3C582CCC582C583CDC583F0A3C597
:1004F30082CCC582C583CDC583DAE6D0E0CA22CAE1
:10050300C0E0E493A3C582CCC582C583CDC583F087
:10051300A3C582CCC582C583CDC583DAE5D0E0CA45
:1005230022C3E498F8E499F91205658026C3E49A96
:10053300FAE49BFBE920E7E9120565E498F8E499FE
:10054300F922C3E498F8E499F9120565E498F8E40C
:1005530099F9C3E49AFAE49BFB22EB20E7CFE92065
:10056300E7E0B90010BB0008E88AF084F8AAF0229B
:10057300E4FBC8FA22EB70227B10C833C8C933C925
:10058300335007C39AC3DBF280069A50012ADBEA91
:10059300C833F4C8C933F4C9FA2275F008E4C83380
:1005A300C8C933C933C99AC99B5004C92AC93BD5A1
:1005B300F0ECFBC833F4C8E4C9FA22600D08C6A204
:1005C300E713C618C613C6D5E0F322600C08C6C3EA
:1005D30013C618C613C6D5E0F422700422600D18A2
:1005E300C6C333C608C633C6D5E0F4182225101097
:1005F300AF08F510400C15118008F51040021511D5
:10060300D2AF2200C0D0251010AF08F510500C0552
:10061300118008F51050020511D2AFD0D022251059
:10062300F58210AF08F510400C15118008F5104045
:10063300021511D2AF851183222510F582E43511FD
:10064300F583222510FAE43511FB222510FCE4354D
:1006530011FD22E4732510C582C0E0E51134FFC506
:1006630083C0E0E510C3958224F910AF0885831198
:100673008582108008858311858210D2AFCEF0A3C6
:10068300E520F0A37808E608F0A3DEFAEFF0A3E58F
:100693008124FBF8E608F0A3E608F0A30808E608BF
:1006A300F0A3E608F0A315811581D0E0FED0E0F8B1
:1006B30015811581E8C0E0EEC0E022851183851025
:1006C30082E0A3FEE0A3F5207808E0A3F608DFFAB2
:1006D300E0A3FFE0A3C0E0E0A3C0E0E0A3C0E0E04C
:1006E300A3C0E010AF08858210858311800885823E
:1006F30010858311D2AFD083D08222C0D02510C5FC
:1007030082C0E0E51134FFC583C0E0E510C39582E4
:1007130024F310AF08858311858210800885831127
:10072300858210D2AFC8F0A3E9F0A3EAF0A3EBF0FF
:10073300A37908E709F0A3D8FAECF0A3EDF0A3EE50
:10074300F0A3EFF0A3D0E0F0A3D0E0F0A3D0E0F06B
:10075300A3E520F0A3E5F0F0A322851183851082A1
:10076300E0C0E0A3E0F9A3E0FAA3E0FBA37808E08C
:10077300F608A3DFFAE0FCA3E0FDA3E0FEA3E0FF9D
:10078300A3E0C0E0A3E0C0E0A3E0F5D0A3E0F52040
:10079300A3E0A3F5F010AF088583118582108008CC
:1007A300858311858210D2AFD082D083D0E0F8D078
:1007B300E0327404800A74038006740280027401B8
:1007C300C0E0F404120621D0E01204D422740480A1
:1007D300087403800474028000CCC0E0EDC0E0E53F
:1007E30010C39CCCAD1150011D10AF068C108D11A0
:1007F30080068C108D11D2AF1204E1D0E0FDD0E061
:10080300FC2274048000CCC0E0EDC0E0E510C39C82
:10081300CCAD1150011D10AF068C108D1180068CCC
:10082300108D11D2AF120502D0E0FDD0E0FC22D032
:1008330083D082CCC0E0E493A3600612085C1470FA
:10084300FAE493A3600612087B1470FAD0E0FCE488
:1008530093A3C0E0E493C0E022C0E0E493A3D39C5D
:100863005010E493A3C39C400AD0E0D0E0D0E00250
:10087300084FA3A3A3D0E022C0E0E493A36C7009C4
:10088300D0E0D0E0D0E002084FA3A3D0E02274F878
:10089300120658E9FEEDF8ECF9E87003E96011E996
:1008A3006001088A828B83EEF0A3D9FB18E870F706
:1008B3007F010206BE74F8120658740812063CE063
:1008C300FEA3E0F508EEFEE5087003EE602DEE6092
:1008D300020508EAF8EBF98C828D83E0888289832C
:1008E300F08C828D83A3AC82AD8388828983A3A895
:1008F30082A983DEE21508E50870DC7F010206BEEB
:1009030074F7120658EAFEEBFFEDF8ECF508E87011
:1009130003EC6033EC600108EEFCEFFD7409120692
:100923003CE0F9A3E0FAA3E0FB1201D88C828D83AB
:10093300F0E9240109E43AFAA3AC82AD831508E592
:100943000870E618E870E2EEFAEFFB7F020206BEDB
:1009530074F8120658E5A85480FEC2AF12AD2CEA13
:10096300F8EBF9ECFAEDFB9005A91204C87A597B70
:100973004012A87E9005AD1204B0EE42A87F01029A
:1009830006BE74F51206588A088B098C0A8D0B90E3
:1009930005AD78081203CEAA08AB09AC0AAD0B1259
:1009A300ADB4123D8A8A088B098C0A8D0B9005A978
:1009B300780812037DAA08AB09AC0AAD0B7F0402C9
:1009C30006BEC082C08390059CE0F8742C28F58293
:1009D300E43405F583E0F8A2E55004790680257434
:1009E3000F58F8904030E0A2E7E8500590403B8074
:1009F30003904033F0122886E9F8A2E750049041AF
:100A030080F07900D083D082221237EF0209C51219
:100A1300385B0209C574F512065890400FE0FEA238
:100A2300E2504690401CE0640F703E12095390055B
:100A330055E060357AE77B0712AF5E9007ECE4F090
:100A43009005AD1204BC9007ED1204C87AE77B074A
:100A530080147A4D7B4012A87E12ADF69007D11216
:100A630004B07AC57B0712AF9590400DE0A2E04039
:100A730003020D09904029E0F8C4135407FE7407DC
:100A83006E7002E0FE741F5814602324F170030299
:100A93000C6D147003020C45147003020C0C1470DB
:100AA30003020BC024FE7003020C94020CF9EE60E7
:100AB300B8E01EEEFC79C17A067B0012B1A4742162
:100AC30065136006742365137020904F30E0900522
:100AD30005F0904F31E0900506F0904F32E090051D
:100AE30007F0904F33E0900508F07421651360061A
:100AF300743265137005904002E4F0904007E0C241
:100B0300E0F07AC57B0712AF5E9007CAE4F0900766
:100B1300E174C1F0A37406F0E51354F86428704837
:100B2300A374C1F0A37406F0EEA3F0A3E4F0904025
:100B330040E0F83395E0F9900533E0FA3395E0FBB4
:100B4300E8C39AF8E99BF99007CFE8F0A3E9F0909E
:100B53000504E07003020A557A507B4012AFFE127F
:100B6300B2F2123B9D020A5F900547E0F874C12878
:100B7300F8E43406F99007E3E8F0A3E9F0900547B9
:100B8300E0F8EEC398500A9007E5E4F0A3F0020AF8
:100B93006CE0F8EEC3989007E5F0A3E4F07AC57B28
:100BA3000712AF95743265136009743365136003DC
:100BB300020A6C7A1C7B0812AB28020A6C900504AB
:100BC300E06003020CF974036E6003020CF99040B9
:100BD30029E0F9540FF9740859F42401C949F9F5C6
:100BE300083395E0F509740878081205BEE5089006
:100BF30007D4F0E99007D3F0904029E09007D2F0B2
:100C0300904029E09007D18084900504E0700302AE
:100C13000CF974026E6003020CF9904029E090070E
:100C2300D2F0904029E09007D1F07808120473AA1B
:100C330008AB0912B2F2123B9D9007D11204B00225
:100C43000A6C74016E6003020CF9E0F83395E0F965
:100C5300900533E0FA3395E0FBE8C39AF8E99BF992
:100C63009007CFE8F0A3E9020B9074036E600302D0
:100C73000CF99007CEE4F0904029E09007CDF09076
:100C83004029E09007CCF0904029E09007CB020B7D
:100C930090EE7003020A6C1209537AF17B0712AFCC
:100CA3005E9007F6E4F0904029E0FCF83395E0F914
:100CB300900533E0FA3395E0FBE8C39AF8E99BF932
:100CC3009007FBE8F0A3E9F0900535E0F8ECC39852
:100CD300A2D265D0334004780180027800E89007FF
:100CE300FDF09005AD1204BC9007F71204C87AF129
:100CF3007B0712AF951EEE7003020A6CF990402930
:100D0300E0D9FA020A6C7F040206BE74F512065893
:100D13008047EEC394045003020FCE7E0790059ADA
:100D2300C3E09407A3E09400500590059AE0FEEE1B
:100D3300F890059AC3E098F0A3E09400F09040295E
:100D43007462F0900544E0904029F0EEC43354E01F
:100D5300F0900543E0904029F090402DE0FE904054
:100D63002CE060027EFFE51424F6600C1460391455
:100D73007003020F41020FD490059AE0F8A3E0F943
:100D8300E849708E75140B7411651360067413654E
:100D930013700590053D8003900541E0F8A3E0F949
:100DA30090059AE8F0A3E9F090059AE0F8A3E0F93A
:100DB300E8496003020E88EEC3940F5003020FCE7E
:100DC300900545E060629040297441F0741CF090F6
:100DD3000546E0F508900545E0F87408C398F890D7
:100DE3004200E0A2E7750AFF750B00E8780A501885
:100DF3001205DDE50A5208750A80750B009005455A
:100E0300E0780A1205BE80161205BEE50A5208757F
:100E13000A01750B00900545E0780A1205DDE50A25
:100E23004208E508904029F0904012E0540E640611
:100E3300704D90054FE06047E0FB74075B60047AF8
:100E43000480027A0074072B131313541FFB7401DD
:100E53002BC43354E04401904029F0900554E04AF8
:100E6300904029F07A008012EAF8745028F582E461
:100E73003405F583E0904029F00AEAC39B40E97505
:100E8300140C020D5CEEC394045003020FCE7EFFDC
:100E930090059AC3E094F8A3E09407501490059A40
:100EA300E0F508A3E0F509740378081205CEE50818
:100EB300FEEE602B8E08750900740378081205DDB9
:100EC30090059AC3E09508F0A3E09509F0904029B6
:100ED3007462F0900544E0904029F0EE020D5390C7
:100EE3000543E0F50890059AE0FEE4F0A3F0904096
:100EF300297441F0741CF07408C39EF8904200E01A
:100F0300A2E7750AFF750B00E8780A50151205DD94
:100F1300E50A5208750A80750B00EE780A1205BEC1
:100F230080131205BEE50A5208750A01750B00EE1F
:100F3300780A1205DDE50A4208E508020D58EEC3FA
:100F4300940B5003020FCE7F0090059AE0F8A3E0C4
:100F5300F9E84970027F01900598C082C08390052B
:100F63009AE0F8A3E0F9D083D082E0C398F8A3E035
:100F730099F974FD2EFEC398E4994006E8FEEFD27A
:100F8300E1FFEE603790402974E1F074012EF0EF39
:100F9300F0EEFC90059AE024BDF508A3E03405A922
:100FA30008FA7B0012B1C0EEF890059AE028F0A38E
:100FB300E03400F0EFA2E14003020D5C75140D90E4
:100FC30040097401F09040077440F0904028740485
:100FD300F07F040206BEC0E074F21206FEE51414AC
:100FE30070030212AF14700302126B14604024FEEC
:100FF300604724FE604E24FE60551470030210B651
:101003001470030210B61470030210B614700302B6
:1010130010BC14700302118C1470030211BE1470FF
:10102300030211E0904006E4F0A3F00212B29040F4
:1010330006E4F07514040212B2904006E4F075144D
:10104300060212B2904009E4F07514080212B2903D
:10105300400FE09040287403F0904006E4F0A3743E
:1010630008F075140A904010E0540F6409700E9054
:10107300402974E1F07402F014F07411F0120D0EB3
:10108300904002740DF01209537AFE7B0712AF5E93
:10109300E51324EE60031470139005A1E0F89005A6
:1010A3005EE068600790080374088004900803E416
:1010B3000211AA120D0E0212B290400FE090401CD2
:1010C300E060030212B2904009E4F0E51324EE60FD
:1010D3003414603124F3601524FE600924F2604760
:1010E300146017804D9007CAE064F07008120A126A
:1010F3001212B78040121365803B900560E09005A3
:1011030098F0A3E4F0120A121212B77A1C7B0812A9
:10111300AB289005561204BC9008201204C87A1C10
:101123007B0812AA70800E900560E0900598F0A3EA
:10113300E4F012135474306513601774316513604F
:101143001174326513600B74336513600590059752
:10115300E4F01209537A087B0812AF5E90080DE49D
:10116300F074126513600C741365136006743165B3
:101173001370037402F09005AD1204BC90080E12B4
:1011830004C87A087B08021266904006E4F0A3F0D4
:10119300904002740DF07514001209537AFE7B0718
:1011A30012AF5E900803E4F09005AD1204BC900802
:1011B300041204C87AFE7B0702126690400CE0A278
:1011C300E0506F9040097403F0904006E4F0A3747C
:1011D30040F0904002740DF0751410805590400F4C
:1011E300E0FE74035E6003120953EEA2E0501F7A1F
:1011F300087B0812AF5E90080DE4F09005AD120471
:10120300BC90080E1204C87A087B0812AF95EEA2B0
:10121300E1501F7AFE7B0712AF5E900803E4F09063
:1012230005AD1204BC9008041204C87AFE7B0712B1
:10123300AF9590400DE0F8904007E0585408606F78
:10124300E0C2E3F01209537A127B0812AF5E9008F2
:1012530017E4F09005AD1204BC9008181204C87A84
:10126300127B0812AF95804790400DE0A2E79040B3
:101273000BE05004D2E78002C2E7F0A3E0A2E090C3
:10128300400AE05004D2E08022C2E0F0900505E07D
:10129300904F30F0900506E0904F31F0900507E055
:1012A300904F32F0900508E0904F33F0120A187F08
:1012B3000102075D74F8120658743365137004D283
:1012C300F08002C2F0743265137004D2F18002C25E
:1012D300F1A2F1E433F9A2F0E433F8900555E048C4
:1012E30049FE60069040097404F0900534E0904292
:1012F3002CF01238CC904232E0C2E6F090402874D1
:1013030003F09040027409F0751401EE90400760F9
:1013130004744180027401F0904006E4F07F0102FE
:1013230006BEC082C0839040027405F07407F012B9
:101333000A0C90402EE4F0A37480F07514099040D9
:1013430007E4F090400604F0904004E0D083D0829C
:1013530022C082C083121365904002E4F0D083D090
:101363008222C082C083904007E4F0904006F09050
:1013730040027405F0904310E4F0751400D083D05C
:10138300822274F8120658E5A85480FEC2AF751481
:1013930003904006E0D2E0F0800B79021288A4EEBD
:1013A30042A8128843C2AF7404651470EDEE42A8DC
:1013B3007F010206BE74F71206589005B1E0904211
:1013C30007F09005B2E0904206F09005B3E090423A
:1013D30005F09005B4E0904204F09005B5E090422A
:1013E3000BF09005B6E090420AF09005B7E090420A
:1013F30009F09005B8E0904208F0900524E0605DA4
:10140300900548E060577AFF7B01904011E0A2E02D
:10141300E433F404FE900549E0F46014E0F5087544
:101423000900740378081205DDAC08AD0912AF2575
:10143300EA6EF8904207E068F012B091EA6EF89015
:101443004206E068F012B091EA6EF8904205E06857
:10145300F012B091EA6EF8904204E068F07F020265
:1014630006BEC082C083122D4C90054EE0F8904218
:1014730002E028F09040247403F0900504E0600437
:10148300741380027415904232F01213B8D083D0D3
:10149300822274F51206588A088B098C0A8D0B90E8
:1014A30005A378081203A77F040206BE74F112068F
:1014B300588A088B098C0A8D0B9005A3780C1204AB
:1014C30073780C79081203BA900820780C120495EB
:1014D3007F080206BE74F11206589007CB1204A4CB
:1014E3001209858A0C8B0D8C0E8D0F9005A3780C39
:1014F3001203CE850C08850D099007D5E508F0A3E6
:10150300E509F0900577E0FCA3E0FD9005A7E0FA7C
:10151300A3E0FB12AEECE9701EAA0CAB0DAC0EAD52
:101523000F1214957405780C1205DD9005A7E50CD0
:10153300F0A3E50DF0801E9005A7E02508F0A3E0D9
:101543003509F07402780C120318AA0CAB0DAC0E1B
:10155300AD0F121495900577E0FCA3E0FD9005A76D
:10156300E0FAA3E0FB12AE789005A7EAF0A3EBF054
:101573007F080206BE74F71206589005631204A48E
:10158300121495900577E0FCA3E0FD9005A7E0FA1F
:10159300A3E0FB12AEECE9601E9005A7E0F508A3FB
:1015A300E0F509740578081205BEAA08E509FB33BE
:1015B30095E0FCFD1214957F020206BE74F5120637
:1015C30058E5131208320710117C161213F916206E
:1015D30021E91522234917282CE9153031BA17328E
:1015E30033B618007716900597E06402700302166D
:1015F3007C7A1C7B0812AB28900536E0F8A3E0F94F
:10160300E8FCE9FD900820ECF0A3EDF0A3E4F0A3DF
:10161300F07A1C7B0812AA701209537AF17B071225
:10162300AF5E9007F6E4F0904040E0FCF83395E0BD
:10163300F9900533E0FA3395E0FBE8C39AF8E99BA8
:10164300F99007FBE8F0A3E9F0900535E0F8ECC367
:1016530098A2D265D0339007FD400474018001E461
:10166300F09005AD1204BC9007F71204C87AF17B21
:101673000712AF957F040206BE9005A1E06003E068
:1016830014F07A1C7B0812AB28900535E0F89040E3
:1016930040E0C398A2D265D033400C9005A1E0701E
:1016A3002190053AE0601B900597E4F090053FE038
:1016B300F8A3E0F990059AE8F0A3E9F012132502E4
:1016C300161B9005A1E060030215FB120953900558
:1016D30097E4F01213547AFE7B0712AF5E9008036F
:1016E3007403F09005AD1204BC9008041204C87A88
:1016F300FE7B07021674900597E0640170030216DF
:101703007C1213549005A1E070231209537A087BCD
:101713000812AF5E90080D7403F09005AD1204BC7F
:1017230090080E1204C87A087B08021674E014F0BD
:1017330090053FE0F8A3E0F990059AE8F0A3E9F0FB
:10174300121325021677900597E0640170030216C1
:101753007C9040287403F0904002740DF090400395
:10176300E0A2E350F8120A0C90400FE090402EE400
:10177300F0A37480F075140A90053FE0F8A3E0F934
:1017830090059AE8F0A3E9F0904010E0540F640943
:10179300700E90402974E1F07402F014F07411F0AB
:1017A3009040077408F01209537AFE7B0712AF5E6C
:1017B300900803E40216E5900597E024FC604D14BD
:1017C30070030218969040027405F0120A0C9005FB
:1017D300977404F07A127B0812AF5E900817E4F056
:1017E300A3F0A3F0A3F0A3F07A127B0812AF957ACB
:1017F3001C7B0812AB289005A31204BC900820128E
:1018030004C87A1C7B0812AD7102167790402874C5
:1018130003F0904002740DF0904003E0A2E350F80F
:1018230090400FE090402EE4F0A37480F075140A0A
:1018330090053FE0F8A3E0F990059AE8F0A3E9F0FA
:10184300904010E0540F6409700E90402974E1F049
:101853007402F014F07411F07A1C7B0812AB281296
:1018630009539040077408F09005631204A41214FE
:10187300959005977405F07431651360137403F044
:101883009005671204A41214AF7A1C7B0812AD7181
:101893000217AC1213547403F07A1C7B0812AB28A2
:1018A3009005671204A41214AF7A1C7B0812AD7161
:1018B30002170D900597E024F96074147003021960
:1018C300851470030219AB147003021A1414700305
:1018D300021A35147003021B031213547407F09099
:1018E30005731204A41214957A1C7B0812AB28907A
:1018F30005A31204BC9008201204C87A1C7B0812AA
:10190300AD717AC57B0712AF5E7C1E7D0079007ACC
:10191300C97B071208919005AD1204BC9007CB1246
:1019230004C89007CA740AF07AC57B0702167412BA
:1019330012B77406F090056B1204A41214957A1C66
:101943007B0812AB289005A31204BC900820120454
:10195300C87A1C7B0812AD711209537AC57B071232
:10196300AF5E7C1E7D0079007AC97B0712089190D7
:1019730005AD1204BC9007CB1204C89007CA7409C2
:1019830080A59040027405F09005977409F07A1CC5
:101993007B0812AB2890056778081204739008201F
:1019A30078081203A70218051212B7740AF0120975
:1019B300537AC57B0712AF5E7C1E7D0079007AC91E
:1019C3007B071208919005AD1204BC9007CB12045B
:1019D300C89007CA740BF07AC57B0712AF957A1CBF
:1019E3007B0812AB289005A2E0F890057AE0F9E8AD
:1019F300C3994003E014F888087509007402780855
:101A03001205DD74872508F58274053509F5838091
:101A13008790401CE07003021677F4540F70139004
:101A23000597740BF07A1C7B0812AB289005930280
:101A3300199B1213549005A2E070037401F0E004A3
:101A4300F01209537AC57B0712AF5E7C1E7D0079C5
:101A5300007AC97B071208919005AD1204BC900768
:101A6300CB1204C89007CA7403F09005A2E0F89063
:101A73000579E0C398404A7AC57B0712AF951215E2
:101A8300789005977408F07A1C7B0812AB289005B0
:101A9300A2E0F890057AE0F9E8C3994003E014F86E
:101AA3008808750900740278081205DD747B25081F
:101AB300F58274053509F5831204A41214AF0218D4
:101AC300059007CA7409F07AC57B0712AF95121205
:101AD300B79005977406F07A1C7B0812AB28900523
:101AE3006B1204BC9008201204C87A1C7B0812AA4B
:101AF300709008201204BC9005A31204C802167744
:101B03007408F07A1C7B0812AB2890057F1204A49A
:101B13001214AF7A1C7B0812AD71021754EA240425
:101B2300FA50010B02A65674F71206589007CAE042
:101B3300600A7AC97B0712A656021F50900524E05B
:101B43006055E51354F86428604D904011E0A2E01D
:101B5300E433F404F50878081207C17508FF750922
:101B63000178081207BD9007E5C082C0839005473E
:101B7300E0F8D083D082E028FCA3E03400FD900796
:101B8300E1E0F8A3E0F5838882A982AA837B0012AF
:101B9300A951740312060690054EE06054E51354F0
:101BA300F86428604C9007E5C082C083900547E045
:101BB300F8D083D082E028FCA3E03400FD9007E155
:101BC300E0FAA3E0FB123DE1EA4B7003021F15901C
:101BD3000547E0F8EAC398FAEB9400FB90054EE062
:101BE300F8EAC398F8EB9400F99007E5E8F0A3E965
:101BF300F09007D5E4F0A3F0A3F0A3F074126513FB
:101C0300600C74136513600674316513704412130A
:101C1300547A1C7B0812AB28743165137016900537
:101C2300977403F09005671204A41214AF7A1C7B17
:101C33000812AD717A087B0812AF5E90080DE4F0CC
:101C43007A597B4012A87EA31204B07A087B08124B
:101C5300AF95900549E0F4602A900548E0F50875D2
:101C6300090078081207BD900549E0F89007E1E004
:101C730028FCA3E03400FD7ADD7B071208B8740268
:101C830012060690054AE0F4602A900548E0F5083C
:101C930075090078081207BD90054AE0F89007E13E
:101CA300E028FCA3E03400FD7AD97B071208B8745E
:101CB3000212060674226513600F7423651360090C
:101CC300743365136003021E619005A1E4F090056F
:101CD30047E0FA900560E0F8EA28F8E43400F99068
:101CE3000598E8F0A3E9F0900547E0FC7D00790052
:101CF3007ABD7B0512089190055FE0F46031E0F84E
:101D03009007E1E028FAA3E034008A82F583E0FA41
:101D1300C0E074BD28F582E43405F583D0E0F0908B
:101D230005A2E06A6003EA80059007CA7408F09090
:101D33000549E0F46034E0F874BD28FAE43405FBA7
:101D4300900548E0F50875090090054AE0F4780825
:101D530060091207BD7CD97D0780071207BD7CB9D6
:101D63007D051208B8740212060690054AE0F46075
:101D730027900548E0F50875090078081207BD7C2F
:101D8300B17D0590054AE0F874BD28FAE43405FBFB
:101D93001208B8740212060690054DE060339005F0
:101DA3004BE0F874BD28F8E43405F990054DE0F4F0
:101DB300FA88828983E05AF090054DE0FD90054C46
:101DC300E0FC900598E0C39C5DFA88828983E04A31
:101DD300F090054EE06017900598E0FCA3E0FD7AD3
:101DE300BD7B05123E53900598EAF0A3EBF09005F6
:101DF30024E06032904011E0A2E0E433F404F508FB
:101E030078081207C17508FF75090178081207BD24
:101E1300900598E0FCA3E0FD79BD7A057B0012A94B
:101E2300517403120606904006E4F0A3F0904002BA
:101E33007405F09040287403F075140A904003E091
:101E4300A2E340F87A1C7B0812AB2890055A1204CF
:101E5300BC9008201204C87A1C7B0812AACC7432E6
:101E630065136009743365136003021F0E743365D1
:101E7300136003121354900597E024F8602524FEA1
:101E8300602114601E9007CB1204A41209859005EB
:101E9300A31204B09005A7E4F0A37480F09005A208
:101EA300E480231214D89005A7E0F508A3E0F50910
:101EB300740578081205BE9007D7E508F0A3E50975
:101EC300F09005A27401F012157874336513900530
:101ED3009760357408F07A1C7B0812AB289005A232
:101EE300E0F508750900740278081205DD747B2596
:101EF30008F58274053509F5831204A41214AF7A28
:101F03001C7B0812AD718003740CF07AC97B071235
:101F1300A656742165136035742265136006742315
:101F23006513701AE5A85480F9C2AFA8149007CAC4
:101F330074F0F0E942A8E870141212B7800FE514A8
:101F4300146003147007904007E0D2E0F07F0202B0
:101F530006BE7AC57B0712AF5E7AE77B0712AF5ED8
:101F63007AF17B0712AF5E7AFE7B0712AF5E7A08C7
:101F73007B0812AF5E7A127B0812AF5E7A1C7B0875
:101F830002AB2874F81206587A007B007C40904319
:101F9300007484F0E0A2E740FB1CEC70F17C20901D
:101FA30043007484F0E0A2E740FB904308E054034D
:101FB300F9A3E0FEEA2EFAEB39FB1CEC70E17F019A
:101FC3000206BE74F3120658E9750CFF750DFFC2C5
:101FD300E7FF8F087E00805FEF2EF50974C0550977
:101FE300702374804509904180F0121F868A0A8B02
:101FF3000BA80AA90BC3E8950CE9950D5007880CAB
:10200300890D850908EE602EEFC39EF50974C0554E
:1020130009702374804509904180F0121F868A0A53
:102023008B0BA80AA90BC3E8950CE9950D500788FB
:102033000C890D8509080E74106E709CC3E50C9411
:1020430011E50D9400748050034F80024508F97F19
:10205300060206BE74F2120658750A007508FF756B
:1020630009FF7E007F00750B40804F150B74804580
:102073000BF50E904180F0904033E0121F86E0A8EC
:102083000BE828F8E433F974C128F582740639F5AE
:1020930083EAF0A3EBF0C3EE9AEF9B5004EAFEEB66
:1020A300FFC3EA9508EB950950108A088B09904005
:1020B30033E0F454C07003850E0AE50B70ADE50AF6
:1020C300A2E75019C3EF94FF5013C3E509940140ED
:1020D3000CEEC39508EF9509C39460500479008012
:1020E30002A90A7F070206BE74F112065874FA1297
:1020F30005F0751300121F559007C7742AF0A374D7
:102103001BF0A3E4F07C04FDF97AD97B0712089154
:102113007C047D0079007ADD7B071208919007E942
:102123007420F0A3741BF0A37401F09007F37420E0
:10213300F0A3741BF0A37402F09008007420F0A3C2
:10214300741BF0A37403F090080A7420F0A3741BAB
:10215300F0A37404F09008147420F0A3741BF0A38C
:102163007405F090081E74BFF0A37415F090059CDD
:10217300E4F090059DF0A3F0A3F0A3F0C2AC7514B6
:102183000012A580E9600579050224B312146512D3
:1021930037EF9040307409F0A314F0D2AC904002B2
:1021A3007405F09040107408F0904161E4F0A3F0DE
:1021B300A3F0121385851082851183E4803B790295
:1021C3001288A4E50842A8128843C2AF74066514B6
:1021D30070EC751400904006E4F0904033E0C0E0EA
:1021E300742C2EF582E43405F583D0E0F0E5084243
:1021F300A8851082851183E004F0900525E0F88519
:102203001082851183E0C39840030222B1E0FE8E61
:1022130008750900740278081205DD74262508F58F
:102223008274053509F5837808120473E508904034
:1022330037F0E509904036F085080CF50D850A0E58
:10224300850B0F7410780C120332E50C904035F0B7
:1022530074187808120332E508904034F0E5A85466
:1022630080F508C2AF7514059040067410F0900510
:102273002AE054F0700D742A2EF582E43405F583B8
:10228300E080207818851082851183E06018742B14
:102293002EF582E43405F583E0F8A2E550027808D0
:1022A300E8540F4410F8E8904033F00221CD900534
:1022B3002EE070030224281237EF9040107408F0C8
:1022C300904161E4F0A3F0A3F0904030E0D2E2F05B
:1022D300904F35E0F8D2E7F8D2F0A2E130F001B345
:1022E300500108E8F0904002740CF0904180E0C087
:1022F300E0740512063CD0E0F0740212063C74024E
:10230300F0851082851183E4802F122057E9C0E005
:10231300740312063CE0F8A3E0F5838882D0E0F072
:10232300740212063CE014F0E060030223E274013D
:10233300F0851082851183E004F0900525E0F8858F
:102343001082851183E0C398400302241EE0FE74CB
:102353002D2EF8E43405F9740312063CE8F0A3E9E2
:10236300F0740312063CE0F8A3E0F5838882E4F0FE
:10237300742C2EF582E43405F583E0A2E540B2E047
:10238300540FC0E0740112063CD0E0F0E0904033FB
:10239300F08E08750900740278081205DD7426258D
:1023A30008F58274053509F5837808120473E50886
:1023B300904037F0E509904036F085080CF50D851F
:1023C3000A0E850B0F7410780C120332E50C904043
:1023D30035F074187808120332E508904034F09011
:1023E300052BE0700302230D742B2EF582E43405D4
:1023F300F583E0F990052AE054F070197401120690
:102403003CE029F9742A2EF582E43405F583E0547F
:102413000FC9C399F9121FC6022310740512063C93
:10242300E0904180F0904002E4F012146512385BB2
:1024330090052CE0540F904033F0900526780C1251
:102443000473E50C904037F0850D09E5099040369B
:10245300F0850C08850E0A850F0B7410780812039B
:1024630032E508904035F07418780C120332E50C0D
:10247300904034F0751301851082851183E4800840
:10248300851082851183E004F0900525E0F885101E
:1024930082851183E0C3985015E0F8742C28F582E7
:1024A300E43405F583E0A2E550D67906800279008D
:1024B30074061206067F080206BEE514600674025F
:1024C3006514700379012279002274F8120658E921
:1024D300FEE5136E70030227ACE5131208320218EF
:1024E3001C1325282D4B250300F624020025031376
:1024F3002554251220EBE9F9605D0227B212A911D8
:10250300E9600579050227B2121465751400804449
:10251300E5A85480FFC2AFE51470221209537A086C
:102523007B0812AF5E90080DE4F09005AD1204BC79
:1025330090080E1204C87A087B0812AF9512135440
:10254300EF42A8121465800C12135412146575130C
:1025530001121354751301121F55EE70030227B0B5
:10256300900597E4F0EE120832051013A225181C0B
:10257300FC25282D76263031112732334B270701CE
:10258300AC2702992503D72620B02521EE2522B0BA
:102593002523EE25B02712A8EA7513020227AC8E75
:1025A300139005A274FFF0120A0C0227AC8E13904D
:1025B30005A274FFF0120A121212B7900538E060F8
:1025C300277A1C7B0812AB28900536E0F8A3E0F9C4
:1025D300E8FAE9FB900820EAF0A3EBF0A3E4F0A308
:1025E300F07A1C7B0812AA700227AC9005A274FF34
:1025F300F08E13120A120227AC8E1374186513603F
:1026030006741A65137005904011E4F0741965138C
:102613006006741B651370069040117404F0741AFD
:1026230065136006741B65137007904200E0C2E7F0
:10263300F0120A0C904012E4F012132575140F9057
:102643004003E0A2E350F89040287403F090400F59
:10265300E01209537A127B0812AF5E900817E4F078
:102663009005AD1204BC9008181204C87A127B08B6
:102673000227A98E13120A12742865136006742A9E
:1026830065137005904011E4F074296513600674B6
:102693002B651370069040117404F0742A6513605F
:1026A30006742B65137007904200E0C2E7F0904078
:1026B30012E4F09042307408F0904117E4F0742D66
:1026C3006513700D1238E29040237404F090402299
:1026D300F00225BB751303120A0C9040107408F026
:1026E300904161E4F0A3F0A3F0904165F0A3F0A35F
:1026F30004F09040237404F09040027407F07514C2
:102703000E904007E4F090400604F00227AC8E13CD
:102713009005977403F07A1C7B0812AB289008206D
:102723007402F0A3E4F0A3F0A3F07A1C7B0812AACE
:10273300709008201204BC9005A31204C89005678A
:102743001204A412149580618E13120A121212B786
:102753009005977406F07A1C7B0812AB2890056FDE
:102763001204BC9008201204C87A1C7B0812AA70B9
:102773009008201204BC9005A31204C87AC57B07F5
:1027830012AF5E7C1E7D0079007AC97B0712089127
:102793009005AD1204BC9007CB1204C89007CA740D
:1027A30009F07AC57B0712AF957900800279017F22
:1027B300010206BE74F1120658E9FA900525E0F805
:1027C300EAC39840057904022881EA90059CF08ABF
:1027D30008750900742C29F582E43405F583E0F9C2
:1027E300A2E550057906022881740278081205DDF6
:1027F30074262508F58274053509F58378081204D3
:102803007390059D780812037DE509FB85080CF597
:102813000D850A0E850B0F7418780C120332E50C24
:10282300FC85080C8B0D850A0EF50F7410780C12BD
:102833000332E50CF8740F59F9904030E0A2E7E950
:10284300501A904033F0E508904037F0EB90403653
:10285300F0E8904035F0EC904034801890403BF025
:10286300E50890403FF0EB90403EF0E890403DF0AB
:10287300EC90403CF0904030E06480F079007F08B9
:102883000206BEC082C08390059CE0FA90052EE04C
:102893006010742D2AF582E43405F583E0F9A2E78C
:1028A3004041742B2AF582E43405F583E0F9A2E76D
:1028B300502C90052AE054F07029742A2AF582E4FA
:1028C3003405F583E0540FF8742C2AF582E43405BB
:1028D300F583E0540F29C398543F4480800490410A
:1028E30080E0F9D083D0822274F612065889088AD0
:1028F300098B0A78081207B97C087D007AB17B0539
:1029030012090374031206061213B87F030206BEEC
:1029130074F112065874FC1205F0740112063CE9B6
:10292300F0A3EAF0A3EBF0ECFEEDFF741312063C08
:10293300E0F508A3E0F509A3E0F50A741612063CD6
:10294300E0F50BE513120832041013982A181C5FE4
:10295300292021512A3031752A00402D7A2C7B40C1
:1029630012AFFEE50B60158E0C8F0D7402780C12FE
:1029730005DDE50C2403F8E4350D8006EE2403F8A9
:10298300E43FF9C3EA98EB995003022AC9EE4F706A
:1029930003022A37EEFE90402974E1F08E0C750D88
:1029A30000E50B60077402780C1205DDA80CE8043F
:1029B300F07408F0E50B60677C007D00804DECC38C
:1029C30033FFA908AA09AB0A1201D8FA7B008A0CC3
:1029D3008B0D74012F780C1205DDE50CC420E30484
:1029E300540F800244F05408F98A0C8B0DEF780CD5
:1029F3001205DDE50C5480494477F0E5082401F520
:102A030008E43509F5090CEC70010DC3EC9404EDF1
:102A13009400A2D265D03340A51EEE709B8015A909
:102A230008AA09AB0A1201D8F0E92401F508E43A2F
:102A3300F509DEEB9040287404F0E5A85480F8C251
:102A4300AF904007E0D2E3F0E842A8022D3C9005A6
:102A530097E07047904006E4F0A3F09040027405BD
:102A6300F09040287403F0904003E0A2E340F81292
:102A73000A0C90055EE09005A1F09005A2E004F039
:102A8300E50B601C8E0C8F0D7402780C1205DDA80B
:102A93000CA90D800F900597E060D77902022D42B3
:102AA300EEF8EFF9900547E0FC7D00E82CF8E439F7
:102AB300F9900598E8F0A3E9F0900598C3E0940530
:102AC300A3E0940140057904022D4279007ABD7B8D
:102AD30005120891E50B7003022B7D750B00022B89
:102AE3006DAC0BE5082CF9E43509FAAB0A1201D8F1
:102AF300FA7B00E50EC333851082851183F08A0CBF
:102B03008B0DE004780C1205DDE50CC420E30454BE
:102B13000F800244F05408F98A0C8B0DE0780C12F4
:102B230005DDE50C5480494477C0E08C0C8B0D74B3
:102B330002780C1205DDE50C250EF8E50D350FF9CD
:102B430074BD28F582740539F583D0E0F0050EE5F0
:102B53000E7002050FC3E50E9404E50F9400A2D294
:102B630065D0335003022AE4050BC3E50B9EE49FB3
:102B73005026750E00750F0080DB78081207B9EE3A
:102B8300FCEFFD900547E0F874BD28FAE43405FB3B
:102B9300120903740312060690055FE0F4601890AF
:102BA30005A2E0C0E090055FE0F874BD28F582E47B
:102BB3003405F583D0E0F0900549E0F46024740116
:102BC30012063C1207D4900548E0FC7D00900549AD
:102BD300E0F874BD28FAE43405FB12090374031208
:102BE300060690054AE0F46027900548E0F508756D
:102BF300090078081207BD7CB17D0590054AE0F80D
:102C030074BD28FAE43405FB1208B87402120606F0
:102C130090054DE0603390054BE0F874BD28F8E46F
:102C23003405F990054DE0F4FA88828983E05AF07F
:102C330090054DE0FD90054CE0FC900598E0C39CA9
:102C43005DFA88828983E04AF090054EE060179030
:102C53000598E0FCA3E0FD7ABD7B05123E53900589
:102C630098EAF0A3EBF0900524E06032904011E085
:102C7300A2E0E433F404F50878081207C17508FFED
:102C830075090178081207BD900598E0FCA3E0FDE3
:102C930079BD7A057B0012A95174031206067430BC
:102CA30065136006743165137003022D3C7411655E
:102CB30013600674136513700590053B800390053C
:102CC3003FE0F8A3E0F990059AE8F0A3E9F0900556
:102CD30039E0605CE513120832021013E82C20235C
:102CE300E82C00332D121365120A12900534E0907C
:102CF300422CF09040027409F0900539E09005A150
:102D0300F09005977401F07A1C7B0812AB289005AC
:102D130036E0F8A3E0F9E8FCE9FD900820ECF0A325
:102D2300EDF0A3E4F0A3F07A1C7B0812AA708009EB
:102D33009005977402F012132579008002790174CB
:102D4300041206067F080206BEC082C083900BE40D
:102D5300E0700302315014700302326714700302EF
:102D6300344C1470030235FD24EF602714602414DF
:102D73007003023150147003022F7224FE70030299
:102D8300326724FE700302344C24FE70030235FDC7
:102D93000237EA9040107404F0A314F0A37406F011
:102DA3009040217402F0A314F0A3F09040257482A4
:102DB300F0A3F090406E7401F0904100F0A374FC16
:102DC300F0A3747FF0A3E4F0A3747FF0A374F3F093
:102DD300A3E4F0A3F0A3F0A37480F0A3E4F0A3F0C2
:102DE300904115F090411774F4F090412074E9F08C
:102DF300A37484F090412474F9F0A37484F0A37451
:102E030003F0A37446F0A3740AF0A3741FF0A3F0B5
:102E1300A37406F0A3E4F0A3F090412FF0A374E9A8
:102E2300F0A37484F0A3E4F0A3F0A374F7F0A37405
:102E330083F0A37403F0A37446F0A3740AF0A3749D
:102E43001FF0A3F0A37406F0A3E4F0A3F0A3741699
:102E5300F0A3E4F090415074FFF0A37484F0A3E472
:102E6300F0A3F0A374F6F0A37482F0A37403F0A3A9
:102E73007446F0A3740AF0A3741FF0A3F0A37406BE
:102E8300F0A3E4F0A3F0A37416F0A3E4F09041617F
:102E9300F0A3F0A3F0A37406F0A3E4F0A3F0A374EB
:102EA30081F090416A740FF0A374FFF09041807435
:102EB30099F09041837404F0904188740FF0A374E7
:102EC30077F09042007480F0A3E4F0A37488F0A339
:102ED30074C8F090421074FFF0A3E4F0A3F0A3F0E1
:102EE300A37407F0904216F090421874FFF0A3F019
:102EF30090421C740AF090421EF0904220743EF0FF
:102F0300A37431F0904223743EF0A37431F0A3E430
:102F1300F0A3747FF09042287403F090422A741255
:102F2300F090422D74CBF090422FE4F0A3740DF097
:102F33009042337420F0904330E4F0A3F0A3F09078
:102F43004F0D7403F0904F1004F0A3E4F0904F1C66
:102F53007407F0904F217468F0A374FFF0A3748496
:102F6300F0904F267498F0904F34740802344590D3
:102F730040107404F0A314F0A37406F0904021747D
:102F830002F0A314F0A3F09040257482F0A3F09014
:102F9300406E7401F0904100E4F0A374FCF0A3745C
:102FA30066F0A3E4F0A37427F0A374D4F0A3E4F0D1
:102FB300A3F0A3F0A37480F0A3E4F0A3F090411571
:102FC300F090411774F4F090412074D7F0A3748407
:102FD300F09041247498F0A374A2F0A374C3F0A3F7
:102FE3007446F0A3740AF0A3741FF0A3F0A374064D
:102FF300F0A3E4F0A3F090412FF0A374D7F0A374EF
:1030030084F0A3E4F0A3F0A37496F0A374A1F0A357
:1030130074C3F0A37446F0A3740AF0A3741FF0A35F
:10302300F0A37406F0A3E4F0A3F0A37416F0A3E4F2
:10303300F090415074FFF0A37484F0A3E4F0A3F084
:10304300A37495F0A374A0F0A374C3F0A37446F023
:10305300A3740AF0A3741FF0A3F0A37406F0A3E40F
:10306300F0A3F0A37416F0A3E4F0904161F0A3F091
:10307300A3F0A37406F0A3E4F0A37404F0A374080C
:10308300F090416A740FF0A374FFF090418074993B
:10309300F09041837404F0904188740FF0A3747727
:1030A300F09042007480F0A3E4F0A37488F0A3745A
:1030B300FEF090421004F0A3E4F0A3F0A3F0A37495
:1030C30007F0904216F090421874FFF0A3F090427C
:1030D3001C740AF090421EF0904220743EF0A374D8
:1030E30031F0904223743EF0A37431F0A3E4F0A3D3
:1030F300747FF09042287403F090422A7412F09087
:10310300422D74DDF090422FE4F0A3740DF0904251
:10311300337420F0904330E4F0A3F0A3F0904F0D0C
:103123007403F0904F1004F0A3E4F0904F1C740765
:10313300F0904F217468F0A374FFF0A37484F090AF
:103143004F267498F0904F3474080237D99040108A
:103153007404F0A3E4F0A37464F09040187433F0A3
:103163009040217402F0A314F0A3F09040257482E0
:10317300F0A3F090406E7401F0904100F0A374F856
:10318300F0A3747FF0A3E4F0A3747FF0A374F3F0CF
:10319300A3E4F0A3F0A3F0A37480F0A3E4F0A3F0FE
:1031A300904115F090411774F4F090412074E9F0C8
:1031B300A37484F090412474F9F0A37484F0A3748D
:1031C30003F0A37446F0A3740AF0A3741FF0A3F0F2
:1031D300A37406F0A3E4F0A3F090412FF0A374E9E5
:1031E300F0A37484F0A3E4F0A3F0A374F7F0A37442
:1031F30083F0A37403F0A37446F0A3740AF0A374DA
:103203001FF0A3F0A37406F0A3E4F0A3F0A37416D5
:10321300F0A3E4F090415074FFF0A37484F0A3E4AE
:10322300F0A3F0A374F6F0A37482F0A37403F0A3E5
:103233007446F0A3740AF0A3741FF0A3F0A37406FA
:10324300F0A3E4F0A3F0A37416F0A3E4F0904161BB
:10325300F0A3F0A3F0A37406F0A3E4F0A3F0A37427
:103263008102337C9040107404F0A3E4F0A37464EF
:10327300F09040187433F09040217402F0A314F0DE
:10328300A3F09040257482F0A3F090406E7401F097
:10329300904100F0A374F8F0A3747FF0A3E4F0A3CB
:1032A3007433F0A3742EF0A3E4F0A3F0A3F0A3749B
:1032B30080F0A3E4F0A3F0904115F090411774F46B
:1032C300F090412074E8F0A37484F090412474C812
:1032D300F0A374C2F0A37483F0A37446F0A3740A3A
:1032E300F0A3741FF0A3F0A37406F0A3E4F0A3F01B
:1032F30090412FF0A374E8F0A37484F0A3E4F0A347
:10330300F0A374C6F0A374C1F0A37483F0A374464E
:10331300F0A3740AF0A3741FF0A3F0A37406F0A340
:10332300E4F0A3F0A37416F0A3E4F090415074FF0B
:10333300F0A37484F0A3E4F0A3F0A374C5F0A37422
:10334300C0F0A37483F0A37446F0A3740AF0A374CB
:103353001FF0A3F0A37406F0A3E4F0A3F0A3741684
:10336300F0A3E4F0904161F0A3F0A3F0A37406F09E
:10337300A3E4F0A304F0A37443F090416A7402F051
:10338300A37407F09041807497F09041837404F024
:10339300904188740FF0A37477F09042007481F029
:1033A300A314F0A3E4F0A374F0F090421074AAF015
:1033B300A374CCF0A374AAF0A374CCF09042187455
:1033C3007EF0A3F090421C748AF090421E740AF0BF
:1033D300904220743EF0A37431F0904223743EF087
:1033E300A37431F0A3E4F0A3747FF0904228740334
:1033F300F090422A7417F090422D74DDF090422F22
:10340300E4F0A3740DF09042337420F0904330E461
:10341300F0A3F0A3F0904F0D7403F0904F1004F05D
:10342300A3E4F0904F1C7407F0904F217468F0A34D
:1034330074FFF0A37484F0904F267498F0904F3487
:103443007428F0A374120237DD9040107404F0A3C3
:10345300E4F0A37464F09040187433F09040217446
:1034630002F0A314F0A3F09040257482F0A3F0902F
:10347300406E7401F0904100E4F0A374FCF0A37477
:1034830020F0A3E4F0A37428F0A374A0F0A3E4F065
:10349300A3F0A3F0A37480F0A3E4F0A3F09041158C
:1034A300F090411774F4F090412074C5F0A3748434
:1034B300F090412474A8F0A374A2F0A374C3F0A302
:1034C3007446F0A3740AF0A3741FF0A3F0A3740668
:1034D300F0A3E4F0A3F090412FF0A374C5F0A3741C
:1034E30084F0A3E4F0A3F0A374A6F0A374A1F0A363
:1034F30074C3F0A37446F0A3740AF0A3741FF0A37B
:10350300F0A37406F0A3E4F0A3F0A37416F0A3E40D
:10351300F090415074FFF0A37484F0A3E4F0A3F09F
:10352300A374A5F0A374A0F0A374C3F0A37446F02E
:10353300A3740AF0A3741FF0A3F0A37406F0A3E42A
:10354300F0A3F0A37416F0A3E4F0904161F0A3F0AC
:10355300A3F0A37406F0A3E4F0A3740CF0A3749A8D
:10356300F090416A7402F0A37407F090418074975D
:10357300F09041837404F0904188740FF0A3747742
:10358300F09042007481F0A314F0A3E4F0A374F06C
:10359300F090421074AAF0A374CCF0A374AAF0A321
:1035A30074CCF0904218747EF0A3F090421C748A9D
:1035B300F090421E740AF0904220743EF0A37431DE
:1035C300F0904223743EF0A37431F0A3E4F0A374AB
:1035D3007FF09042287403F090422A7417F09042CF
:1035E3002D74DDF090422FE4F0A3740DF09042337C
:1035F3007420F0904330E40237A79040107404F035
:10360300A3E4F0A37464F09040187433F090402165
:103613007402F0A314F0A3F09040257482F0A3F099
:1036230090406E7401F0904100740BF0A374D1F0DC
:10363300A37402F0A3E4F0A37438F0A3746CF0A3B2
:10364300E4F0A3F0A3F0A37480F0A3E4F0A3F0905C
:103653004115F090411774F4F09041207483F0A366
:1036630004F090412474E8F0A374E2F0A37483F0AF
:10367300A37446F0A3740AF0A3741FF0A3F0A37419
:1036830006F0A3E4F0A3F090412FF0A37483F0A31A
:1036930004F0A3E4F0A3F0A374E6F0A374E1F0A3B1
:1036A3007483F0A37446F0A3740AF0A3741FF0A309
:1036B300F0A37406F0A3E4F0A3F0A37416F0A3E45C
:1036C300F090415074FFF0A37484F0A3E4F0A3F0EE
:1036D300A374E5F0A374E0F0A37483F0A37446F03D
:1036E300A3740AF0A3741FF0A3F0A37406F0A3E479
:1036F300F0A3F0A37416F0A3E4F0904161F0A3F0FB
:10370300A3F0A37405F0A3E4F0A37491F0A37430C1
:10371300F090416A7403F0A37498F090418014F020
:103723009041837404F0904188740FF0A37477F090
:103733009042007481F0A314F0A3E4F0A374F0F0BA
:1037430090421074AAF0A374CCF0A374AAF0A374EB
:10375300CCF0904218747EF0A3F090421C748AF06F
:1037630090421E740AF0904220743EF0A37431F02C
:10377300904223743EF0A37431F0A3E4F0A3747F6A
:10378300F09042287403F090422A7417F090422D6F
:1037930074E8F090422FE4F0A3740DF0904233E408
:1037A300F0904330F0A3F0A3F0904F0D7403F0902A
:1037B3004F1004F0A3E4F0904F1C7407F0904F21D6
:1037C3007468F0A374FFF0A37484F0904F26749888
:1037D300F0904F347428F0A37411F0904F44742583
:1037E300F0904F5F74E1F0D083D08222C082C08317
:1037F300904184E4F0904F00740FF0904F187406DA
:10380300F0900BE4E0603314603014602D146035E5
:1038130024EF601714601414602014600E24FE60FB
:103823001924FE601524FE601C8028904030740724
:10383300F0A37412F0A374208018904030740BF03E
:10384300A3741080099040307409F0A37402F0A3AC
:103853007424F0D083D08222C082C083900BE4E032
:10386300603814603514603214603A24EF60171422
:10387300601414602514600E24FE601E24FE601A7A
:1038830024FE602180339040307407F0A304F0A33A
:103893007420F0904F187406801E904030740BF023
:1038A300A3741080099040307409F0A37401F0A34D
:1038B3007424F0904F187402F0904184E4F0904F18
:1038C30000740FF0D083D08222C082C0839042273D
:1038D300E4F0904229F0904231F0D083D08222C0AC
:1038E30082C08390411774FFF090415CE4F0A3F031
:1038F300900BE4E0602414603614602C14602224DE
:10390300EF601714601414601114602324FE601F09
:1039130024FE601424FE6009801B90415074E980EA
:103923001390415074A5800C90415074E78005902A
:10393300415074E8F0D083D08222C082C08390705B
:1039430046E4F0D083D08222538C3F2274F11206D6
:10395300588A088B098C0A8D0B90B32D78081201B5
:103963006B4003023A758A0C8B0D7408780C1205B0
:10397300BEAA0C85080C8B0D8C0E8D0F7418780C59
:10398300120318AE0C85080C8B0D8C0E8D0F741062
:10399300780C120318AC0CE50875F0A5A4F508E53E
:1039A300F0F509E4F50AF50BEA75F030A4F50CE53A
:1039B300F0F50DE4F50EF50F7808790C12036AECB7
:1039C30075F0E8A4F50CE5F0F50D7808790C120311
:1039D3006A74087808120332EA75F0A5A4FAABF00A
:1039E3008A0C8B0D7808790C12036AEC75F030A4FD
:1039F300F50CE5F0F50D7808790C12036AEE75F015
:103A0300E8A4F50CE5F0F50D7808790C12036AC00B
:103A130008C009C00AC00BEC75F0A5A4FCADF08C7E
:103A2300088D09E4F50AF50BEE75F030A4F50CE505
:103A3300F0F50D7808790C12036A740878081203FC
:103A43004BD00FD00ED00DD00C780C790812036A2E
:103A5300EE75F0A5A4FEAFF08E088F09E4F50AF524
:103A63000B7410780812034B780C790812036A025E
:103A73003B9078081202F785080C85090D740878C5
:103A83000C1205BEAA0C85080C85090D850A0E8546
:103A93000B0F7418780C120318AE0C85080C8509EB
:103AA3000D850A0E850B0F7410780C120318AC0CDD
:103AB300E50875F0A5A4F508E5F0F509E4F50AF5C0
:103AC3000B78081202F7EA75F030A4F50CE5F0F56F
:103AD3000DE4F50EF50F7808790C1203BAEC75F0C6
:103AE300E8A4F50CE5F0F50D7808790C1203BA7427
:103AF300087808120318EA75F0A5A4FAABF08A0C4B
:103B03008B0D7808790C1203BAEC75F030A4F50C20
:103B1300E5F0F50D7808790C1203BAEE75F0E8A418
:103B2300F50CE5F0F50D7808790C1203BAC008C05E
:103B330009C00AC00BEC75F0A5A4FCADF08C088D90
:103B430009E4F50AF50BEE75F030A4F50CE5F0F594
:103B53000D7808790C12036A7408780812034BD0A5
:103B63000FD00ED00DD00C780C79081203BAEE7575
:103B7300F0A5A4FEAFF08E088F09E4F50AF50B74E7
:103B830010780812034B780C79081203BAAA0CAB0D
:103B93000DAC0EAD0F7F080206BE74F11206588AF3
:103BA300088B098C0A8D0B900BE4E024FE70030252
:103BB3003C6814600E24E87003023C6824FE600332
:103BC300023D2E90B32D780812016B50468A0C8B60
:103BD3000D7408780C1205BEAA0C85080CE50C754B
:103BE300F091A4F50CE5F0F50DE4F50EF50FEA758B
:103BF300F02FA4F508E5F0F509E4F50AF50B780CC8
:103C0300790812036A7408780C120332EA75F0918A
:103C1300023CB578081202F785080C85090D740873
:103C2300780C1205BEAA0C85080CE50C75F091A45E
:103C3300F50CE5F0F50DE4F50EF50F780C1202F72F
:103C4300EA75F02FA4F508E5F0F509E4F50AF50B9C
:103C5300780C79081203BA7408780C120318EA7501
:103C6300F091023D1590B32D780812016B50548AE0
:103C73000C8B0D7408780C1205BEAA0C85080CE594
:103C83000C75F00CA4F50CE5F0F50DE4F50EF50F4D
:103C9300EA75F09AA4F508E5F0F509E4F50AF50BE1
:103CA300780C790812036A7408780C120332EA75E7
:103CB300F00CA4FAABF08A088B09780C790812038C
:103CC3006A805E78081202F785080C85090D74086E
:103CD300780C1205BEAA0C85080CE50C75F00CA433
:103CE300F50CE5F0F50DE4F50EF50F780C1202F77F
:103CF300EA75F09AA4F508E5F0F509E4F50AF50B81
:103D0300780C79081203BA7408780C120318EA7550
:103D1300F00CA4FAABF08A088B09780C790812032B
:103D2300BAAA0CAB0DAC0EAD0F805790B32D78082B
:103D330012016B5016740878081205BEE50875F079
:103D430081A4AAF07B00E4FCFD8037C3E49508F569
:103D530008E49509F509740878081205BEE50875A5
:103D6300F081A4F508E5F0F509E4F50AF50B780808
:103D73001202F774087808120318AA08AB09AC0AF0
:103D8300AD0B7F080206BE74F11206588A088B0930
:103D93008C0A8D0B7406780812031885080C8509A4
:103DA3000D850A0E850B0F74027808120318780C20
:103DB300790812036A74037808120318780C7908D7
:103DC30012036A74027808120318780C7908120334
:103DD3006AAA0CAB0DAC0EAD0F7F080206BE74F5DC
:103DE300120658ECFEEDFF900BE4E0602214601F16
:103DF30014601C14601924EF604714604414600FAE
:103E030014603E24FE600824FE600424FE70389093
:103E1300B325C082C08390B3291208058A828B839D
:103E2300A982AA837B0012A9B474041206068A0825
:103E33008B098C0A8D0BD083D082780812015270C3
:103E430006EEFAEFFB80047A007B007F040206BED5
:103E530074F112065874FE1205F0851082851183E1
:103E6300ECF0A3EDF0EAFEEBFF900BE4E06030141E
:103E7300602D14602A14602724EF60171460141453
:103E8300601D14600E24FE601624FE601224FE6082
:103E93000E806E851082851183E0FAA3E0805F9027
:103EA300B329120805740412063CE0FCA3E0FD8E5E
:103EB300828F83A982AA837B0012A9B47404120699
:103EC30006851082851183E0F8A3E0F9EE28FEEF62
:103ED30039FFEAF48E828F83F0EBF4A3F0ECF48ED7
:103EE300828F83A3A3F0EDF48E828F83A3A3A3F029
:103EF300851082851183E02404FAA3E03400FB805B
:103F0300047A007B0074021206067F080206BE7460
:103F1300F3120658900BE4E0700302421614700388
:103F23000244571470030246911470030248CC24D0
:103F3300EF602414602114700302421614601824E5
:103F4300FE700302445724FE700302469124FE7060
:103F5300030248CC024B689005047401F0900524D9
:103F6300E4F090052504F07A007B0080328A088B08
:103F730009740278081205DDAC08AD0974A12CF5AB
:103F83008274B33DF583780812048274262CF5827B
:103F930074053DF58378081204950AEA70010BC392
:103FA300EA9401EB9400A2D265D03340C078007943
:103FB30000802074CE28F58274B339F583E493C06E
:103FC300E0742A28F582740539F583D0E0F008E817
:103FD300700109C3E89401E99400A2D265D033408B
:103FE300D278007900802074CD28F58274B339F536
:103FF30083E493C0E0742B28F582740539F583D0EC
:10400300E0F008E8700109C3E89401E99400A2D242
:1040130065D03340D290052EE4F090052F7441F023
:10402300A3E4F0A3F0A3F09005337440F0900534BB
:10403300743AF090053574CBF09005367407F0A30D
:10404300E4F0900538F0900539F090053AF09005CA
:104053003BF0A3F090053D7460F0A3E4F090053FBE
:10406300F0A3F0900541F0A3F090054374FFF090A6
:1040730005447418F0900545E4F0900546F090056A
:1040830047F0900548F0900549F090054A74FFF019
:1040930090054BE4F090054C7488F090054DE4F0E6
:1040A30090054EF090054F7408F078007900802059
:1040B300749D28F58274B339F583E493C0E074509A
:1040C30028F582740539F583D0E0F008E87001091A
:1040D300C3E89404E99400A2D265D03340D290059A
:1040E300547418F0900555E4F09005567455F0A3F8
:1040F300E4F0A3F0A3F090055A7439F0A37401F02F
:10410300A3E4F0A3F090055E7402F090055F74FFE2
:10411300F0900560E4F09005617480F0A3E4F09002
:104123000563F0A3F0A37405F0A3E4F090056774AE
:1041330031F0A3E4F0A3F0A3F090056BF0A3F0A398
:10414300740FF0A3E4F090056FF0A3F0A3745AF09A
:10415300A3E4F0900573F0A3F0A3742CF0A374010F
:10416300F090057774A3F0A37416F0900579740B9F
:10417300F090057A7403F07A007B0080328A088B12
:1041830009740278081205DDAC08AD0974812CF5B9
:104193008274B23DF5837808120482747B2CF58215
:1041A30074053DF58378081204950AEA70010BC380
:1041B300EA9403EB9400A2D265D03340C07A007B2B
:1041C3000080328A088B09740278081205DDAC0876
:1041D300AD0974752CF58274B23DF5837808120429
:1041E3008274872CF58274053DF583780812049553
:1041F3000AEA70010BC3EA9403EB9400A2D265D0E0
:104203003340C0900593745DF0A3745FF0A3740111
:104213000244519005047401F0900524E4F09005E4
:104223002504F09005267477F0A37462F0A3742735
:10423300F0A37411F090052A7409F090052B74977C
:10424300F090052EE4F090052F7420F0A3E4F0A382
:10425300F0A3F09005337440F0900534743AF09075
:10426300053574DDF09005367407F0A3E4F090058E
:1042730038F0900539F090053AF090053B04F0A32F
:10428300E4F090053D7460F0A3E4F090053F04F082
:10429300A3E4F09005417448F0A3E4F0900543745F
:1042A3007EF09005447438F0900545E4F09005469F
:1042B300F09005477402F090054814F0900549F01A
:1042C30090054A74FFF090054BE4F090054CF09094
:1042D300054D74FFF090054EE4F090054F7420F007
:1042E300780079008020749128F58274B339F583BE
:1042F300E493C0E0745028F582740539F583D0E067
:10430300F008E8700109C3E89404E99400A2D265B7
:10431300D03340D29005547418F0900555E4F090D2
:104323000556742DF0A3740CF0A3E4F0A3F09005EC
:104333005A7439F0A37401F0A3E4F0A3F090055E7E
:10434300F090055F74FFF0900560E4F090056174F0
:1043530080F0A3E4F0900563747FF0A374EAF0A304
:104363007402F0A3E4F09005677431F0A3E4F0A3C2
:10437300F0A3F090056B747DF0A374BFF0A37408F1
:10438300F0A3E4F090056FF0A3F0A3745AF0A3E454
:10439300F0900573F0A3F0A3742CF0A37401F090D4
:1043A300057774CFF0A3740FF0900579740BF09038
:1043B300057A7403F07A007B0080328A088B0974D3
:1043C3000278081205DDAC08AD0974692CF5827416
:1043D300B23DF5837808120482747B2CF582740550
:1043E3003DF58378081204950AEA70010BC3EA9439
:1043F30003EB9400A2D265D03340C07A007B0080E7
:10440300328A088B09740278081205DDAC08AD09FD
:1044130074C92CF58274B23DF58378081204827452
:10442300872CF58274053DF58378081204950AEA12
:1044330070010BC3EA9403EB9400A2D265D033401E
:10444300C0900593741FF0A37445F0A37402F0A306
:10445300E4024B679005047401F0900524E4F090A6
:10446300052504F09005267477F0A37462F0A37415
:1044730027F0A37411F090052A7409F090052B74AA
:1044830097F090052EE4F090052F7451F0A3E4F01B
:10449300A3F0A3F09005337440F0900534743AF020
:1044A30090053574DDF09005367407F0A3E4F090C1
:1044B3000538F0900539F090053AF090053B04F08B
:1044C300A3E4F090053D7488F0A3E4F090053F0465
:1044D300F0A3E4F09005417448F0A3E4F0900543A1
:1044E300747EF09005447438F0900545E4F090052F
:1044F30046F09005477402F090054814F090054982
:10450300F090054A74FFF090054BE4F090054CF0F1
:1045130090054D74FFF090054EE4F090054F742024
:10452300F0780079008020745528F58274B339F54A
:1045330083E493C0E0745028F582740539F583D081
:10454300E0F008E8700109C3E89404E99400A2D2FA
:1045530065D03340D29005547418F0900555E4F0BB
:1045630090055674E1F0A37404F0A3E4F0A3F09073
:10457300055A7439F0A37401F0A3E4F0A3F0900595
:104583005EF090055F74FFF0900560E4F0900561C4
:104593007480F0A3E4F0900563747FF0A374EAF0F1
:1045A300A37402F0A3E4F09005677431F0A3E4F080
:1045B300A3F0A3F090056B747DF0A374BFF0A37414
:1045C30008F0A3E4F090056FF0A3F0A3745AF0A3EE
:1045D300E4F0900573F0A3F0A3742CF0A37401F03E
:1045E30090057774CFF0A3740FF0900579740BF0F6
:1045F30090057A7403F07A007B0080328A088B0975
:10460300740278081205DDAC08AD0974A52CF58297
:1046130074B23DF5837808120482747B2CF582749E
:10462300053DF58378081204950AEA70010BC3EA85
:104633009403EB9400A2D265D03340C07A007B0090
:1046430080328A088B09740278081205DDAC08AD44
:104653000974B12CF58274B23DF583780812048293
:1046630074872CF58274053DF58378081204950A46
:10467300EA70010BC3EA9403EB9400A2D265D03332
:1046830040C09005937473F0A374E8024B629005E5
:10469300047401F0900524E4F090052504F09005DE
:1046A300267477F0A37462F0A37427F0A37411F057
:1046B30090052A7409F090052B7497F090052EE469
:1046C300F090052F7427F0A37403F0A3E4F0A3F094
:1046D3009005337440F09005347439F090053574C7
:1046E300DDF09005367407F0A3E4F0900538F09000
:1046F3000539F090053AF090053B7403F0A3E4F01C
:1047030090053D74A0F0A3E4F090053F04F0A3E40A
:10471300F09005417448F0A3E4F0900543747EF0F3
:104723009005447438F0900545E4F0900546F09008
:1047330005477402F090054814F0900549F0900580
:104743004A74FFF090054BE4F090054CF090054D52
:1047530074FFF090054EE4F090054F7420F078005C
:1047630079008020744128F58274B339F583E4938A
:10477300C0E0745028F582740539F583D0E0F00861
:10478300E8700109C3E89404E99400A2D265D03328
:1047930040D29005547418F0900555E4F0900556F6
:1047A3007480F0A3E4F0A3F0A3F090055A7439F0F9
:1047B300A37401F0A3E4F0A3F090055EF090055F0D
:1047C30074FFF0900560E4F09005617480F0A3E459
:1047D300F0900563747FF0A374EAF0A37402F0A36E
:1047E300E4F09005677431F0A3E4F0A3F0A3F09034
:1047F300056B747DF0A374BFF0A37408F0A3E4F019
:1048030090056FF0A3F0A3745AF0A3E4F09005733E
:10481300F0A3F0A3742CF0A37401F090057774CF88
:10482300F0A3740FF0900579740BF090057A74037C
:10483300F07A007B0080328A088B097402780812B0
:1048430005DDAC08AD0974BD2CF58274B23DF5836A
:104853007808120482747B2CF58274053DF5837805
:10486300081204950AEA70010BC3EA9403EB94005F
:10487300A2D265D03340C07A007B0080328A088B95
:1048830009740278081205DDAC08AD0974D52CF55E
:104893008274B23DF583780812048274872CF58202
:1048A30074053DF58378081204950AEA70010BC379
:1048B300EA9403EB9400A2D265D03340C0900593F1
:1048C300743FF0A37417024B629005047401F090D7
:1048D3000524E4F090052504F079008077E9FA8A4D
:1048E30008750900740278081205DD85080C85092E
:1048F3000D7479250CF58274B3350DF583780812A0
:1049030004827426250CF5827405350DF583E508BC
:10491300F0A3E509F0A3E50AF0A3E50BF074CC2AB4
:10492300F582E434B3F583E493C0E0742A2AF58274
:10493300E43405F583D0E0F074CB2AF582E434B394
:10494300F583E493C0E0742B2AF582E43405F58300
:10495300D0E0F009740169708490052EE4F09005AD
:104963002F744CF0A37424F0A3E4F0A3F090053368
:104973007440F09005347439F090053574E8F09084
:1049830005367407F0A3E4F0900538F0900539F08C
:1049930090053AF090053B741CF0A3E4F090053DBC
:1049A3007448F0A3E4F090053F04F0A3E4F090050D
:1049B300417448F0A3E4F0900543747EF0900544FD
:1049C3007438F0900545E4F0900546F0900547747F
:1049D30002F090054814F0900549F090054A74FFE1
:1049E300F090054BE4F090054CF090054D74FFF00A
:1049F30090054EE4F090054F7420F0780079008024
:104A030020747128F58274B339F583E493C0E0749C
:104A13005028F582740539F583D0E0F008E8700179
:104A230009C3E89404E99400A2D265D03340D2903C
:104A330005547418F0900555E4F0900556740EF083
:104A4300A3E4F0A3F0A3F090055A7439F0A3740122
:104A5300F0A3E4F0A3F090055EF090055F74FFF01F
:104A63009005607401F09005617480F0A3E4F09008
:104A73000563F0A37440F0A37401F0A3E4F0900580
:104A8300677431F0A3E4F0A3F0A3F090056BF0A3F7
:104A930074C0F0A37403F0A3E4F090056FF0A3F0E7
:104AA300A3745AF0A3E4F0900573F0A3F0A3742C5D
:104AB300F0A37401F09005777459F0A3740AF09091
:104AC300057904F090057A7403F07A007B00803254
:104AD3008A088B09740278081205DDAC08AD0974E5
:104AE3008D2CF58274B23DF5837808120482747BB1
:104AF3002CF58274053DF58378081204950AEA7053
:104B0300010BC3EA9403EB9400A2D265D03340C0F7
:104B13007A007B0080328A088B09740278081205B8
:104B2300DDAC08AD0974992CF58274B23DF5837838
:104B33000812048274872CF58274053DF583780886
:104B43001204950AEA70010BC3EA9403EB9400A2E2
:104B5300D265D03340C090059374F1F0A37403F091
:104B6300A3E4F0A3F07F060206BE029FF802A2D7D9
:104B730074F112065874F91205F0740412063CE934
:104B8300F0A3EAF0A3EBF0EC851082851183F074B7
:104B93000112063CE4F0851082851183E0C0E074C5
:104BA3000312063CD0E0F01262FDE9F87440C398AA
:104BB300F8900C35E0FC851082851183E0FAECC394
:104BC3009A401B900C33E07B002403FA50010BC383
:104BD300E89AE49BA2D265D0335003024D5DECF515
:104BE300F0851082851183E0847B002403FA500151
:104BF3000BC3E89AE49BA2D265D0335003024D5D08
:104C0300E0C39C4003024D10E004F912604E8A0891
:104C13008B09AE08AF09EE4F7003024D5D8E828F94
:104C230083A3A3A3A3A3E0D2E7F085108285118316
:104C3300E0547F24808E828F83A3A3A3A3A3A3F036
:104C4300851082851183E0F508750900780812073D
:104C5300BD740612063CE0F9A3E08908AC08FDEE3A
:104C63002407FAE43FFB1208B874021206068E8288
:104C73008F837402F0900C32E08E828F83A3F090C6
:104C83000BE97808120473E508541FF990B30D7803
:104C930008120482900BE978081203A78E828F838F
:104CA300A3A3A3A3A3E054E0F08E828F83A3A3A3C3
:104CB300A3A3E049F0900C32E07003024F0C900B79
:104CC300E9780C120473900C33E0F508E4F509F568
:104CD3000AF50B780C7908120288E5084509450A9C
:104CE300450B70208E828F83A3A3A3A3A3E0D2E6F8
:104CF300F0900C26E0048E828F83A3A3A3F0900C84
:104D030026E48005900C26E004F0024F0C750800A1
:104D1300900C35E0F8851082851183E0F9E8C3999A
:104D2300501A740112063CE07004D2F08002C2F003
:104D3300A2F0E43333F508E895088001E0C0E0749D
:104D43000212063CD0E0F0E02508F912604E8A0A10
:104D53008B0BAE0AAF0BEE4F70057904024F117443
:104D63000112063CE06004D2008002C20074021209
:104D7300063CE0F50A750B00780A1207BD740312AE
:104D8300063CE0FA900C35E0F50AEA850AF0A4FA4D
:104D9300A200E43325E0F8EA98FCE5F09400FD7402
:104DA3000612063CE0F9A3E0FAE92CF9EA3D890A88
:104DB300AC0AFDA808EE28F8E43FF9E82406FAE473
:104DC30039FB1208B874021206068E828F837402AE
:104DD300F0900C32E08E828F83A3F0900BE9780879
:104DE300120473E508541FFC90B30D780812048273
:104DF300900BE978081203A7EE2405F8E43FF9E8DD
:104E0300FAE9FB8A828B83E054E0F0E04CF08510F2
:104E130082851183E0F8740212063CE0C398503790
:104E23008A828B83E0D2E5F0740112063CE070279E
:104E33008A828B83E0D2E7F08E828F83A3A3A3A31E
:104E4300A3A37405F0740312063CE08E828F83A340
:104E5300A3A3A3A3A3A3F0740212063CE0F8851056
:104E630082851183E0C398F0740112063CE004F0DC
:104E7300851082851183E0704C740112063CE06456
:104E8300017042900C32E06074900BE9780C1204CC
:104E930073900C33E0F508E4F509F50AF50B780C8B
:104EA3007908120288E5084509450A450B700F8AFF
:104EB300828B83E0D2E6F0900C26E0048032900CE3
:104EC30026E00480378A828B83E0D2E5F0900C32AF
:104ED300E0602A851082851183E070218A828B83AA
:104EE300E0D2E6F0900C26E0F8740112063CE028CC
:104EF3008E828F83A3A3A3F0900C26E4F085108207
:104F0300851183E06003024D10125F8179007407FD
:104F13001206067F080206BE74F112065874F912CF
:104F230005F0024FF2851082851183E0FAA3E0FBBE
:104F3300124B6D740312063CEAF0A3EBF0740312F8
:104F4300063CE0F8A3E0F9E849700302500DEE24B3
:104F530005F8E43FF988828983E0A2E74003025021
:104F630017EE2406F582E43FF583E0A2E74003024F
:104F73005017E0547F851082851183F0A3E4F085F8
:104F830010828511831207D8EE2407FCE43FFD74D9
:104F93000512063CE0FAA3E0FB1208B874021206FD
:104FA30006740312063CE0F508A3E0F509750A0050
:104FB30078081207B9740312063CE0FA7910127FDD
:104FC300537403120606851082E0FCA3E0FDA908D2
:104FD300AA09AB0A900C24E0F8A3E0F583888212B7
:104FE3000656740312063CE0FAA3E0FB124B70ACC6
:104FF30010AD1174021206461265A18A088B09AE20
:1050030008AF09EE4F6003024F2874071206067FAC
:10501300080206BE88828983E0541FF50E8510823C
:10502300851183E0F508A3E0F509851082851183D6
:10503300E0900C2CF0750B008005740BF0050B74DD
:105043000212063CE0650B7003024FA47C00E50BE3
:10505300700DE0C394024007750A067C028020901D
:105063000C35E0F8FA7B00C3E5089AE509940040A3
:1050730004880A800AA808A909120565EAF50AE561
:105083000B6004D2F08002C2F0FAE50E2A541F2509
:10509300E0F8740128F8E4340DF9740512063CE8CD
:1050A300F0A3E9F0AE0A8E0C750D00780C1207BD63
:1050B300740712063CE0F8A3E0F5838882E02CF83D
:1050C300A3E034008882F583A3A3A3A3A3A3AC82A4
:1050D300AD83A2F0E43325E0F8E498F895E0F99085
:1050E3000C35E0F50CEA850CF0A4FA85F00FAB0F54
:1050F300740512063CE02AFAA3E03BFBEA28FAEB2C
:1051030039FB1208B87402120606C3E5089EF508B7
:10511300E5099400F509740512063CE0F8A3E0F5EF
:10512300838882E0F8A3E0F988828983A3A3A3A3F9
:10513300A3E0A2E688828983400302503D741502EE
:10514300503F74F112065874FD1205F0EAFEEBFFAE
:10515300900C2FE06403601FEE241AF582E43FF500
:1051630083E0F8A3E0F5838882A982AA837B0012F7
:105173007256400302527F90B30D78081204829056
:105183000BED78081203A7900510E004F0900C31A2
:10519300E0F8748128F582E434B3F583E493F8905E
:1051A3000510E0F9E8C3995002E8F08E828F83A3DB
:1051B300A3A3A3A3A3E0F8A3E0F990050CE0FAA34B
:1051C300E0FBC3E89AE99BA2D265D033500874028E
:1051D30012063CE4801190050CE0FAE8C39AC0E0A3
:1051E300740212063CD0E0F0900BFBE8F0A3E9F068
:1051F300900BF5E075F003A4F8A9F0740212063CD5
:10520300E0FAE82AF508E439F5097402780812058A
:10521300CEE508900BF5F0EE241AF8E43FF9900C74
:105223002FE064037060740212063CE0C0E08882E1
:105233008983E0FAA3E0CA24FFF582EA34FFF58309
:10524300D0E0F088828983E0F508A3E0F509750AC8
:1052530000E50824FFF508E50934FFF5097808128D
:1052630007B9EE241CF582E43FF583E024FDFA79C7
:1052730010127F53740312060612751A7403120672
:10528300067F080206BE88828983E02403F8A3E030
:105293003400F9851082851183E8F0A3E9F07A14CC
:1052A3007B0C12ABC7E4900C2BF090050AE0F8A33B
:1052B300E0F5838882E064147014900C03E0C0E08E
:1052C30090050AE0F8A3E0F5838882D0E0F085102A
:1052D30082851183E0F8A3E0F5838882E0A2E740AA
:1052E30003025560851082851183E02401F8A3E051
:1052F3003400F988828983E0A2E75003025560E015
:10530300602224FD700302544114700302547C1480
:105313007003025560147003025482147003025523
:1053230034025537750C00750D00750E00750F00AE
:105333007E0190050AE0F8A3E0F5838882E064101B
:105343006003025537851082851183E0F8A3E0F5E9
:10535300838882E0541FF890050AE0F9A3E0F583FF
:105363008982A3A3A3A3A3E0541F68600302553754
:105373007A0C7B0C12ABC7E4900C2AF090050AE080
:10538300F8A3E0F5838882A3A3A3E07019900BF739
:10539300E02EF0A3E03400F090050AE0F8A3E0F576
:1053A3008388827408F0900BF6E075F003A4F8A9E3
:1053B300F0851082851183E0FAA3E0CA2406F58202
:1053C300E43AF583E0FAE82AF508E439F5097402CA
:1053D30078081205CEE508900BF6F085108285114A
:1053E30083E0F8A3E0C82408F582E438F583E0906D
:1053F3000C54F07408780C12034BEEF88510828578
:105403001183E028FAA3E034008A82F583A3E0F550
:1054130008E4F509F50AF50B780C790812036A0E0E
:10542300EEC3940540CD780C1207B590050AE0FA57
:10543300A3E0FB12682A740412060602553790058E
:105443000AE0F8A3E0F5838882E064106003025564
:10545300377A0C7B0C12ABC7E4900C2AF090050A48
:10546300E0F8A3E0F58388827408F0900BF7E0245A
:1054730001F0A3E0340002553112674A0255378523
:105483001082851183E02402F508A3E03400F509B6
:10549300AA08FB1279A84003025537790812604E17
:1054A3008A0A8B0BAE0AAF0BEE4F70030255378E91
:1054B300828F83A3A3A3A3A3A37406F0750A07751E
:1054C3000B00780A1207BDAC08AD09EE2407FAE415
:1054D3003FFB1208B87402120606851082851183F9
:1054E300E0F8A3E0F5838882E0541FFAEE2405F880
:1054F300E43FF988828983E054E0F0E04AF0E0D2A7
:10550300E7F08E828F83A3AA82AB83900C7AE08A22
:10551300828B83600C7401F088828983E0D2E680F9
:1055230001E4F0E4900C7AF08E828F837413F080A0
:1055330003438710851082851183E0F8A3E0F58388
:105543008882E0A2E640030256F579001263CCE9B3
:1055530060030256F5790812604E0256F5EE241CDC
:10556300FE50010F8E828F83E024F9F98510828526
:105573001183E0FAA3E0FB126548405E8E828F83BD
:10558300E024F8FA851082851183E0F8A3E0F5831F
:105593008882E0F91261398A088B09EA45097003A8
:1055A30002527F8E828F83E024F9F50AA3E034FF51
:1055B300F50B780A1207BD740212063CE0FCA3E067
:1055C300FDEA2405FAE43509FB1208B87402120651
:1055D300068508828509837407F085108285118307
:1055E300E0F8A3E0F5838882E0A2E640030256F5E3
:1055F30079001263CCE960030256F5790812604E14
:105603008A088B09AE08AF09EE4F70030256F512F4
:1056130064BF8E828F83A3A3A3A3A3A3E4F08E828C
:105623008F83A3A3A3A3A3A3A3EDF08E828F83A34E
:10563300A3A3A3A3A3A3A3ECF08E828F83A3A3A30B
:10564300A3A3A3A3A3A3EBF08E828F83A3A3A3A3FC
:10565300A3A3A3A3A3A3EAF0740212063CE0C0E051
:10566300EE240BF582E43FF583D0E0F090050CE0E7
:105673002496C0E0EE240CF582E43FF583D0E0F0FD
:10568300900C4FE0543FF9900C7FE0F8900C80E0D1
:105693002829C0E0EE240DF582E43FF583D0E0F045
:1056A300EE2405F8E43FF9E8FAE9FB900BF17808FA
:1056B300120473E508541FF88A828B83E054E04890
:1056C300F0E0D2E7F08E828F83A3A882A983900CA7
:1056D30032E0640288828983700C7401F08A828BC1
:1056E30083E0D2E68001E4F08E828F837413F0129C
:1056F3005F81124F1B90050AE0F8A3E0F5838882CF
:10570300E0F8851082851183E0F9A3E0F5838982AF
:10571300E054606420704BE8900C03F090050AE0BD
:10572300F8A3E0F58388827414F0900C31E0F50857
:10573300750900740278081205DD74392508F582AD
:1057430074B23509F58312080579017C0B7D5D7A06
:10575300147B0C129C3874041206067401900C2BF3
:1057630080187414687014900C03E0C0E090050A6C
:10577300E0F8A3E0F5838882D0E0F08510828511FC
:1057830083E0F8A3E0F5838882E0A2E64003127584
:10579300F51261F88B09EA4509700302527C125F26
:1057A3008102527F74F112065874FE1205F08510BF
:1057B30082851183EAF0A3EBF0900D93E06003027E
:1057C3005A41900C2FE064017003025A4190050A7C
:1057D300E0F8A3E0F5838882E024F2600E24FE6003
:1057E3000A24FC70030258920258D5900C2AE060F8
:1057F30003025A4612B0EA8A0C8B0D900C31E0F585
:1058030008750900740278081205DDAA08AB09902F
:105813000C30E0F508750900740278081205DD7490
:10582300C22508F58274B03509F58378081204821D
:1058330074392AF58274B23BF5837808120390C059
:1058430008C009C00AC00BE4F50EF50F74492AF528
:105853008274B23BF5837808120482780C790812BB
:105863000288D00FD00ED00DD00C780C790812031B
:105873006A780C1207B579017CD17D5B7A0C7B0CBD
:10588300129C3874041206067401900C2A803F900F
:105893000C2BE06003025A46900C31E0F5087509C1
:1058A30000740278081205DD74392508F58274B294
:1058B3003509F58312080579017C0B7D5D7A147B2C
:1058C3000C129C3874041206067401900C2BF0021F
:1058D3005A461261F88A088B09AE08AF09EE4F7079
:1058E30003025A3C8E828F83A3E070030259F49023
:1058F3000C2FE0640370030259F48E828F83A3A3F9
:10590300A3A3A3E0A2E640030259EC900C2FE014FA
:1059130060061460320259FB8E828F83740EF090FE
:105923000C30E0F508750900740278081205DD747F
:10593300C22508F58274B03509F58312080579018B
:105943007C837D5B0259D98E828F837410F012B0F1
:10595300EA8A0C8B0D900C31E0F50875090074028E
:1059630078081205DDAA08AB09900C30E0F508753C
:105973000900740278081205DD74C22508F58274E3
:10598300B03509F583780812048274392AF58274D4
:10599300B23BF5837808120390C008C009C00AC05F
:1059A3000BE4F50EF50F74492AF58274B23BF583C7
:1059B3007808120482780C7908120288D00FD00E6E
:1059C300D00DD00C780C790812036A780C1207B545
:1059D30079017CD17D5B7A0C7B0C129C38740412A8
:1059E30006067401900C2A800E8E828F83740680C3
:1059F300068E828F837405F090050AEEF0A3EFF014
:105A0300EE2405F582E43FF583E054C06480700E14
:105A13001261F88B09EA45096004E0D2E5F08E8251
:105A23008F83A982AA837B001272BEE06405701380
:105A3300EEFAEFFB1262A9800A12751A8005790249
:105A4300129D2490051DE064016003025B17900C16
:105A530029E0C3940A5003025AEA900C27E0F8A302
:105A6300E0F9900C29E0FA7B0012055D88088909AA
:105A7300AA08AB09900C27E4F0A3F0900C29F0904E
:105A8300050EE0F8A3E0F9C3EA98EB99A2D265D03A
:105A930033500890050EEAF0A3EBF0900510E014E4
:105AA300F0E0707090050EE0646A7003A3E0F47098
:105AB3000990050CEAF0A3EB800F90050EE0F8A324
:105AC300E0F990050CE8F0A3E9F090050EE4F0A3EB
:105AD300F0900C31E0F8748128F582E434B3F58357
:105AE300E493900510802C904040E0F83395E0F962
:105AF300900C27E028F0A3E039F0900533E0F83369
:105B030095E0F9900C27C3E098F0A3E099F0900C8E
:105B130029E004F0900C2FE06401700812751A90CC
